{
  "_format": "hh-sol-artifact-1",
  "contractName": "MidasLinearPoolFactory",
  "sourceName": "contracts/midas-linear-pool/MidasLinearPoolFactory.sol",
  "abi": [
    {
      "inputs": [
        {
          "internalType": "contract IVault",
          "name": "vault",
          "type": "address"
        },
        {
          "internalType": "contract IProtocolFeePercentagesProvider",
          "name": "protocolFeeProvider",
          "type": "address"
        },
        {
          "internalType": "contract IBalancerQueries",
          "name": "queries",
          "type": "address"
        },
        {
          "internalType": "string",
          "name": "factoryVersion",
          "type": "string"
        },
        {
          "internalType": "string",
          "name": "poolVersion",
          "type": "string"
        },
        {
          "internalType": "uint256",
          "name": "initialPauseWindowDuration",
          "type": "uint256"
        },
        {
          "internalType": "uint256",
          "name": "bufferPeriodDuration",
          "type": "uint256"
        }
      ],
      "stateMutability": "nonpayable",
      "type": "constructor"
    },
    {
      "anonymous": false,
      "inputs": [],
      "name": "FactoryDisabled",
      "type": "event"
    },
    {
      "anonymous": false,
      "inputs": [
        {
          "indexed": true,
          "internalType": "address",
          "name": "pool",
          "type": "address"
        },
        {
          "indexed": true,
          "internalType": "uint256",
          "name": "protocolId",
          "type": "uint256"
        }
      ],
      "name": "MidasLinearPoolCreated",
      "type": "event"
    },
    {
      "anonymous": false,
      "inputs": [
        {
          "indexed": true,
          "internalType": "address",
          "name": "pool",
          "type": "address"
        }
      ],
      "name": "PoolCreated",
      "type": "event"
    },
    {
      "inputs": [
        {
          "internalType": "string",
          "name": "name",
          "type": "string"
        },
        {
          "internalType": "string",
          "name": "symbol",
          "type": "string"
        },
        {
          "internalType": "contract IERC20",
          "name": "mainToken",
          "type": "address"
        },
        {
          "internalType": "contract IERC20",
          "name": "wrappedToken",
          "type": "address"
        },
        {
          "internalType": "uint256",
          "name": "upperTarget",
          "type": "uint256"
        },
        {
          "internalType": "uint256",
          "name": "swapFeePercentage",
          "type": "uint256"
        },
        {
          "internalType": "address",
          "name": "owner",
          "type": "address"
        },
        {
          "internalType": "uint256",
          "name": "protocolId",
          "type": "uint256"
        }
      ],
      "name": "create",
      "outputs": [
        {
          "internalType": "contract LinearPool",
          "name": "",
          "type": "address"
        }
      ],
      "stateMutability": "nonpayable",
      "type": "function"
    },
    {
      "inputs": [],
      "name": "disable",
      "outputs": [],
      "stateMutability": "nonpayable",
      "type": "function"
    },
    {
      "inputs": [
        {
          "internalType": "bytes4",
          "name": "selector",
          "type": "bytes4"
        }
      ],
      "name": "getActionId",
      "outputs": [
        {
          "internalType": "bytes32",
          "name": "",
          "type": "bytes32"
        }
      ],
      "stateMutability": "view",
      "type": "function"
    },
    {
      "inputs": [],
      "name": "getAuthorizer",
      "outputs": [
        {
          "internalType": "contract IAuthorizer",
          "name": "",
          "type": "address"
        }
      ],
      "stateMutability": "view",
      "type": "function"
    },
    {
      "inputs": [],
      "name": "getCreationCode",
      "outputs": [
        {
          "internalType": "bytes",
          "name": "",
          "type": "bytes"
        }
      ],
      "stateMutability": "view",
      "type": "function"
    },
    {
      "inputs": [],
      "name": "getCreationCodeContracts",
      "outputs": [
        {
          "internalType": "address",
          "name": "contractA",
          "type": "address"
        },
        {
          "internalType": "address",
          "name": "contractB",
          "type": "address"
        }
      ],
      "stateMutability": "view",
      "type": "function"
    },
    {
      "inputs": [],
      "name": "getLastCreatedPool",
      "outputs": [
        {
          "internalType": "address",
          "name": "",
          "type": "address"
        }
      ],
      "stateMutability": "view",
      "type": "function"
    },
    {
      "inputs": [],
      "name": "getPauseConfiguration",
      "outputs": [
        {
          "internalType": "uint256",
          "name": "pauseWindowDuration",
          "type": "uint256"
        },
        {
          "internalType": "uint256",
          "name": "bufferPeriodDuration",
          "type": "uint256"
        }
      ],
      "stateMutability": "view",
      "type": "function"
    },
    {
      "inputs": [],
      "name": "getPoolVersion",
      "outputs": [
        {
          "internalType": "string",
          "name": "",
          "type": "string"
        }
      ],
      "stateMutability": "view",
      "type": "function"
    },
    {
      "inputs": [],
      "name": "getProtocolFeePercentagesProvider",
      "outputs": [
        {
          "internalType": "contract IProtocolFeePercentagesProvider",
          "name": "",
          "type": "address"
        }
      ],
      "stateMutability": "view",
      "type": "function"
    },
    {
      "inputs": [],
      "name": "getVault",
      "outputs": [
        {
          "internalType": "contract IVault",
          "name": "",
          "type": "address"
        }
      ],
      "stateMutability": "view",
      "type": "function"
    },
    {
      "inputs": [],
      "name": "isDisabled",
      "outputs": [
        {
          "internalType": "bool",
          "name": "",
          "type": "bool"
        }
      ],
      "stateMutability": "view",
      "type": "function"
    },
    {
      "inputs": [
        {
          "internalType": "address",
          "name": "pool",
          "type": "address"
        }
      ],
      "name": "isPoolFromFactory",
      "outputs": [
        {
          "internalType": "bool",
          "name": "",
          "type": "bool"
        }
      ],
      "stateMutability": "view",
      "type": "function"
    },
    {
      "inputs": [],
      "name": "version",
      "outputs": [
        {
          "internalType": "string",
          "name": "",
          "type": "string"
        }
      ],
      "stateMutability": "view",
      "type": "function"
    }
  ],
  "bytecode": "0x6101e06040523480156200001257600080fd5b506040516200969a3803806200969a8339810160408190526200003591620003bc565b86868383604051806020016200004b906200026b565b601f1982820381018352601f9091011660405282828630848d6200006f816200017d565b5080516002810460a081905280820360e0819052818452836200009e8162000196602090811b62000a0017901c565b60601b6001600160601b0319166080528285018051838252620000cd8262000196602090811b62000a0017901c565b6001600160601b0319606091821b811660c0529690935290526101009590955250509290911b909116610120525062000110630163f500831115610194620001ea565b620001246276a700821115610195620001ea565b610140829052610160524201610180525050506001600160601b0319606091821b81166101a05260016003559087901b166101c0525082516200016f90600790602086019062000279565b50505050505050506200048d565b80516200019290600090602084019062000279565b5050565b80517f602038038060206000396000f3fefefefefefefefefefefefefefefefefefefe808352600091602081018484f09084529150620001e46001600160a01b03831615156101ac620001ea565b50919050565b816200019257620001928162000207816210905360ea1b6200020a565b50565b62461bcd60e51b600090815260206004526007602452600a808404818106603090810160081b958390069590950190829004918206850160101b01602363ffffff0060e086901c160160181b0190930160c81b60445260e882901c90606490fd5b6159248062003d7683390190565b828054600181600116156101000203166002900490600052602060002090601f016020900481019282601f10620002bc57805160ff1916838001178555620002ec565b82800160010185558215620002ec579182015b82811115620002ec578251825591602001919060010190620002cf565b50620002fa929150620002fe565b5090565b5b80821115620002fa5760008155600101620002ff565b600082601f83011262000326578081fd5b81516001600160401b03808211156200033d578283fd5b6040516020601f8401601f19168201810183811183821017156200035f578586fd5b806040525081945083825286818588010111156200037c57600080fd5b600092505b83831015620003a0578583018101518284018201529182019162000381565b83831115620003b25760008185840101525b5050505092915050565b600080600080600080600060e0888a031215620003d7578283fd5b8751620003e48162000477565b6020890151909750620003f78162000477565b60408901519096506200040a8162000477565b60608901519095506001600160401b038082111562000427578485fd5b620004358b838c0162000315565b955060808a01519150808211156200044b578485fd5b506200045a8a828b0162000315565b93505060a0880151915060c0880151905092959891949750929550565b6001600160a01b03811681146200020757600080fd5b60805160601c60a05160c05160601c60e051610100516101205160601c6101405161016051610180516101a05160601c6101c05160601c613854620005226000398061068252508061050452508061028b52806102b55250806102d95250508061057c52508061052a525080610a695250806102625280610ae5525080610a8a5250806102415280610ac152506138546000f3fe60806040523480156200001157600080fd5b5060043610620000ff5760003560e01c80636634b7531162000099578063851c1bb3116200006f578063851c1bb314620001cd5780638d928af814620001f3578063aaabadc514620001fd578063df8af989146200020757620000ff565b80636634b75314620001935780636c57f5a914620001b9578063739238d614620001c357620000ff565b80632f2770db11620000db5780632f2770db146200015a5780633f819b6f146200016657806354fd4d5014620001705780635ed31282146200017a57620000ff565b8062c194db1462000104578063174481fa14620001265780632da47c401462000140575b600080fd5b6200010e6200021e565b6040516200011d919062001449565b60405180910390f35b620001306200023f565b6040516200011d929190620013e2565b6200014a62000285565b6040516200011d92919062001642565b620001646200030e565b005b6200010e62000378565b6200010e62000430565b62000184620004b2565b6040516200011d9190620013c1565b620001aa620001a43660046200114b565b620004ce565b6040516200011d919062001409565b620001aa620004f9565b6200018462000502565b620001e4620001de3660046200118c565b62000526565b6040516200011d919062001414565b620001846200057a565b620001846200059e565b6200018462000218366004620011ed565b6200062b565b60606200023a6040518060200160405280600081525062000a61565b905090565b7f00000000000000000000000000000000000000000000000000000000000000007f00000000000000000000000000000000000000000000000000000000000000009091565b600080427f00000000000000000000000000000000000000000000000000000000000000008110156200030057807f00000000000000000000000000000000000000000000000000000000000000000392507f0000000000000000000000000000000000000000000000000000000000000000915062000309565b60009250600091505b509091565b6200031862000b3c565b6200032262000b8b565b600280547fffffffffffffffffffffffffffffffffffffffffffffffffffffffffffffff001660011790556040517f432acbfd662dbb5d8b378384a67159b47ca9d0f1b79f97cf64cf8585fa362d5090600090a1565b60078054604080516020601f60027fffffffffffffffffffffffffffffffffffffffffffffffffffffffffffffffff610100600188161502019095169490940493840181900481028201810190925282815260609390929091830182828015620004265780601f10620003fa5761010080835404028352916020019162000426565b820191906000526020600020905b8154815290600101906020018083116200040857829003601f168201915b5050505050905090565b60008054604080516020601f60027fffffffffffffffffffffffffffffffffffffffffffffffffffffffffffffffff610100600188161502019095169490940493840181900481028201810190925282815260609390929091830182828015620004265780601f10620003fa5761010080835404028352916020019162000426565b60065473ffffffffffffffffffffffffffffffffffffffff1690565b73ffffffffffffffffffffffffffffffffffffffff1660009081526001602052604090205460ff1690565b60025460ff1690565b7f000000000000000000000000000000000000000000000000000000000000000090565b60007f0000000000000000000000000000000000000000000000000000000000000000826040516020016200055d9291906200135e565b604051602081830303815290604052805190602001209050919050565b7f000000000000000000000000000000000000000000000000000000000000000090565b6000620005aa6200057a565b73ffffffffffffffffffffffffffffffffffffffff1663aaabadc56040518163ffffffff1660e01b815260040160206040518083038186803b158015620005f057600080fd5b505afa15801562000605573d6000803e3d6000fd5b505050506040513d601f19601f820116820180604052508101906200023a9190620011ce565b60006200063762000ba4565b600480546001808201909255600580549283019055604051909190606090620006636020820162000fec565b601f1982820381018352601f90910116604052620006806200057a565b7f0000000000000000000000000000000000000000000000000000000000000000604051602001620006b4929190620013e2565b60408051601f1981840301815290829052620006d492916020016200138e565b60405160208183030381529060405290506000620006fa83838051906020012062000bbf565b90506000806200070962000285565b915091506200071762000ffa565b620007216200057a565b816000019073ffffffffffffffffffffffffffffffffffffffff16908173ffffffffffffffffffffffffffffffffffffffff16815250508f81602001819052508e81604001819052508d816060019073ffffffffffffffffffffffffffffffffffffffff16908173ffffffffffffffffffffffffffffffffffffffff16815250508c816080019073ffffffffffffffffffffffffffffffffffffffff16908173ffffffffffffffffffffffffffffffffffffffff1681525050838160a0019073ffffffffffffffffffffffffffffffffffffffff16908173ffffffffffffffffffffffffffffffffffffffff16815250508b8160c00181815250508a8160e0018181525050828161010001818152505081816101200181815250508981610140019073ffffffffffffffffffffffffffffffffffffffff16908173ffffffffffffffffffffffffffffffffffffffff16815250506200087f62000378565b610160820152604051600090620008b690620008a09084906020016200153a565b6040516020818303038152906040528962000bd5565b90508073ffffffffffffffffffffffffffffffffffffffff16638129fc1c6040518163ffffffff1660e01b8152600401600060405180830381600087803b1580156200090157600080fd5b505af115801562000916573d6000803e3d6000fd5b5050505060006200092a6000898962000c2c565b90508073ffffffffffffffffffffffffffffffffffffffff168673ffffffffffffffffffffffffffffffffffffffff16146200099d576040517f08c379a00000000000000000000000000000000000000000000000000000000081526004016200099490620014cc565b60405180910390fd5b6040518b9073ffffffffffffffffffffffffffffffffffffffff8416907fc4c9c782291fb24ab3ef4b90ea92a36847f0f9a1cb62920c29e64c5ffdcc5db090600090a350975050505050505050620009f462000d0a565b98975050505050505050565b80517f602038038060206000396000f3fefefefefefefefefefefefefefefefefefefe808352600091602081018484f0908452915062000a5b73ffffffffffffffffffffffffffffffffffffffff831615156101ac62000d11565b50919050565b8051604080517f00000000000000000000000000000000000000000000000000000000000000007f0000000000000000000000000000000000000000000000000000000000000000818101858101848101602090810190965280855293957f00000000000000000000000000000000000000000000000000000000000000009592947f000000000000000000000000000000000000000000000000000000000000000094938801866000828a3c846000888301883c506020898101908985010162000b2e81838662000d26565b505050505050505050919050565b600062000b6d6000357fffffffff000000000000000000000000000000000000000000000000000000001662000526565b905062000b8862000b7f823362000d84565b61019162000d11565b50565b62000ba262000b99620004f9565b1560d362000d11565b565b62000bb86002600354141561019062000d11565b6002600355565b600062000bce83833062000e22565b9392505050565b60008062000be4848462000e63565b600680547fffffffffffffffffffffffff00000000000000000000000000000000000000001673ffffffffffffffffffffffffffffffffffffffff8316179055949350505050565b6000808447101562000c6c576040517f08c379a000000000000000000000000000000000000000000000000000000000815260040162000994906200145e565b825162000ca7576040517f08c379a0000000000000000000000000000000000000000000000000000000008152600401620009949062001503565b8383516020850187f5905073ffffffffffffffffffffffffffffffffffffffff811662000d02576040517f08c379a0000000000000000000000000000000000000000000000000000000008152600401620009949062001495565b949350505050565b6001600355565b8162000d225762000d228162000f00565b5050565b5b6020811062000d48578151835260209283019290910190601f190162000d27565b905182516020929092036101000a7fffffffffffffffffffffffffffffffffffffffffffffffffffffffffffffffff0180199091169116179052565b600062000d906200059e565b73ffffffffffffffffffffffffffffffffffffffff16639be2a8848484306040518463ffffffff1660e01b815260040162000dce939291906200141d565b60206040518083038186803b15801562000de757600080fd5b505afa15801562000dfc573d6000803e3d6000fd5b505050506040513d601f19601f8201168201806040525081019062000bce91906200116a565b60008060ff60f81b83868660405160200162000e429493929190620012fa565b60408051808303601f19018152919052805160209091012095945050505050565b600062000e6f62000b8b565b600062000e7d848462000f2c565b73ffffffffffffffffffffffffffffffffffffffff8116600081815260016020819052604080832080547fffffffffffffffffffffffffffffffffffffffffffffffffffffffffffffff00169092179091555192935090917f83a48fbcfc991335314e74d0496aab6a1987e992ddc85dddbcc4d6dd6ef2e9fc9190a29392505050565b62000b88817f42414c000000000000000000000000000000000000000000000000000000000062000f71565b6000606062000f3b8462000a61565b90506000838251602084016000f5905073ffffffffffffffffffffffffffffffffffffffff811662000d02573d6000803e3d6000fd5b7f08c379a000000000000000000000000000000000000000000000000000000000600090815260206004526007602452600a808404818106603090810160081b958390069590950190829004918206850160101b01602363ffffff0060e086901c160160181b0190930160c81b60445260e882901c90606490fd5b61217880620016a783390190565b604051806101800160405280600073ffffffffffffffffffffffffffffffffffffffff1681526020016060815260200160608152602001600073ffffffffffffffffffffffffffffffffffffffff168152602001600073ffffffffffffffffffffffffffffffffffffffff168152602001600073ffffffffffffffffffffffffffffffffffffffff16815260200160008152602001600081526020016000815260200160008152602001600073ffffffffffffffffffffffffffffffffffffffff168152602001606081525090565b600082601f830112620010da578081fd5b813567ffffffffffffffff80821115620010f2578283fd5b6040516020601f19601f850116820101818110838211171562001113578485fd5b6040528281529250828483016020018610156200112f57600080fd5b8260208601602083013760006020848301015250505092915050565b6000602082840312156200115d578081fd5b813562000bce8162001683565b6000602082840312156200117c578081fd5b8151801515811462000bce578182fd5b6000602082840312156200119e578081fd5b81357fffffffff000000000000000000000000000000000000000000000000000000008116811462000bce578182fd5b600060208284031215620011e0578081fd5b815162000bce8162001683565b600080600080600080600080610100898b0312156200120a578384fd5b883567ffffffffffffffff8082111562001222578586fd5b620012308c838d01620010c9565b995060208b013591508082111562001246578586fd5b50620012558b828c01620010c9565b9750506040890135620012688162001683565b955060608901356200127a8162001683565b94506080890135935060a0890135925060c08901356200129a8162001683565b8092505060e089013590509295985092959890939650565b73ffffffffffffffffffffffffffffffffffffffff169052565b60008151808452620012e681602086016020860162001650565b601f01601f19169290920160200192915050565b7fff0000000000000000000000000000000000000000000000000000000000000094909416845260609290921b7fffffffffffffffffffffffffffffffffffffffff0000000000000000000000001660018401526015830152603582015260550190565b9182527fffffffff0000000000000000000000000000000000000000000000000000000016602082015260240190565b60008351620013a281846020880162001650565b835190830190620013b881836020880162001650565b01949350505050565b73ffffffffffffffffffffffffffffffffffffffff91909116815260200190565b73ffffffffffffffffffffffffffffffffffffffff92831681529116602082015260400190565b901515815260200190565b90815260200190565b92835273ffffffffffffffffffffffffffffffffffffffff918216602084015216604082015260600190565b60006020825262000bce6020830184620012cc565b6020808252601c908201527f435245415445325f494e53554646494349454e545f42414c414e434500000000604082015260600190565b60208082526015908201527f435245415445325f4445504c4f595f4641494c45440000000000000000000000604082015260600190565b6020808252601c908201527f526562616c616e636572206465706c6f796d656e74206661696c656400000000604082015260600190565b60208082526015908201527f435245415445325f42595445434f44455f5a45524f0000000000000000000000604082015260600190565b60006020825262001550602083018451620012b2565b60208301516101808060408501526200156e6101a0850183620012cc565b91506040850151601f19808685030160608701526200158e8483620012cc565b935060608701519150620015a66080870183620012b2565b60808701519150620015bc60a0870183620012b2565b60a08701519150620015d260c0870183620012b2565b60c087015160e08781019190915287015161010080880191909152870151610120808801919091528701516101408088019190915287015191506101606200161d81880184620012b2565b870151868503909101838701529050620016388382620012cc565b9695505050505050565b918252602082015260400190565b60005b838110156200166d57818101518382015260200162001653565b838111156200167d576000848401525b50505050565b73ffffffffffffffffffffffffffffffffffffffff8116811462000b8857600080fdfe6101806040523480156200001257600080fd5b5060405162002178380380620021788339810160408190526200003591620006ca565b336001600160a01b0316635ed312826040518163ffffffff1660e01b815260040160206040518083038186803b1580156200006f57600080fd5b505afa15801562000084573d6000803e3d6000fd5b505050506040513d601f19601f82011682018060405250810190620000aa9190620005e0565b8282826001600160a01b0316631dd746ea6040518163ffffffff1660e01b815260040160006040518083038186803b158015620000e657600080fd5b505afa158015620000fb573d6000803e3d6000fd5b505050506040513d6000823e601f3d908101601f1916820160405262000125919081019062000606565b836001600160a01b0316634d64cd746040518163ffffffff1660e01b815260040160206040518083038186803b1580156200015f57600080fd5b505afa15801562000174573d6000803e3d6000fd5b505050506040513d601f19601f820116820180604052508101906200019a9190620006b1565b81518110620001a557fe5b602090810291909101810151610100526001600160601b0319606085901b166080526040805163038fff2d60e41b815290516001600160a01b038616926338fff2d09260048082019391829003018186803b1580156200020457600080fd5b505afa15801562000219573d6000803e3d6000fd5b505050506040513d601f19601f820116820180604052508101906200023f9190620006b1565b60a08181525050826001600160a01b0316634de046d56040518163ffffffff1660e01b815260040160206040518083038186803b1580156200028057600080fd5b505afa15801562000295573d6000803e3d6000fd5b505050506040513d601f19601f82011682018060405250810190620002bb9190620005e0565b6001600160a01b031660c0816001600160a01b031660601b81525050826001600160a01b031663f174e2416040518163ffffffff1660e01b815260040160206040518083038186803b1580156200031157600080fd5b505afa15801562000326573d6000803e3d6000fd5b505050506040513d601f19601f820116820180604052508101906200034c9190620005e0565b6001600160601b0319606091821b811660e05292811b8316610120521b16610140525060408051632f69894160e11b815290516000913391635ed3128291600480820192602092909190829003018186803b158015620003ab57600080fd5b505afa158015620003c0573d6000803e3d6000fd5b505050506040513d601f19601f82011682018060405250810190620003e69190620005e0565b90506000816001600160a01b0316634de046d56040518163ffffffff1660e01b815260040160206040518083038186803b1580156200042457600080fd5b505afa15801562000439573d6000803e3d6000fd5b505050506040513d601f19601f820116820180604052508101906200045f9190620005e0565b90506000826001600160a01b031663f174e2416040518163ffffffff1660e01b815260040160206040518083038186803b1580156200049d57600080fd5b505afa158015620004b2573d6000803e3d6000fd5b505050506040513d601f19601f82011682018060405250810190620004d89190620005e0565b9050816001600160a01b031663313ce5676040518163ffffffff1660e01b815260040160206040518083038186803b1580156200051457600080fd5b505afa15801562000529573d6000803e3d6000fd5b505050506040513d601f19601f820116820180604052508101906200054f919062000708565b816001600160a01b031663313ce5676040518163ffffffff1660e01b815260040160206040518083038186803b1580156200058957600080fd5b505afa1580156200059e573d6000803e3d6000fd5b505050506040513d601f19601f82011682018060405250810190620005c4919062000708565b60ff91900360120116600a0a61016052506200076b9350505050565b600060208284031215620005f2578081fd5b8151620005ff8162000752565b9392505050565b6000602080838503121562000619578182fd5b82516001600160401b038082111562000630578384fd5b818501915085601f83011262000644578384fd5b81518181111562000653578485fd5b8381029150620006658483016200072b565b8181528481019084860184860187018a101562000680578788fd5b8795505b83861015620006a457805183526001959095019491860191860162000684565b5098975050505050505050565b600060208284031215620006c3578081fd5b5051919050565b60008060408385031215620006dd578081fd5b8251620006ea8162000752565b6020840151909250620006fd8162000752565b809150509250929050565b6000602082840312156200071a578081fd5b815160ff81168114620005ff578182fd5b6040518181016001600160401b03811182821017156200074a57600080fd5b604052919050565b6001600160a01b03811681146200076857600080fd5b50565b60805160601c60a05160c05160601c60e05160601c610100516101205160601c6101405160601c6101605161191b6200085d6000398061109b5250806105b452806108cc5250806101335280610cbf5280610fd9528061103b5250806103c75250806103f55280610517528061064452806107f352806109975280610d6a52806110bf52806111a4528061120652508060ea528061019052806104db528061067752806106dc528061077d528061082f528061095c528061118252508061016f52806104ad52806107c55280610b285280610c075280610e615280610f4052508060995280610311525061191b6000f3fe608060405234801561001057600080fd5b50600436106100415760003560e01c8063026b1d5f1461004657806321c2819114610064578063df633d8d14610084575b600080fd5b61004e610097565b60405161005b9190611651565b60405180910390f35b61007761007236600461150f565b6100bb565b60405161005b9190611884565b61007761009236600461152b565b6100ce565b7f000000000000000000000000000000000000000000000000000000000000000090565b60006100c682610122565b90505b919050565b600061011273ffffffffffffffffffffffffffffffffffffffff7f000000000000000000000000000000000000000000000000000000000000000016333085610261565b61011b83610122565b9392505050565b60008061012d61030a565b905060007f000000000000000000000000000000000000000000000000000000000000000073ffffffffffffffffffffffffffffffffffffffff1663b05f8e487f00000000000000000000000000000000000000000000000000000000000000007f00000000000000000000000000000000000000000000000000000000000000006040518363ffffffff1660e01b81526004016101cc92919061179d565b60806040518083038186803b1580156101e457600080fd5b505afa1580156101f8573d6000803e3d6000fd5b505050506040513d601f19601f8201168201806040525081019061021c91906115b1565b50505090506102296103f3565b818110156102465761023d81830385610496565b925050506100c9565b8181111561025a5761023d828203856107ae565b5050919050565b610304846323b872dd60e01b85858560405160240161028293929190611699565b604080517fffffffffffffffffffffffffffffffffffffffffffffffffffffffffffffffe08184030181529190526020810180517bffffffffffffffffffffffffffffffffffffffffffffffffffffffff167fffffffff00000000000000000000000000000000000000000000000000000000909316929092179091526109bc565b50505050565b60008060007f000000000000000000000000000000000000000000000000000000000000000073ffffffffffffffffffffffffffffffffffffffff166363fe3b566040518163ffffffff1660e01b8152600401604080518083038186803b15801561037457600080fd5b505afa158015610388573d6000803e3d6000fd5b505050506040513d601f19601f820116820180604052508101906103ac919061158e565b9150915060006002828401816103be57fe5b0490506103eb817f0000000000000000000000000000000000000000000000000000000000000000610a69565b935050505090565b7f000000000000000000000000000000000000000000000000000000000000000073ffffffffffffffffffffffffffffffffffffffff1663a6afed956040518163ffffffff1660e01b8152600401602060405180830381600087803b15801561045b57600080fd5b505af115801561046f573d6000803e3d6000fd5b505050506040513d601f19601f820116820180604052508101906104939190611576565b50565b60006104a061145c565b6040805160c081019091527f0000000000000000000000000000000000000000000000000000000000000000815260208101600081526020017f000000000000000000000000000000000000000000000000000000000000000073ffffffffffffffffffffffffffffffffffffffff1681526020017f000000000000000000000000000000000000000000000000000000000000000073ffffffffffffffffffffffffffffffffffffffff1681526020018581526020016040518060200160405280600081525081525090506105746114bf565b6040517fe969f6b300000000000000000000000000000000000000000000000000000000815260009073ffffffffffffffffffffffffffffffffffffffff7f0000000000000000000000000000000000000000000000000000000000000000169063e969f6b3906105eb90869086906004016117c1565b602060405180830381600087803b15801561060557600080fd5b505af1158015610619573d6000803e3d6000fd5b505050506040513d601f19601f8201168201806040525081019061063d9190611576565b90506106697f000000000000000000000000000000000000000000000000000000000000000082610abc565b61067281610d2d565b61069c7f000000000000000000000000000000000000000000000000000000000000000087610df5565b6040517f70a0823100000000000000000000000000000000000000000000000000000000815260009073ffffffffffffffffffffffffffffffffffffffff7f000000000000000000000000000000000000000000000000000000000000000016906370a0823190610711903090600401611651565b60206040518083038186803b15801561072957600080fd5b505afa15801561073d573d6000803e3d6000fd5b505050506040513d601f19601f820116820180604052508101906107619190611576565b90506107a473ffffffffffffffffffffffffffffffffffffffff7f0000000000000000000000000000000000000000000000000000000000000000168783611070565b9695505050505050565b60006107b861145c565b6040805160c081019091527f0000000000000000000000000000000000000000000000000000000000000000815260208101600181526020017f000000000000000000000000000000000000000000000000000000000000000073ffffffffffffffffffffffffffffffffffffffff1681526020017f000000000000000000000000000000000000000000000000000000000000000073ffffffffffffffffffffffffffffffffffffffff16815260200185815260200160405180602001604052806000815250815250905061088c6114bf565b6040517fe969f6b300000000000000000000000000000000000000000000000000000000815260009073ffffffffffffffffffffffffffffffffffffffff7f0000000000000000000000000000000000000000000000000000000000000000169063e969f6b39061090390869086906004016117c1565b602060405180830381600087803b15801561091d57600080fd5b505af1158015610931573d6000803e3d6000fd5b505050506040513d601f19601f820116820180604052508101906109559190611576565b90506109817f000000000000000000000000000000000000000000000000000000000000000087610abc565b61099261098d82611094565b611168565b61069c7f000000000000000000000000000000000000000000000000000000000000000082610df5565b600060608373ffffffffffffffffffffffffffffffffffffffff16836040516109e59190611635565b6000604051808303816000865af19150503d8060008114610a22576040519150601f19603f3d011682016040523d82523d6000602084013e610a27565b606091505b50915091506000821415610a3f573d6000803e3d6000fd5b610304815160001480610a61575081806020019051810190610a619190611556565b6101a261123b565b6000610a78821515600461123b565b670de0b6b3a76400008302610aaa841580610aa35750670de0b6b3a7640000858381610aa057fe5b04145b600561123b565b828181610ab357fe5b04949350505050565b6040805160028082526060828101909352816020015b610ada6114e6565b815260200190600190039081610ad2579050509050600081600081518110610afe57fe5b6020026020010151600001906002811115610b1557fe5b90816002811115610b2257fe5b815250507f000000000000000000000000000000000000000000000000000000000000000081600081518110610b5457fe5b602002602001015160200181815250508181600081518110610b7257fe5b602002602001015160600181815250508281600081518110610b9057fe5b60200260200101516040019073ffffffffffffffffffffffffffffffffffffffff16908173ffffffffffffffffffffffffffffffffffffffff1681525050600281600181518110610bdd57fe5b6020026020010151600001906002811115610bf457fe5b90816002811115610c0157fe5b815250507f000000000000000000000000000000000000000000000000000000000000000081600181518110610c3357fe5b60200260200101516020018181525050600081600181518110610c5257fe5b602002602001015160600181815250508281600181518110610c7057fe5b602090810291909101015173ffffffffffffffffffffffffffffffffffffffff918216604091820152517fe6c460920000000000000000000000000000000000000000000000000000000081527f00000000000000000000000000000000000000000000000000000000000000009091169063e6c4609290610cf6908490600401611719565b600060405180830381600087803b158015610d1057600080fd5b505af1158015610d24573d6000803e3d6000fd5b50505050505050565b6040517fdb006a7500000000000000000000000000000000000000000000000000000000815273ffffffffffffffffffffffffffffffffffffffff7f0000000000000000000000000000000000000000000000000000000000000000169063db006a7590610d9f908490600401611884565b602060405180830381600087803b158015610db957600080fd5b505af1158015610dcd573d6000803e3d6000fd5b505050506040513d601f19601f82011682018060405250810190610df19190611576565b5050565b6040805160028082526060828101909352816020015b610e136114e6565b815260200190600190039081610e0b579050509050600281600081518110610e3757fe5b6020026020010151600001906002811115610e4e57fe5b90816002811115610e5b57fe5b815250507f000000000000000000000000000000000000000000000000000000000000000081600081518110610e8d57fe5b602002602001015160200181815250508181600081518110610eab57fe5b602002602001015160600181815250508281600081518110610ec957fe5b60200260200101516040019073ffffffffffffffffffffffffffffffffffffffff16908173ffffffffffffffffffffffffffffffffffffffff1681525050600181600181518110610f1657fe5b6020026020010151600001906002811115610f2d57fe5b90816002811115610f3a57fe5b815250507f000000000000000000000000000000000000000000000000000000000000000081600181518110610f6c57fe5b602002602001015160200181815250508181600181518110610f8a57fe5b602002602001015160600181815250508281600181518110610fa857fe5b602090810291909101015173ffffffffffffffffffffffffffffffffffffffff918216604090910152610ffe9084167f000000000000000000000000000000000000000000000000000000000000000084611249565b6040517fe6c4609200000000000000000000000000000000000000000000000000000000815273ffffffffffffffffffffffffffffffffffffffff7f0000000000000000000000000000000000000000000000000000000000000000169063e6c4609290610cf6908490600401611719565b61108f8363a9059cbb60e01b84846040516024016102829291906116f3565b505050565b60006100c67f00000000000000000000000000000000000000000000000000000000000000006111627f000000000000000000000000000000000000000000000000000000000000000073ffffffffffffffffffffffffffffffffffffffff1663182df0f56040518163ffffffff1660e01b815260040160206040518083038186803b15801561112357600080fd5b505afa158015611137573d6000803e3d6000fd5b505050506040513d601f19601f8201168201806040525081019061115b9190611576565b859061133e565b90611380565b6111c973ffffffffffffffffffffffffffffffffffffffff7f0000000000000000000000000000000000000000000000000000000000000000167f000000000000000000000000000000000000000000000000000000000000000083611249565b6040517fa0712d6800000000000000000000000000000000000000000000000000000000815273ffffffffffffffffffffffffffffffffffffffff7f0000000000000000000000000000000000000000000000000000000000000000169063a0712d6890610d9f908490600401611884565b81610df157610df1816113cd565b80158015906112fa57506040517fdd62ed3e00000000000000000000000000000000000000000000000000000000815273ffffffffffffffffffffffffffffffffffffffff84169063dd62ed3e906112a79030908690600401611672565b60206040518083038186803b1580156112bf57600080fd5b505afa1580156112d3573d6000803e3d6000fd5b505050506040513d601f19601f820116820180604052508101906112f79190611576565b15155b1561131f5761131f8363095ea7b360e01b8460006040516024016102829291906116ca565b61108f8363095ea7b360e01b84846040516024016102829291906116f3565b600082820261136284158061135b57508385838161135857fe5b04145b600361123b565b6001670de0b6b3a76400006001830304018115150291505092915050565b600061138f821515600461123b565b670de0b6b3a764000083026113b7841580610aa35750670de0b6b3a7640000858381610aa057fe5b6001836001830304018115150291505092915050565b7f08c379a000000000000000000000000000000000000000000000000000000000600090815260206004526007602452600a808304818106603090810160081b83860601918390049283060160101b016642414c230000300160c81b604452610493917f42414c0000000000000000000000000000000000000000000000000000000000906242414c90606490fd5b6040805160c08101909152600080825260208201908152602001600073ffffffffffffffffffffffffffffffffffffffff168152602001600073ffffffffffffffffffffffffffffffffffffffff16815260200160008152602001606081525090565b60408051608081018252600080825260208201819052918101829052606081019190915290565b604080516080810190915280600081526000602082018190526040820181905260609091015290565b600060208284031215611520578081fd5b813561011b816118c3565b6000806040838503121561153d578081fd5b8235611548816118c3565b946020939093013593505050565b600060208284031215611567578081fd5b8151801515811461011b578182fd5b600060208284031215611587578081fd5b5051919050565b600080604083850312156115a0578182fd5b505080516020909101519092909150565b600080600080608085870312156115c6578182fd5b84519350602085015192506040850151915060608501516115e6816118c3565b939692955090935050565b73ffffffffffffffffffffffffffffffffffffffff808251168352602082015115156020840152806040830151166040840152506060810151151560608301525050565b6000825161164781846020870161188d565b9190910192915050565b73ffffffffffffffffffffffffffffffffffffffff91909116815260200190565b73ffffffffffffffffffffffffffffffffffffffff92831681529116602082015260400190565b73ffffffffffffffffffffffffffffffffffffffff9384168152919092166020820152604081019190915260600190565b73ffffffffffffffffffffffffffffffffffffffff92909216825260ff16602082015260400190565b73ffffffffffffffffffffffffffffffffffffffff929092168252602082015260400190565b602080825282518282018190526000919060409081850190868401855b8281101561179057815180516003811061174c57fe5b855280870151878601528581015173ffffffffffffffffffffffffffffffffffffffff16868601526060908101519085015260809093019290850190600101611736565b5091979650505050505050565b91825273ffffffffffffffffffffffffffffffffffffffff16602082015260400190565b600060a08252835160a083015260208401516117dc816118b9565b8060c084015250604084015173ffffffffffffffffffffffffffffffffffffffff80821660e0850152806060870151166101008501525050608084015161012083015260a084015160c0610140840152805180610160850152610180611848828287016020860161188d565b807fffffffffffffffffffffffffffffffffffffffffffffffffffffffffffffffe0601f840116860101935050505061011b60208301846115f1565b90815260200190565b60005b838110156118a8578181015183820152602001611890565b838111156103045750506000910152565b6002811061049357fe5b73ffffffffffffffffffffffffffffffffffffffff8116811461049357600080fdfea26469706673582212208cddc61b6550068f08f43884ab0df8a6078b859ae5b85c52828ef3277c3a2f3764736f6c63430007010033a264697066735822122046cc20b2a1efecfd7ff3cff318f41d30375da3c99d2f554bd4a70c025effeb6564736f6c634300070100336102c06040523480156200001257600080fd5b506040516200592438038062005924833981016040819052620000359162000d9a565b6101608101518151602083015160408401516060850151608086015160c0870151620000618862000410565b60e08901516101008a01516101208b01516101408c01518a6200009e8160006200008c8c8c62000499565b896200054a60201b620014241760201c565b8b8b86868686838387878b86336001600160a01b031660001b8480604051806040016040528060018152602001603160f81b81525087878160039080519060200190620000ed92919062000c23565b5080516200010390600490602084019062000c23565b50506005805460ff19166012179055508151602092830120608052805191012060a052507f8b73c3c69bb8fe3d512ecc4cf759cc79239f7b179b0ffacaa9a75d522b39400f60c05260e0526001600160601b0319606091821b81166101005291901b166101205250620001829050630163f50083111561019462000718565b620001966276a70082111561019562000718565b4291909101610140819052016101605260601b6001600160601b031916610180526101a08690526040805163d2946c2b60e01b815290516001600160a01b0389169163d2946c2b916004808301926020929190829003018186803b158015620001fe57600080fd5b505afa15801562000213573d6000803e3d6000fd5b505050506040513d601f19601f8201168201806040525081019062000239919062000d5b565b6001600160a01b03166101c0816001600160a01b031660601b8152505050505050505050876001600160a01b03166101e0816001600160a01b031660601b81525050866001600160a01b0316610200816001600160a01b031660601b81525050866001600160a01b0316886001600160a01b031610620002bb576002620002be565b60015b60ff16610220526001600160a01b0380881690891610620002e1576001620002e4565b60025b60ff1661024052620002f6886200072d565b6102605262000305876200072d565b61028052600062000318898289620007d9565b6200032385620008d3565b50505050505050505050505062000340816200096260201b60201c565b50600081608001519050806001600160a01b03166102a0816001600160a01b031660601b8152505062000408816001600160a01b0316636f307dc36040518163ffffffff1660e01b815260040160206040518083038186803b158015620003a657600080fd5b505afa158015620003bb573d6000803e3d6000fd5b505050506040513d601f19601f82011682018060405250810190620003e1919062000d5b565b6001600160a01b031683606001516001600160a01b0316146102086200071860201b60201c565b505062001017565b6040805160028082526060808301845292839291906020830190803683370190505090508260a00151816000815181106200044757fe5b60200260200101906001600160a01b031690816001600160a01b0316815250508260a00151816001815181106200047a57fe5b6001600160a01b03909216602092830291909101909101529050919050565b60408051600280825260608281019093526001600160a01b038481169086161091839181602001602082028036833701905050905081620004db5783620004dd565b845b81600081518110620004eb57fe5b60200260200101906001600160a01b031690816001600160a01b031681525050816200051857846200051a565b835b816001815181106200052857fe5b6001600160a01b03909216602092830291909101909101529150505b92915050565b600062000562836200097760201b620015d91760201c565b606083516001016001600160401b03811180156200057f57600080fd5b50604051908082528060200260200182016040528015620005aa578160200160208202803683370190505b5090503081600081518110620005bc57fe5b60200260200101906001600160a01b031690816001600160a01b03168152505060005b84518110156200062f57848181518110620005f657fe5b60200260200101518282600101815181106200060e57fe5b6001600160a01b0390921660209283029190910190910152600101620005df565b50606083516001016001600160401b03811180156200064d57600080fd5b5060405190808252806020026020018201604052801562000678578160200160208202803683370190505b5090506000816000815181106200068b57fe5b60200260200101906001600160a01b031690816001600160a01b03168152505060005b8451811015620006fe57848181518110620006c557fe5b6020026020010151828260010181518110620006dd57fe5b6001600160a01b0390921660209283029190910190910152600101620006ae565b506200070d8787848462000983565b979650505050505050565b816200072957620007298162000a7d565b5050565b600080826001600160a01b031663313ce5676040518163ffffffff1660e01b815260040160206040518083038186803b1580156200076a57600080fd5b505afa1580156200077f573d6000803e3d6000fd5b505050506040513d601f19601f82011682018060405250810190620007a5919062000ef1565b60ff1690506000620007c460128362000a9260201b620015e71760201c565b600a0a670de0b6b3a764000002949350505050565b620007ea8183111561014c62000718565b620008076b0de0b6b39983494c589c000082111561014d62000718565b62000821670de0b6b3a7640000825b061561016162000718565b62000835670de0b6b3a76400008362000816565b62000884670de0b6b3a76400008204604060206200086e670de0b6b3a764000087600854919004602080620015fd62000aaa821b17811c565b62000aaa60201b620015fd17909392919060201c565b6008556040516001600160a01b038416907fd0e27a0d0c2cb09280fa5e4487315455b32afcdcf012dc35b6ef2a0e3c4d128090620008c6908590859062000fc0565b60405180910390a2505050565b620008e864e8d4a5100082101560cb62000718565b6200090067016345785d8a000082111560ca62000718565b620009228160c0603f60085462000aaa60201b620015fd17909392919060201c565b6008556040517fa9ba3ffe0b6c366b81232caab38605a0699ad5398d6cce76f91ee809e322dafc906200095790839062000fb7565b60405180910390a150565b80516200072990600990602084019062000c23565b80620007298162000acf565b600080856001600160a01b03166309b2760f866040518263ffffffff1660e01b8152600401620009b4919062000fa2565b602060405180830381600087803b158015620009cf57600080fd5b505af1158015620009e4573d6000803e3d6000fd5b505050506040513d601f19601f8201168201806040525081019062000a0a919062000d81565b604051633354e3e960e11b81529091506001600160a01b038716906366a9c7d29062000a3f9084908890889060040162000f14565b600060405180830381600087803b15801562000a5a57600080fd5b505af115801562000a6f573d6000803e3d6000fd5b509298975050505050505050565b62000a8f816210905360ea1b62000b5b565b50565b600062000aa483831115600162000718565b50900390565b600062000ab984848462000bbc565b506001901b60001901811b1992909216911b1790565b60028151101562000ae05762000a8f565b60008160008151811062000af057fe5b602002602001015190506000600190505b825181101562000b5657600083828151811062000b1a57fe5b6020026020010151905062000b4b816001600160a01b0316846001600160a01b03161060656200071860201b60201c565b915060010162000b01565b505050565b62461bcd60e51b600090815260206004526007602452600a808404818106603090810160081b958390069590950190829004918206850160101b01602363ffffff0060e086901c160160181b0190930160c81b60445260e882901c90606490fd5b62000bcd6101008310606462000718565b62000c066001821015801562000bfe575062000bfa60ff846101000362000c1760201b620016201760201c565b8211155b606462000718565b62000b5683821c156101b462000718565b80820390821102900390565b828054600181600116156101000203166002900490600052602060002090601f016020900481019282601f1062000c6657805160ff191683800117855562000c96565b8280016001018555821562000c96579182015b8281111562000c9657825182559160200191906001019062000c79565b5062000ca492915062000ca8565b5090565b5b8082111562000ca4576000815560010162000ca9565b8051620005448162001001565b600082601f83011262000cdd578081fd5b81516001600160401b0381111562000cf3578182fd5b602062000d09601f8301601f1916820162000fce565b9250818352848183860101111562000d2057600080fd5b60005b8281101562000d4057848101820151848201830152810162000d23565b8281111562000d525760008284860101525b50505092915050565b60006020828403121562000d6d578081fd5b815162000d7a8162001001565b9392505050565b60006020828403121562000d93578081fd5b5051919050565b60006020828403121562000dac578081fd5b81516001600160401b038082111562000dc3578283fd5b818401915061018080838703121562000dda578384fd5b62000de58162000fce565b905062000df3868462000cbf565b815260208301518281111562000e07578485fd5b62000e158782860162000ccc565b60208301525060408301518281111562000e2d578485fd5b62000e3b8782860162000ccc565b60408301525062000e50866060850162000cbf565b606082015262000e64866080850162000cbf565b608082015262000e788660a0850162000cbf565b60a082015260c083015160c082015260e083015160e082015261010080840151818301525061012080840151818301525061014062000eba8782860162000cbf565b90820152610160838101518381111562000ed2578586fd5b62000ee08882870162000ccc565b918301919091525095945050505050565b60006020828403121562000f03578081fd5b815160ff8116811462000d7a578182fd5b60006060820185835260206060818501528186518084526080860191508288019350845b8181101562000f605762000f4d855162000ff5565b8352938301939183019160010162000f38565b505084810360408601528551808252908201925081860190845b8181101562000a6f5762000f8f835162000ff5565b8552938301939183019160010162000f7a565b602081016003831062000fb157fe5b91905290565b90815260200190565b918252602082015260400190565b6040518181016001600160401b038111828210171562000fed57600080fd5b604052919050565b6001600160a01b031690565b6001600160a01b038116811462000a8f57600080fd5b60805160a05160c05160e0516101005160601c6101205160601c61014051610160516101805160601c6101a0516101c05160601c6101e05160601c6102005160601c610220516102405161026051610280516102a05160601c614773620011b1600039806118435250806107f45250806107905280612a7a525080610718528061081c5280610c515280612ef5528061307e52806131b652806132c1528061343e52806135765250806107b252806109bc5280610c175280612ec15280613003528061304a52806131405280613182528061328d52806133c8528061340a528061350052806135425250806113f852806126e452806127b05280612aa05280612e765280612f8f528061324352806133545250806109e052806110ee5280611aaa5280611b49528061269b52806127675280612a3f5280612e375280612f3952806130cc52806132045280613305528061348c5250806111cc5250806109495250508061181d5250806117f9525080610fd1525080610fad525080610f5d5250806123d852508061241a5250806123f952506147736000f3fe608060405234801561001057600080fd5b506004361061032b5760003560e01c80637ecebe00116101b2578063a457c2d7116100f9578063d505accf116100a2578063de82cd341161007c578063de82cd34146105e8578063ed24911d146105f0578063f174e241146105f8578063f5431aa8146106005761032b565b8063d505accf146105af578063d5c096c4146105c2578063dd62ed3e146105d55761032b565b8063b35056b8116100d3578063b35056b814610597578063b7b814fc1461059f578063d2946c2b146105a75761032b565b8063a457c2d714610569578063a9059cbb1461057c578063aaabadc51461058f5761032b565b8063893d20e81161015b57806395d89b411161013557806395d89b411461053b5780639d2c110c146105435780639f11080e146105565761032b565b8063893d20e8146105185780638d928af81461052057806390193b7c146105285761032b565b80638456cb591161018c5780638456cb59146104fd578063851c1bb31461050557806387ec6817146104675761032b565b80637ecebe00146104da5780638129fc1c146104ed57806382687a56146104f55761032b565b8063395093511161027657806355c676281161021f578063679aefce116101f9578063679aefce1461049e57806370a08231146104a657806374f3b009146104b95761032b565b806355c676281461045f5780636028bfd41461046757806363fe3b56146104885761032b565b80634de046d5116102505780634de046d51461043a57806354a844ba1461044f57806354fd4d50146104575761032b565b806339509351146104175780633f4ba83a1461042a5780634d64cd74146104325761032b565b80631dd746ea116102d85780633644e515116102b25780633644e515146103f257806338e9922e146103fa57806338fff2d01461040f5761032b565b80631dd746ea146103b557806323b872dd146103ca578063313ce567146103dd5761032b565b806316b8d6ff1161030957806316b8d6ff1461038e57806318160ddd146103965780631c0de0511461039e5761032b565b806301ec954a1461033057806306fdde0314610359578063095ea7b31461036e575b600080fd5b61034361033e3660046140a7565b610608565b604051610350919061443a565b60405180910390f35b610361610668565b604051610350919061467e565b61038161037c366004613e79565b6106ff565b6040516103509190614417565b610343610716565b61034361073a565b6103a6610740565b60405161035093929190614422565b6103bd610769565b60405161035091906143df565b6103816103d8366004613dc9565b610877565b6103e56108ed565b60405161035091906146b8565b6103436108f6565b61040d610408366004614164565b610905565b005b610343610947565b610381610425366004613e79565b61096b565b61040d6109a6565b6103436109ba565b6104426109de565b6040516103509190614334565b61040d610a02565b610361610a56565b610343610ab7565b61047a610475366004613fa8565b610aca565b604051610350929190614691565b610490610ae8565b6040516103509291906146aa565b610343610b26565b6103436104b4366004613d75565b610cbb565b6104cc6104c7366004613fa8565b610cda565b6040516103509291906143f2565b6103436104e8366004613d75565b610d9c565b61040d610da7565b610343610f42565b61040d610f47565b61034361051336600461404b565b610f59565b610442610fab565b610442610fcf565b610343610536366004613d75565b610ff3565b61036161100e565b610343610551366004614118565b61106f565b61040d61056436600461417c565b6110a8565b610381610577366004613e79565b61111a565b61038161058a366004613e79565b611158565b610442611165565b61038161116f565b61040d611180565b6104426111ca565b61040d6105bd366004613e09565b6111ee565b6104cc6105d0366004613fa8565b61126f565b6103436105e3366004613d91565b611306565b610343611343565b6103436113ec565b6104426113f6565b61034361141a565b6000846080015161063561061a610fcf565b6001600160a01b0316336001600160a01b03161460cd61162c565b61064a610640610947565b82146101f461162c565b61065261163a565b61065e8686868661164d565b9695505050505050565b60038054604080516020601f60026000196101006001881615020190951694909404938401819004810282018101909252828152606093909290918301828280156106f45780601f106106c9576101008083540402835291602001916106f4565b820191906000526020600020905b8154815290600101906020018083116106d757829003601f168201915b505050505090505b90565b600061070c338484611772565b5060015b92915050565b7f000000000000000000000000000000000000000000000000000000000000000090565b60025490565b600080600061074d6117da565b1592506107586117f7565b915061076261181b565b9050909192565b604080516003808252608082019092526060918291906020820183803683370190505090507f0000000000000000000000000000000000000000000000000000000000000000817f0000000000000000000000000000000000000000000000000000000000000000815181106107db57fe5b6020026020010181815250506108196107f261183f565b7f000000000000000000000000000000000000000000000000000000000000000090611914565b817f00000000000000000000000000000000000000000000000000000000000000008151811061084557fe5b602002602001018181525050670de0b6b3a76400008160008151811061086757fe5b6020908102919091010152905090565b6000806108848533611306565b90506108a8336001600160a01b03871614806108a05750838210155b61019e61162c565b6108b385858561194c565b336001600160a01b038616148015906108ce57506000198114155b156108e0576108e08533858403611772565b60019150505b9392505050565b60055460ff1690565b60006109006113ec565b905090565b61090d611a2c565b610915611a75565b600080610920610ae8565b915091506109396109318383611a85565b61014f61162c565b61094283611b8c565b505050565b7f000000000000000000000000000000000000000000000000000000000000000090565b3360008181526001602090815260408083206001600160a01b0387168452909152812054909161070c9185906109a19086611c04565b611772565b6109ae611a2c565b6109b86000611c16565b565b7f000000000000000000000000000000000000000000000000000000000000000090565b7f000000000000000000000000000000000000000000000000000000000000000090565b610a0a611a2c565b610a12611ca7565b610a1c6001611cbb565b7feff3d4d215b42bf0960be9c6d5e05c22cba4df6627a3a523e2acee733b5854c86001604051610a4c9190614417565b60405180910390a1565b60098054604080516020601f60026000196101006001881615020190951694909404938401819004810282018101909252828152606093909290918301828280156106f45780601f106106c9576101008083540402835291602001916106f4565b6008546000906109009060c0603f611cfd565b60006060610adc888785611d0c611d23565b97509795505050505050565b6008546000908190670de0b6b3a7640000610b0582602080611cfd565b029250670de0b6b3a7640000610b1e8260406020611cfd565b029150509091565b600080610b31610947565b90506060610b3d610fcf565b6001600160a01b031663f94d4668836040518263ffffffff1660e01b8152600401610b68919061443a565b60006040518083038186803b158015610b8057600080fd5b505afa158015610b94573d6000803e3d6000fd5b505050506040513d6000823e601f3d908101601f19168201604052610bbc9190810190613ea4565b50915050610bd181610bcc610769565b611e8a565b600080610bdc610ae8565b91509150610be8613ae6565b6040518060600160405280610bfb610ab7565b81526020018481526020018381525090506000610c87610c4e867f000000000000000000000000000000000000000000000000000000000000000081518110610c4057fe5b602002602001015184611ef3565b867f000000000000000000000000000000000000000000000000000000000000000081518110610c7a57fe5b6020026020010151611f54565b9050610cb0610ca986600081518110610c9c57fe5b6020026020010151611f60565b8290611f74565b965050505050505090565b6001600160a01b0381166000908152602081905260409020545b919050565b60608088610ce961061a610fcf565b610cf4610640610947565b6000610cff85611fcb565b15610d2757610d0c611ffa565b610d1e88610d1861073a565b8761200d565b94509050610d3f565b610d2f61163a565b610d3a8a8987611d0c565b945090505b610d498a82612103565b835167ffffffffffffffff81118015610d6157600080fd5b50604051908082528060200260200182016040528015610d8b578160200160208202803683370190505b509250505097509795505050505050565b600061071082610ff3565b6000610db1610947565b90506060610dbd610fcf565b6001600160a01b031663f94d4668836040518263ffffffff1660e01b8152600401610de8919061443a565b60006040518083038186803b158015610e0057600080fd5b505afa158015610e14573d6000803e3d6000fd5b505050506040513d6000823e601f3d908101601f19168201604052610e3c9190810190613ea4565b505060408051600380825260808201909252919250606091906020820183803683370190505090506dffffffffffffffffffffffffffff81600081518110610e8057fe5b602002602001018181525050610e94613b07565b6040518060800160405280610ea8856106fc565b8152602001838152602001604051806020016040528060008152508152602001600015158152509050610ed9610fcf565b6001600160a01b031663b95cac28853030856040518563ffffffff1660e01b8152600401610f0a9493929190614462565b600060405180830381600087803b158015610f2457600080fd5b505af1158015610f38573d6000803e3d6000fd5b5050505050505050565b600090565b610f4f611a2c565b6109b86001611c16565b60007f000000000000000000000000000000000000000000000000000000000000000082604051602001610f8e9291906142be565b604051602081830303815290604052805190602001209050919050565b7f000000000000000000000000000000000000000000000000000000000000000090565b7f000000000000000000000000000000000000000000000000000000000000000090565b6001600160a01b031660009081526006602052604090205490565b60048054604080516020601f60026000196101006001881615020190951694909404938401819004810282018101909252828152606093909290918301828280156106f45780601f106106c9576101008083540402835291602001916106f4565b6000836080015161108161061a610fcf565b61108c610640610947565b61109461163a565b61109f85858561210d565b95945050505050565b6110b0611a2c565b6110b8611a75565b6000806110c3610ae8565b915091506110d46109318383611a85565b6110e96110e18585611a85565b61015761162c565b6111147f0000000000000000000000000000000000000000000000000000000000000000858561211a565b50505050565b6000806111273385611306565b90508083106111415761113c33856000611772565b61114e565b61114e3385858403611772565b5060019392505050565b600061070c33848461194c565b60006109006121f0565b6008546000906109009060ff61226a565b611188611a2c565b611190611ffa565b61119a6000611cbb565b7feff3d4d215b42bf0960be9c6d5e05c22cba4df6627a3a523e2acee733b5854c86000604051610a4c9190614417565b7f000000000000000000000000000000000000000000000000000000000000000090565b60007f6e71edae12b1b97f4d1f60370fef10105fa2faae0126114a169c64845d6126c988888861121d8c610ff3565b896040516020016112339695949392919061454f565b604051602081830303815290604052805190602001209050611264888261125b878787612271565b886101f86122b0565b610f38888888611772565b6060808861127e61061a610fcf565b611289610640610947565b600061129361163a565b61129b61073a565b6112ed576112aa8a8a87612307565b945090506112c36112b9610f42565b82101560cc61162c565b6112d560006112d0610f42565b61239f565b6112e8896112e1610f42565b830361239f565b610d49565b6112f88a8987611d0c565b94509050610d49898261239f565b6000611310610fcf565b6001600160a01b0316826001600160a01b031614156113325750600019610710565b61133c83836123a9565b9050610710565b6000806000611350610fcf565b6001600160a01b031663b05f8e48611366610947565b306040518363ffffffff1660e01b8152600401611384929190614635565b60806040518083038186803b15801561139c57600080fd5b505afa1580156113b0573d6000803e3d6000fd5b505050506040513d601f19601f820116820180604052508101906113d4919061419d565b5050915091506113e5818301611f60565b9250505090565b60006109006123d4565b7f000000000000000000000000000000000000000000000000000000000000000090565b600061090061183f565b600061142f836115d9565b6060835160010167ffffffffffffffff8111801561144c57600080fd5b50604051908082528060200260200182016040528015611476578160200160208202803683370190505b509050308160008151811061148757fe5b60200260200101906001600160a01b031690816001600160a01b03168152505060005b84518110156114f6578481815181106114bf57fe5b60200260200101518282600101815181106114d657fe5b6001600160a01b03909216602092830291909101909101526001016114aa565b506060835160010167ffffffffffffffff8111801561151457600080fd5b5060405190808252806020026020018201604052801561153e578160200160208202803683370190505b50905060008160008151811061155057fe5b60200260200101906001600160a01b031690816001600160a01b03168152505060005b84518110156115bf5784818151811061158857fe5b602002602001015182826001018151811061159f57fe5b6001600160a01b0390921660209283029190910190910152600101611573565b506115cc87878484612471565b925050505b949350505050565b806115e38161257a565b5050565b60006115f783831115600161162c565b50900390565b600061160a8484846125f3565b506001901b60001901811b1992909216911b1790565b80820390821102900390565b816115e3576115e381612639565b6109b86116456117da565b61019261162c565b60006116696003841080156116625750600383105b606461162c565b6060611673610769565b905061167f8582611e8a565b60008061168a610ae8565b91509150611696613ae6565b60405180606001604052806116a9610ab7565b81526020810185905260400183905290506000895160018111156116c957fe5b141561172d576116f089606001518589815181106116e357fe5b6020026020010151612663565b60608a015260006117028a8a8461266f565b90506117218186898151811061171457fe5b6020026020010151612736565b955050505050506115d1565b61174189606001518588815181106116e357fe5b60608a015260006117538a8a84612742565b905061172181868a8151811061176557fe5b60200260200101516127f7565b6001600160a01b0380841660008181526001602090815260408083209487168084529490915290819020849055517f8c5be1e5ebec7d5bd14f71427d1e84f3dd0314c0f7b2291e5b200ac8c7c3b925906117cd90859061443a565b60405180910390a3505050565b60006117e461181b565b42118061090057505060075460ff161590565b7f000000000000000000000000000000000000000000000000000000000000000090565b7f000000000000000000000000000000000000000000000000000000000000000090565b60007f00000000000000000000000000000000000000000000000000000000000000006001600160a01b031663182df0f56040518163ffffffff1660e01b815260040160206040518083038186803b15801561189a57600080fd5b505afa9250505080156118ca575060408051601f3d908101601f191682019092526118c791810190613f90565b60015b61190d573d8080156118f8576040519150601f19603f3d011682016040523d82523d6000602084013e6118fd565b606091505b5061190781612803565b506106fc565b90506106fc565b600082820261193884158061193157508385838161192e57fe5b04145b600361162c565b670de0b6b3a7640000815b04949350505050565b6119636001600160a01b038416151561019861162c565b61197a6001600160a01b038316151561019961162c565b611985838383610942565b6001600160a01b0383166000908152602081905260409020546119ab90826101a061288a565b6001600160a01b0380851660009081526020819052604080822093909355908416815220546119da9082611c04565b6001600160a01b0380841660008181526020819052604090819020939093559151908516907fddf252ad1be2c89b69c2b068fc378daa952ba7f163c4a11628f55a4df523b3ef906117cd90859061443a565b6000611a5b6000357fffffffff0000000000000000000000000000000000000000000000000000000016610f59565b9050611a72611a6a82336128a0565b61019161162c565b50565b6109b8611a80610fcf565b612989565b6000806000611a92610fcf565b6001600160a01b031663b05f8e48611aa8610947565b7f00000000000000000000000000000000000000000000000000000000000000006040518363ffffffff1660e01b8152600401611ae6929190614635565b60806040518083038186803b158015611afe57600080fd5b505afa158015611b12573d6000803e3d6000fd5b505050506040513d601f19601f82011682018060405250810190611b36919061419d565b5050915091506000611b72828401611b6d7f0000000000000000000000000000000000000000000000000000000000000000612a3b565b612663565b905085811015801561065e57509390931115949350505050565b611b9f64e8d4a5100082101560cb61162c565b611bb567016345785d8a000082111560ca61162c565b600854611bc6908260c0603f6115fd565b6008556040517fa9ba3ffe0b6c366b81232caab38605a0699ad5398d6cce76f91ee809e322dafc90611bf990839061443a565b60405180910390a150565b60008282016108e6848210158361162c565b8015611c3657611c31611c276117f7565b421061019361162c565b611c4b565b611c4b611c4161181b565b42106101a961162c565b600780547fffffffffffffffffffffffffffffffffffffffffffffffffffffffffffffff00168215151790556040517f9e3a5e37224532dea67b89face185703738a228a6e8a23dee546960180d3be6490611bf9908390614417565b6109b8611cb261116f565b156101b561162c565b600854611cca908260ff612b15565b6008556040517feff3d4d215b42bf0960be9c6d5e05c22cba4df6627a3a523e2acee733b5854c890611bf9908390614417565b6001901b6000190191901c1690565b60006060611d1b6103e6612639565b935093915050565b333014611e12576000306001600160a01b0316600036604051611d479291906142ee565b6000604051808303816000865af19150503d8060008114611d84576040519150601f19603f3d011682016040523d82523d6000602084013e611d89565b606091505b505090508060008114611d9857fe5b60046000803e6000517fffffffff00000000000000000000000000000000000000000000000000000000167f43adbafb000000000000000000000000000000000000000000000000000000008114611df4573d6000803e3d6000fd5b506020600460003e604060205260243d03602460403e601c3d016000f35b60006060611e258686868663ffffffff16565b8051601f1982018390526343adbafb7fffffffffffffffffffffffffffffffffffffffffffffffffffffffffffffffc083015291935091506020027fffffffffffffffffffffffffffffffffffffffffffffffffffffffffffffffdc82016044820181fd5b81518151611e99908290612b24565b60005b8181101561111457611ed4848281518110611eb357fe5b6020026020010151848381518110611ec757fe5b6020026020010151611914565b848281518110611ee057fe5b6020908102919091010152600101611e9c565b60008160200151831015611f2c5781516020830151600091611f189186900390611914565b9050611f2484826115e7565b915050610710565b81604001518311611f3e575081610710565b81516040830151600091611f1891860390611914565b60006108e68383611c04565b600061071082611f6e61073a565b906115e7565b6000611f83821515600461162c565b670de0b6b3a76400008302611fb5841580611fae5750670de0b6b3a7640000858381611fab57fe5b04145b600561162c565b6001836001830304018115150291505092915050565b6000808251118015610710575060ff801682806020019051810190611ff091906141dd565b60ff161492915050565b6109b861200561116f565b6101b661162c565b60006060600061201c84612b31565b90506060865167ffffffffffffffff8111801561203857600080fd5b50604051908082528060200260200182016040528015612062578160200160208202803683370190505b509050600061206f610f42565b90506000612082898381518110610c9c57fe5b905060006120908583612b47565b905060005b8a518110156120f257838114156120ad5760006120d3565b6120d3828c83815181106120bd57fe5b602002602001015161191490919063ffffffff16565b8582815181106120df57fe5b6020908102919091010152600101612095565b509399929850919650505050505050565b6115e38282612b87565b60006108e66103e6612639565b6121298183111561014c61162c565b6121446b0de0b6b39983494c589c000082111561014d61162c565b61215c670de0b6b3a7640000825b061561016161162c565b61216e670de0b6b3a764000083612152565b6121a3670de0b6b3a764000082046040602061219b670de0b6b3a7640000876008549190046020806115fd565b9291906115fd565b6008556040516001600160a01b038416907fd0e27a0d0c2cb09280fa5e4487315455b32afcdcf012dc35b6ef2a0e3c4d1280906121e390859085906146aa565b60405180910390a2505050565b60006121fa610fcf565b6001600160a01b031663aaabadc56040518163ffffffff1660e01b815260040160206040518083038186803b15801561223257600080fd5b505afa158015612246573d6000803e3d6000fd5b505050506040513d601f19601f82011682018060405250810190610900919061408b565b1c60011690565b60408051604180825260808201909252606091829190602082018180368337019050509050836020820152826040820152846060820153949350505050565b60006122bb85612c53565b90506122d16122cb878387612c6f565b8361162c565b6122e0428410156101b861162c565b5050506001600160a01b039092166000908152600660205260409020805460010190555050565b600060606123226001600160a01b038616301461015661162c565b6123396001600160a01b038516301461015661162c565b604080516003808252608082019092526dffffffffffffffffffffffffffff91606091906020820183803683370190505090506dffffffffffffffffffffffffffff8160008151811061238857fe5b602090810291909101015290969095509350505050565b6115e38282612d1e565b6001600160a01b03918216600090815260016020908152604080832093909416825291909152205490565b60007f00000000000000000000000000000000000000000000000000000000000000007f00000000000000000000000000000000000000000000000000000000000000007f0000000000000000000000000000000000000000000000000000000000000000612441612db1565b30604051602001612456959493929190614609565b60405160208183030381529060405280519060200120905090565b600080856001600160a01b03166309b2760f866040518263ffffffff1660e01b81526004016124a0919061466a565b602060405180830381600087803b1580156124ba57600080fd5b505af11580156124ce573d6000803e3d6000fd5b505050506040513d601f19601f820116820180604052508101906124f29190613f90565b6040517f66a9c7d20000000000000000000000000000000000000000000000000000000081529091506001600160a01b038716906366a9c7d29061253e90849088908890600401614583565b600060405180830381600087803b15801561255857600080fd5b505af115801561256c573d6000803e3d6000fd5b509298975050505050505050565b60028151101561258957611a72565b60008160008151811061259857fe5b602002602001015190506000600190505b82518110156109425760008382815181106125c057fe5b602002602001015190506125e9816001600160a01b0316846001600160a01b031610606561162c565b91506001016125a9565b6126026101008310606461162c565b61262a60018210158015611662575061262060ff8461010003611620565b821115606461162c565b61094283821c156101b461162c565b611a72817f42414c0000000000000000000000000000000000000000000000000000000000612db5565b60006108e68383611914565b60208301516000906001600160a01b031630141561269957612692848484612e30565b90506108e6565b7f00000000000000000000000000000000000000000000000000000000000000006001600160a01b031684602001516001600160a01b031614156126e257612692848484612f88565b7f00000000000000000000000000000000000000000000000000000000000000006001600160a01b031684602001516001600160a01b0316141561272b576126928484846130c5565b6108e6610135612639565b60006108e68383612b47565b60408301516000906001600160a01b0316301415612765576126928484846131fd565b7f00000000000000000000000000000000000000000000000000000000000000006001600160a01b031684604001516001600160a01b031614156127ae5761269284848461334d565b7f00000000000000000000000000000000000000000000000000000000000000006001600160a01b031684604001516001600160a01b0316141561272b57612692848484613485565b60006108e68383611f74565b805160208201517fffffffff00000000000000000000000000000000000000000000000000000000167f43adbafb0000000000000000000000000000000000000000000000000000000081147ffa61cc120000000000000000000000000000000000000000000000000000000082141761287e578160208401fd5b506115e3610165612639565b6000612899848411158361162c565b5050900390565b600073ba1ba1ba1ba1ba1ba1ba1ba1ba1ba1ba1ba1ba1b6128bf610fab565b6001600160a01b0316141580156128da57506128da836135bd565b15612902576128e7610fab565b6001600160a01b0316336001600160a01b0316149050610710565b61290a6121f0565b6001600160a01b0316639be2a8848484306040518463ffffffff1660e01b815260040161293993929190614443565b60206040518083038186803b15801561295157600080fd5b505afa158015612965573d6000803e3d6000fd5b505050506040513d601f19601f8201168201806040525081019061133c9190613f70565b604080516000808252602082019092526060916129bc565b6129a9613b31565b8152602001906001900390816129a15790505b506040517f0e8e3e840000000000000000000000000000000000000000000000000000000081529091506001600160a01b03831690630e8e3e8490612a05908490600401614348565b600060405180830381600087803b158015612a1f57600080fd5b505af1158015612a33573d6000803e3d6000fd5b505050505050565b60007f00000000000000000000000000000000000000000000000000000000000000006001600160a01b0316826001600160a01b03161415612a9e57507f0000000000000000000000000000000000000000000000000000000000000000610cd5565b7f00000000000000000000000000000000000000000000000000000000000000006001600160a01b0316826001600160a01b03161415612aea57612ae36107f261183f565b9050610cd5565b6001600160a01b038216301415612b0a5750670de0b6b3a7640000610cd5565b610cd5610135612639565b6001811b1992909216911b1790565b6115e3818314606761162c565b6000818060200190518101906108e691906141f9565b6000612b56821515600461162c565b670de0b6b3a76400008302612b7e841580611fae5750670de0b6b3a7640000858381611fab57fe5b82818161194357fe5b612b9e6001600160a01b038316151561019b61162c565b612baa82600083610942565b6001600160a01b038216600090815260208190526040902054612bd090826101b261288a565b6001600160a01b038316600090815260208190526040902055612c03612bfe82612bf861073a565b90613621565b61362f565b60006001600160a01b0316826001600160a01b03167fddf252ad1be2c89b69c2b068fc378daa952ba7f163c4a11628f55a4df523b3ef83604051612c47919061443a565b60405180910390a35050565b6000612c5d6123d4565b82604051602001610f8e9291906142fe565b6000612c8182516041146101b961162c565b60208281015160408085015160608601518251600080825295019283905292939092811a91600190612cba90899085908890889061464c565b6020604051602081039080840390855afa158015612cdc573d6000803e3d6000fd5b5050604051601f1901519150506001600160a01b03811615801590612d125750876001600160a01b0316816001600160a01b0316145b98975050505050505050565b612d2a60008383610942565b612d3f612bfe82612d3961073a565b90611c04565b6001600160a01b038216600090815260208190526040902054612d629082611c04565b6001600160a01b0383166000818152602081905260408082209390935591519091907fddf252ad1be2c89b69c2b068fc378daa952ba7f163c4a11628f55a4df523b3ef90612c4790859061443a565b4690565b7f08c379a000000000000000000000000000000000000000000000000000000000600090815260206004526007602452600a808404818106603090810160081b958390069590950190829004918206850160101b01602363ffffff0060e086901c160160181b0190930160c81b60445260e882901c90606490fd5b6000612eb67f00000000000000000000000000000000000000000000000000000000000000006001600160a01b031685604001516001600160a01b03161480612eae57507f00000000000000000000000000000000000000000000000000000000000000006001600160a01b031685604001516001600160a01b0316145b61013561162c565b6115d18460600151847f000000000000000000000000000000000000000000000000000000000000000081518110612eea57fe5b6020026020010151857f000000000000000000000000000000000000000000000000000000000000000081518110612f1e57fe5b6020026020010151612f3687600081518110610c9c57fe5b867f00000000000000000000000000000000000000000000000000000000000000006001600160a01b03168a604001516001600160a01b031614612f7c57613634612f80565b6136925b63ffffffff16565b6000612fe47f00000000000000000000000000000000000000000000000000000000000000006001600160a01b031685604001516001600160a01b03161480612eae575060408501516001600160a01b0316301461013561162c565b60408401516001600160a01b0316301461303f5761303a8460600151847f00000000000000000000000000000000000000000000000000000000000000008151811061302c57fe5b6020026020010151846136fb565b6115d1565b6115d18460600151847f00000000000000000000000000000000000000000000000000000000000000008151811061307357fe5b6020026020010151857f0000000000000000000000000000000000000000000000000000000000000000815181106130a757fe5b60200260200101516130bf87600081518110610c9c57fe5b8661372b565b60006131217f00000000000000000000000000000000000000000000000000000000000000006001600160a01b031685604001516001600160a01b03161480612eae575060408501516001600160a01b0316301461013561162c565b60408401516001600160a01b031630146131775761303a8460600151847f00000000000000000000000000000000000000000000000000000000000000008151811061316957fe5b602002602001015184613791565b6115d18460600151847f0000000000000000000000000000000000000000000000000000000000000000815181106131ab57fe5b6020026020010151857f0000000000000000000000000000000000000000000000000000000000000000815181106131df57fe5b60200260200101516131f787600081518110610c9c57fe5b866137d1565b60006132827f00000000000000000000000000000000000000000000000000000000000000006001600160a01b031685602001516001600160a01b03161480612eae57507f00000000000000000000000000000000000000000000000000000000000000006001600160a01b031685602001516001600160a01b03161461013561162c565b6115d18460600151847f0000000000000000000000000000000000000000000000000000000000000000815181106132b657fe5b6020026020010151857f0000000000000000000000000000000000000000000000000000000000000000815181106132ea57fe5b602002602001015161330287600081518110610c9c57fe5b867f00000000000000000000000000000000000000000000000000000000000000006001600160a01b03168a602001516001600160a01b03161461334857613838612f80565b61388f565b60006133a97f00000000000000000000000000000000000000000000000000000000000000006001600160a01b031685602001516001600160a01b03161480612eae575060208501516001600160a01b0316301461013561162c565b60208401516001600160a01b031630146133ff5761303a8460600151847f0000000000000000000000000000000000000000000000000000000000000000815181106133f157fe5b6020026020010151846138f9565b6115d18460600151847f00000000000000000000000000000000000000000000000000000000000000008151811061343357fe5b6020026020010151857f00000000000000000000000000000000000000000000000000000000000000008151811061346757fe5b602002602001015161347f87600081518110610c9c57fe5b86613923565b60006134e17f00000000000000000000000000000000000000000000000000000000000000006001600160a01b031685602001516001600160a01b03161480612eae575060208501516001600160a01b0316301461013561162c565b60208401516001600160a01b031630146135375761303a8460600151847f00000000000000000000000000000000000000000000000000000000000000008151811061352957fe5b602002602001015184613972565b6115d18460600151847f00000000000000000000000000000000000000000000000000000000000000008151811061356b57fe5b6020026020010151857f00000000000000000000000000000000000000000000000000000000000000008151811061359f57fe5b60200260200101516135b787600081518110610c9c57fe5b866139a7565b60006135e87f9f11080e00000000000000000000000000000000000000000000000000000000610f59565b82148061071057506136197f38e9922e00000000000000000000000000000000000000000000000000000000610f59565b909114919050565b60006108e68383600161288a565b600255565b6000806136418684611ef3565b9050600061364f8287611f54565b9050600061365d868a6115e7565b9050600061367884611f6e61367285876139fb565b8a613a15565b905061368488826115e7565b9a9950505050505050505050565b60008061369f8684611ef3565b905060006136ad8287611f54565b905060006136c46136be838b6139fb565b87613a36565b905060006136d284836115e7565b905060006136e08288613a56565b90506136ec8a826115e7565b9b9a5050505050505050505050565b6000806137088484611ef3565b9050600061371f6137198688611c04565b85611ef3565b905061065e81836115e7565b6000826137435761373c8683611ef3565b905061109f565b600061374f8684611ef3565b90506000613760613719888a611c04565b9050600061376e82846115e7565b9050600061377c8489611f54565b905061368461378b88846139fb565b82613a36565b60008061379e8484611ef3565b905060006137ac82876115e7565b905060006137ba8286613a56565b90506137c686826115e7565b979650505050505050565b6000826137df57508461109f565b60006137eb8684611ef3565b905060006137f98287611f54565b90506000613807878a611c04565b905060006138158483611f54565b9050600061382c61382689846139fb565b85613a36565b90506136ec81896115e7565b60008261384657508461109f565b60006138528684611ef3565b905060006138608287611f54565b9050600061386e868a611c04565b9050600061388384611f6e61367285876139fb565b905061368481896115e7565b6000826138a05761373c8683613a56565b60006138ac8684611ef3565b905060006138ba8287611f54565b905060006138d16138cb838b6139fb565b87613a15565b905060006138df8483611c04565b905060006138ed8288613a56565b90506136ec818b6115e7565b6000806139068484611ef3565b9050600061391761371986886115e7565b905061065e82826115e7565b6000806139308684611ef3565b90506000613941613719888a6115e7565b9050600061394f83836115e7565b9050600061395d8489611f54565b905061368461396c88846139fb565b82613a15565b60008061397f8484611ef3565b9050600061398d8287611c04565b9050600061399b8286613a56565b90506137c681876115e7565b6000806139b48684611ef3565b905060006139c28287611f54565b905060006139d0878a6115e7565b905060006139de8483611f54565b905060006139ef61382689846139fb565b90506136ec88826115e7565b60008282026108e684158061193157508385838161192e57fe5b6000613a24821515600461162c565b50811515600019909201046001010290565b6000613a45821515600461162c565b818381613a4e57fe5b049392505050565b60008160200151831015613a9f57815161133c90613a7d90670de0b6b3a764000090611c04565b60208401518451613a9991613a929190611914565b8690611c04565b90612b47565b81604001518311613ab1575081610710565b815161133c90613aca90670de0b6b3a7640000906115e7565b60408401518451613a9991613adf9190611914565b86906115e7565b60405180606001604052806000815260200160008152602001600081525090565b60405180608001604052806060815260200160608152602001606081526020016000151581525090565b6040805160a081019091528060008152600060208201819052604082018190526060820181905260809091015290565b803561071081614719565b600082601f830112613b7c578081fd5b8135613b8f613b8a826146ed565b6146c6565b818152915060208083019084810181840286018201871015613bb057600080fd5b60005b84811015613bcf57813584529282019290820190600101613bb3565b505050505092915050565b600082601f830112613bea578081fd5b8151613bf8613b8a826146ed565b818152915060208083019084810181840286018201871015613c1957600080fd5b60005b84811015613bcf57815184529282019290820190600101613c1c565b600082601f830112613c48578081fd5b813567ffffffffffffffff811115613c5e578182fd5b613c716020601f19601f840116016146c6565b9150808252836020828501011115613c8857600080fd5b8060208401602084013760009082016020015292915050565b80356002811061071057600080fd5b6000610120808385031215613cc3578182fd5b613ccc816146c6565b915050613cd98383613ca1565b8152613ce88360208401613b61565b6020820152613cfa8360408401613b61565b6040820152606082013560608201526080820135608082015260a082013560a0820152613d2a8360c08401613b61565b60c0820152613d3c8360e08401613b61565b60e08201526101008083013567ffffffffffffffff811115613d5d57600080fd5b613d6985828601613c38565b82840152505092915050565b600060208284031215613d86578081fd5b81356108e681614719565b60008060408385031215613da3578081fd5b8235613dae81614719565b91506020830135613dbe81614719565b809150509250929050565b600080600060608486031215613ddd578081fd5b8335613de881614719565b92506020840135613df881614719565b929592945050506040919091013590565b600080600080600080600060e0888a031215613e23578283fd5b8735613e2e81614719565b96506020880135613e3e81614719565b955060408801359450606088013593506080880135613e5c8161472e565b9699959850939692959460a0840135945060c09093013592915050565b60008060408385031215613e8b578182fd5b8235613e9681614719565b946020939093013593505050565b600080600060608486031215613eb8578081fd5b835167ffffffffffffffff80821115613ecf578283fd5b818601915086601f830112613ee2578283fd5b8151613ef0613b8a826146ed565b80828252602080830192508086018b828387028901011115613f10578788fd5b8796505b84871015613f3b578051613f2781614719565b845260019690960195928101928101613f14565b508901519097509350505080821115613f52578283fd5b50613f5f86828701613bda565b925050604084015190509250925092565b600060208284031215613f81578081fd5b815180151581146108e6578182fd5b600060208284031215613fa1578081fd5b5051919050565b600080600080600080600060e0888a031215613fc2578081fd5b873596506020880135613fd481614719565b95506040880135613fe481614719565b9450606088013567ffffffffffffffff80821115614000578283fd5b61400c8b838c01613b6c565b955060808a0135945060a08a0135935060c08a013591508082111561402f578283fd5b5061403c8a828b01613c38565b91505092959891949750929550565b60006020828403121561405c578081fd5b81357fffffffff00000000000000000000000000000000000000000000000000000000811681146108e6578182fd5b60006020828403121561409c578081fd5b81516108e681614719565b600080600080608085870312156140bc578182fd5b843567ffffffffffffffff808211156140d3578384fd5b6140df88838901613cb0565b955060208701359150808211156140f4578384fd5b5061410187828801613b6c565b949794965050505060408301359260600135919050565b60008060006060848603121561412c578081fd5b833567ffffffffffffffff811115614142578182fd5b61414e86828701613cb0565b9660208601359650604090950135949350505050565b600060208284031215614175578081fd5b5035919050565b6000806040838503121561418e578182fd5b50508035926020909101359150565b600080600080608085870312156141b2578182fd5b84519350602085015192506040850151915060608501516141d281614719565b939692955090935050565b6000602082840312156141ee578081fd5b81516108e68161472e565b6000806040838503121561420b578182fd5b82516142168161472e565b6020939093015192949293505050565b6001600160a01b03169052565b6000815180845260208085019450808401835b8381101561426257815187529582019590820190600101614246565b509495945050505050565b15159052565b60008151808452815b818110156142985760208185018101518683018201520161427c565b818111156142a95782602083870101525b50601f01601f19169290920160200192915050565b9182527fffffffff0000000000000000000000000000000000000000000000000000000016602082015260240190565b6000828483379101908152919050565b7f190100000000000000000000000000000000000000000000000000000000000081526002810192909252602282015260420190565b6001600160a01b0391909116815260200190565b602080825282518282018190526000919060409081850190868401855b828110156143d257815180516004811061437b57fe5b85528087015161438d88870182614226565b5085810151868601526060808201516143a882880182614226565b5050608090810151906143bd86820183614226565b505060a0939093019290850190600101614365565b5091979650505050505050565b6000602082526108e66020830184614233565b6000604082526144056040830185614233565b828103602084015261109f8185614233565b901515815260200190565b92151583526020830191909152604082015260600190565b90815260200190565b9283526001600160a01b03918216602084015216604082015260600190565b600085825260206001600160a01b038087168285015280861660408501525060806060840152610100830184516080808601528181518084526101208701915084830193508592505b808310156144d3576144bd845161470d565b82529284019260019290920191908401906144ab565b508387015193507fffffffffffffffffffffffffffffffffffffffffffffffffffffffffffffff809250828682030160a08701526145118185614233565b935050506040850151818584030160c086015261452e8382614273565b92505050606084015161454460e085018261426d565b509695505050505050565b9586526001600160a01b0394851660208701529290931660408501526060840152608083019190915260a082015260c00190565b60006060820185835260206060818501528186518084526080860191508288019350845b818110156145cb576145b9855161470d565b835293830193918301916001016145a7565b505084810360408601528551808252908201925081860190845b8181101561256c576145f7835161470d565b855293830193918301916001016145e5565b9485526020850193909352604084019190915260608301526001600160a01b0316608082015260a00190565b9182526001600160a01b0316602082015260400190565b93845260ff9290921660208401526040830152606082015260800190565b602081016003831061467857fe5b91905290565b6000602082526108e66020830184614273565b6000838252604060208301526115d16040830184614233565b918252602082015260400190565b60ff91909116815260200190565b60405181810167ffffffffffffffff811182821017156146e557600080fd5b604052919050565b600067ffffffffffffffff821115614703578081fd5b5060209081020190565b6001600160a01b031690565b6001600160a01b0381168114611a7257600080fd5b60ff81168114611a7257600080fdfea2646970667358221220ee6c0badb85e8fd5330813d4da511fef84436e2cc490de9b768c708e2247eb9264736f6c63430007010033",
  "linkReferences": {},
  "deployedLinkReferences": {}
}