{
  "_format": "hh-sol-artifact-1",
  "contractName": "ReaperLinearPoolRebalancer",
  "sourceName": "contracts/reaper-linear-pool/ReaperLinearPoolRebalancer.sol",
  "abi": [
    {
      "inputs": [
        {
          "internalType": "contract IVault",
          "name": "vault",
          "type": "address"
        },
        {
          "internalType": "contract IBalancerQueries",
          "name": "queries",
          "type": "address"
        }
      ],
      "stateMutability": "nonpayable",
      "type": "constructor"
    },
    {
      "inputs": [],
      "name": "getPool",
      "outputs": [
        {
          "internalType": "contract ILinearPool",
          "name": "",
          "type": "address"
        }
      ],
      "stateMutability": "view",
      "type": "function"
    },
    {
      "inputs": [
        {
          "internalType": "address",
          "name": "recipient",
          "type": "address"
        }
      ],
      "name": "rebalance",
      "outputs": [
        {
          "internalType": "uint256",
          "name": "",
          "type": "uint256"
        }
      ],
      "stateMutability": "nonpayable",
      "type": "function"
    },
    {
      "inputs": [
        {
          "internalType": "address",
          "name": "recipient",
          "type": "address"
        },
        {
          "internalType": "uint256",
          "name": "extraMain",
          "type": "uint256"
        }
      ],
      "name": "rebalanceWithExtraMain",
      "outputs": [
        {
          "internalType": "uint256",
          "name": "",
          "type": "uint256"
        }
      ],
      "stateMutability": "nonpayable",
      "type": "function"
    }
  ],
  "bytecode": "0x6101806040523480156200001257600080fd5b5060405162001ff938038062001ff98339810160408190526200003591620005cf565b336001600160a01b0316635ed312826040518163ffffffff1660e01b815260040160206040518083038186803b1580156200006f57600080fd5b505afa15801562000084573d6000803e3d6000fd5b505050506040513d601f19601f82011682018060405250810190620000aa9190620004e5565b8282826001600160a01b0316631dd746ea6040518163ffffffff1660e01b815260040160006040518083038186803b158015620000e657600080fd5b505afa158015620000fb573d6000803e3d6000fd5b505050506040513d6000823e601f3d908101601f191682016040526200012591908101906200050b565b836001600160a01b0316634d64cd746040518163ffffffff1660e01b815260040160206040518083038186803b1580156200015f57600080fd5b505afa15801562000174573d6000803e3d6000fd5b505050506040513d601f19601f820116820180604052508101906200019a9190620005b6565b81518110620001a557fe5b602090810291909101810151610100526001600160601b0319606085901b166080526040805163038fff2d60e41b815290516001600160a01b038616926338fff2d09260048082019391829003018186803b1580156200020457600080fd5b505afa15801562000219573d6000803e3d6000fd5b505050506040513d601f19601f820116820180604052508101906200023f9190620005b6565b60a08181525050826001600160a01b0316634de046d56040518163ffffffff1660e01b815260040160206040518083038186803b1580156200028057600080fd5b505afa15801562000295573d6000803e3d6000fd5b505050506040513d601f19601f82011682018060405250810190620002bb9190620004e5565b6001600160a01b031660c0816001600160a01b031660601b81525050826001600160a01b031663f174e2416040518163ffffffff1660e01b815260040160206040518083038186803b1580156200031157600080fd5b505afa15801562000326573d6000803e3d6000fd5b505050506040513d601f19601f820116820180604052508101906200034c9190620004e5565b6001600160601b0319606091821b811660e05292811b8316610120521b16610140525060408051632f69894160e11b815290516000913391635ed3128291600480820192602092909190829003018186803b158015620003ab57600080fd5b505afa158015620003c0573d6000803e3d6000fd5b505050506040513d601f19601f82011682018060405250810190620003e69190620004e5565b6001600160a01b031663f174e2416040518163ffffffff1660e01b815260040160206040518083038186803b1580156200041f57600080fd5b505afa15801562000434573d6000803e3d6000fd5b505050506040513d601f19601f820116820180604052508101906200045a9190620004e5565b9050806001600160a01b031663313ce5676040518163ffffffff1660e01b815260040160206040518083038186803b1580156200049657600080fd5b505afa158015620004ab573d6000803e3d6000fd5b505050506040513d601f19601f82011682018060405250810190620004d191906200060d565b60ff16600a0a610160525062000670915050565b600060208284031215620004f7578081fd5b8151620005048162000657565b9392505050565b600060208083850312156200051e578182fd5b82516001600160401b038082111562000535578384fd5b818501915085601f83011262000549578384fd5b81518181111562000558578485fd5b83810291506200056a84830162000630565b8181528481019084860184860187018a101562000585578788fd5b8795505b83861015620005a957805183526001959095019491860191860162000589565b5098975050505050505050565b600060208284031215620005c8578081fd5b5051919050565b60008060408385031215620005e2578081fd5b8251620005ef8162000657565b6020840151909250620006028162000657565b809150509250929050565b6000602082840312156200061f578081fd5b815160ff8116811462000504578182fd5b6040518181016001600160401b03811182821017156200064f57600080fd5b604052919050565b6001600160a01b03811681146200066d57600080fd5b50565b60805160601c60a05160c05160601c60e05160601c610100516101205160601c6101405160601c610160516118a162000758600039508061050952806108215250806101335280610c145280610f0d5280610f6f5250806103bf52508061046c5280610599528061074852806108ec5280610cbf5280610fcd5280611139528061119b52508060ea5280610190528061043052806105cc528061063152806106d2528061078452806108b1528061111752508061016f5280610402528061071a5280610a7d5280610b5c5280610d955280610e745250806099528061030952506118a16000f3fe608060405234801561001057600080fd5b50600436106100415760003560e01c8063026b1d5f1461004657806321c2819114610064578063df633d8d14610084575b600080fd5b61004e610097565b60405161005b91906115d7565b60405180910390f35b610077610072366004611495565b6100bb565b60405161005b919061180a565b6100776100923660046114b1565b6100ce565b7f000000000000000000000000000000000000000000000000000000000000000090565b60006100c682610122565b90505b919050565b600061011273ffffffffffffffffffffffffffffffffffffffff7f000000000000000000000000000000000000000000000000000000000000000016333085610259565b61011b83610122565b9392505050565b60008061012d610302565b905060007f000000000000000000000000000000000000000000000000000000000000000073ffffffffffffffffffffffffffffffffffffffff1663b05f8e487f00000000000000000000000000000000000000000000000000000000000000007f00000000000000000000000000000000000000000000000000000000000000006040518363ffffffff1660e01b81526004016101cc929190611723565b60806040518083038186803b1580156101e457600080fd5b505afa1580156101f8573d6000803e3d6000fd5b505050506040513d601f19601f8201168201806040525081019061021c9190611537565b50505090508181101561023e57610235818303856103eb565b925050506100c9565b818111156102525761023582820385610703565b5050919050565b6102fc846323b872dd60e01b85858560405160240161027a9392919061161f565b604080517fffffffffffffffffffffffffffffffffffffffffffffffffffffffffffffffe08184030181529190526020810180517bffffffffffffffffffffffffffffffffffffffffffffffffffffffff167fffffffff0000000000000000000000000000000000000000000000000000000090931692909217909152610911565b50505050565b60008060007f000000000000000000000000000000000000000000000000000000000000000073ffffffffffffffffffffffffffffffffffffffff166363fe3b566040518163ffffffff1660e01b8152600401604080518083038186803b15801561036c57600080fd5b505afa158015610380573d6000803e3d6000fd5b505050506040513d601f19601f820116820180604052508101906103a49190611514565b9150915060006002828401816103b657fe5b0490506103e3817f00000000000000000000000000000000000000000000000000000000000000006109be565b935050505090565b60006103f56113e2565b6040805160c081019091527f0000000000000000000000000000000000000000000000000000000000000000815260208101600081526020017f000000000000000000000000000000000000000000000000000000000000000073ffffffffffffffffffffffffffffffffffffffff1681526020017f000000000000000000000000000000000000000000000000000000000000000073ffffffffffffffffffffffffffffffffffffffff1681526020018581526020016040518060200160405280600081525081525090506104c9611445565b6040517fe969f6b300000000000000000000000000000000000000000000000000000000815260009073ffffffffffffffffffffffffffffffffffffffff7f0000000000000000000000000000000000000000000000000000000000000000169063e969f6b3906105409086908690600401611747565b602060405180830381600087803b15801561055a57600080fd5b505af115801561056e573d6000803e3d6000fd5b505050506040513d601f19601f8201168201806040525081019061059291906114fc565b90506105be7f000000000000000000000000000000000000000000000000000000000000000082610a11565b6105c781610c82565b6105f17f000000000000000000000000000000000000000000000000000000000000000087610d29565b6040517f70a0823100000000000000000000000000000000000000000000000000000000815260009073ffffffffffffffffffffffffffffffffffffffff7f000000000000000000000000000000000000000000000000000000000000000016906370a08231906106669030906004016115d7565b60206040518083038186803b15801561067e57600080fd5b505afa158015610692573d6000803e3d6000fd5b505050506040513d601f19601f820116820180604052508101906106b691906114fc565b90506106f973ffffffffffffffffffffffffffffffffffffffff7f0000000000000000000000000000000000000000000000000000000000000000168783610fa4565b9695505050505050565b600061070d6113e2565b6040805160c081019091527f0000000000000000000000000000000000000000000000000000000000000000815260208101600181526020017f000000000000000000000000000000000000000000000000000000000000000073ffffffffffffffffffffffffffffffffffffffff1681526020017f000000000000000000000000000000000000000000000000000000000000000073ffffffffffffffffffffffffffffffffffffffff1681526020018581526020016040518060200160405280600081525081525090506107e1611445565b6040517fe969f6b300000000000000000000000000000000000000000000000000000000815260009073ffffffffffffffffffffffffffffffffffffffff7f0000000000000000000000000000000000000000000000000000000000000000169063e969f6b3906108589086908690600401611747565b602060405180830381600087803b15801561087257600080fd5b505af1158015610886573d6000803e3d6000fd5b505050506040513d601f19601f820116820180604052508101906108aa91906114fc565b90506108d67f000000000000000000000000000000000000000000000000000000000000000087610a11565b6108e76108e282610fc8565b6110fd565b6105f17f000000000000000000000000000000000000000000000000000000000000000082610d29565b600060608373ffffffffffffffffffffffffffffffffffffffff168360405161093a91906115bb565b6000604051808303816000865af19150503d8060008114610977576040519150601f19603f3d011682016040523d82523d6000602084013e61097c565b606091505b50915091506000821415610994573d6000803e3d6000fd5b6102fc8151600014806109b65750818060200190518101906109b691906114dc565b6101a26111d0565b60006109cd82151560046111d0565b670de0b6b3a764000083026109ff8415806109f85750670de0b6b3a76400008583816109f557fe5b04145b60056111d0565b828181610a0857fe5b04949350505050565b6040805160028082526060828101909352816020015b610a2f61146c565b815260200190600190039081610a27579050509050600081600081518110610a5357fe5b6020026020010151600001906002811115610a6a57fe5b90816002811115610a7757fe5b815250507f000000000000000000000000000000000000000000000000000000000000000081600081518110610aa957fe5b602002602001015160200181815250508181600081518110610ac757fe5b602002602001015160600181815250508281600081518110610ae557fe5b60200260200101516040019073ffffffffffffffffffffffffffffffffffffffff16908173ffffffffffffffffffffffffffffffffffffffff1681525050600281600181518110610b3257fe5b6020026020010151600001906002811115610b4957fe5b90816002811115610b5657fe5b815250507f000000000000000000000000000000000000000000000000000000000000000081600181518110610b8857fe5b60200260200101516020018181525050600081600181518110610ba757fe5b602002602001015160600181815250508281600181518110610bc557fe5b602090810291909101015173ffffffffffffffffffffffffffffffffffffffff918216604091820152517fe6c460920000000000000000000000000000000000000000000000000000000081527f00000000000000000000000000000000000000000000000000000000000000009091169063e6c4609290610c4b90849060040161169f565b600060405180830381600087803b158015610c6557600080fd5b505af1158015610c79573d6000803e3d6000fd5b50505050505050565b6040517f2e1a7d4d00000000000000000000000000000000000000000000000000000000815273ffffffffffffffffffffffffffffffffffffffff7f00000000000000000000000000000000000000000000000000000000000000001690632e1a7d4d90610cf490849060040161180a565b600060405180830381600087803b158015610d0e57600080fd5b505af1158015610d22573d6000803e3d6000fd5b5050505050565b6040805160028082526060828101909352816020015b610d4761146c565b815260200190600190039081610d3f579050509050600281600081518110610d6b57fe5b6020026020010151600001906002811115610d8257fe5b90816002811115610d8f57fe5b815250507f000000000000000000000000000000000000000000000000000000000000000081600081518110610dc157fe5b602002602001015160200181815250508181600081518110610ddf57fe5b602002602001015160600181815250508281600081518110610dfd57fe5b60200260200101516040019073ffffffffffffffffffffffffffffffffffffffff16908173ffffffffffffffffffffffffffffffffffffffff1681525050600181600181518110610e4a57fe5b6020026020010151600001906002811115610e6157fe5b90816002811115610e6e57fe5b815250507f000000000000000000000000000000000000000000000000000000000000000081600181518110610ea057fe5b602002602001015160200181815250508181600181518110610ebe57fe5b602002602001015160600181815250508281600181518110610edc57fe5b602090810291909101015173ffffffffffffffffffffffffffffffffffffffff918216604090910152610f329084167f0000000000000000000000000000000000000000000000000000000000000000846111e2565b6040517fe6c4609200000000000000000000000000000000000000000000000000000000815273ffffffffffffffffffffffffffffffffffffffff7f0000000000000000000000000000000000000000000000000000000000000000169063e6c4609290610c4b90849060040161169f565b610fc38363a9059cbb60e01b848460405160240161027a929190611679565b505050565b6000807f0000000000000000000000000000000000000000000000000000000000000000905061011b8173ffffffffffffffffffffffffffffffffffffffff166318160ddd6040518163ffffffff1660e01b815260040160206040518083038186803b15801561103757600080fd5b505afa15801561104b573d6000803e3d6000fd5b505050506040513d601f19601f8201168201806040525081019061106f91906114fc565b6110f78373ffffffffffffffffffffffffffffffffffffffff1663b69ef8a86040518163ffffffff1660e01b815260040160206040518083038186803b1580156110b857600080fd5b505afa1580156110cc573d6000803e3d6000fd5b505050506040513d601f19601f820116820180604052508101906110f091906114fc565b86906112d7565b906112fb565b61115e73ffffffffffffffffffffffffffffffffffffffff7f0000000000000000000000000000000000000000000000000000000000000000167f0000000000000000000000000000000000000000000000000000000000000000836111e2565b6040517fb6b55f2500000000000000000000000000000000000000000000000000000000815273ffffffffffffffffffffffffffffffffffffffff7f0000000000000000000000000000000000000000000000000000000000000000169063b6b55f2590610cf490849060040161180a565b816111de576111de8161133a565b5050565b801580159061129357506040517fdd62ed3e00000000000000000000000000000000000000000000000000000000815273ffffffffffffffffffffffffffffffffffffffff84169063dd62ed3e9061124090309086906004016115f8565b60206040518083038186803b15801561125857600080fd5b505afa15801561126c573d6000803e3d6000fd5b505050506040513d601f19601f8201168201806040525081019061129091906114fc565b15155b156112b8576112b88363095ea7b360e01b84600060405160240161027a929190611650565b610fc38363095ea7b360e01b848460405160240161027a929190611679565b600082820261011b8415806112f45750838583816112f157fe5b04145b60036111d0565b600061130a82151560046111d0565b508115157fffffffffffffffffffffffffffffffffffffffffffffffffffffffffffffffff909201046001010290565b611364817f42414c0000000000000000000000000000000000000000000000000000000000611367565b50565b7f08c379a000000000000000000000000000000000000000000000000000000000600090815260206004526007602452600a808404818106603090810160081b958390069590950190829004918206850160101b01602363ffffff0060e086901c160160181b0190930160c81b60445260e882901c90606490fd5b6040805160c08101909152600080825260208201908152602001600073ffffffffffffffffffffffffffffffffffffffff168152602001600073ffffffffffffffffffffffffffffffffffffffff16815260200160008152602001606081525090565b60408051608081018252600080825260208201819052918101829052606081019190915290565b604080516080810190915280600081526000602082018190526040820181905260609091015290565b6000602082840312156114a6578081fd5b813561011b81611849565b600080604083850312156114c3578081fd5b82356114ce81611849565b946020939093013593505050565b6000602082840312156114ed578081fd5b8151801515811461011b578182fd5b60006020828403121561150d578081fd5b5051919050565b60008060408385031215611526578182fd5b505080516020909101519092909150565b6000806000806080858703121561154c578182fd5b845193506020850151925060408501519150606085015161156c81611849565b939692955090935050565b73ffffffffffffffffffffffffffffffffffffffff808251168352602082015115156020840152806040830151166040840152506060810151151560608301525050565b600082516115cd818460208701611813565b9190910192915050565b73ffffffffffffffffffffffffffffffffffffffff91909116815260200190565b73ffffffffffffffffffffffffffffffffffffffff92831681529116602082015260400190565b73ffffffffffffffffffffffffffffffffffffffff9384168152919092166020820152604081019190915260600190565b73ffffffffffffffffffffffffffffffffffffffff92909216825260ff16602082015260400190565b73ffffffffffffffffffffffffffffffffffffffff929092168252602082015260400190565b602080825282518282018190526000919060409081850190868401855b828110156117165781518051600381106116d257fe5b855280870151878601528581015173ffffffffffffffffffffffffffffffffffffffff168686015260609081015190850152608090930192908501906001016116bc565b5091979650505050505050565b91825273ffffffffffffffffffffffffffffffffffffffff16602082015260400190565b600060a08252835160a083015260208401516117628161183f565b8060c084015250604084015173ffffffffffffffffffffffffffffffffffffffff80821660e0850152806060870151166101008501525050608084015161012083015260a084015160c06101408401528051806101608501526101806117ce8282870160208601611813565b807fffffffffffffffffffffffffffffffffffffffffffffffffffffffffffffffe0601f840116860101935050505061011b6020830184611577565b90815260200190565b60005b8381101561182e578181015183820152602001611816565b838111156102fc5750506000910152565b6002811061136457fe5b73ffffffffffffffffffffffffffffffffffffffff8116811461136457600080fdfea2646970667358221220ad8bbcad946965fff5c9ae6895bd4d2fbf7d2fcff5b83d1e49aaa15f8cd8319c64736f6c63430007010033",
  "linkReferences": {},
  "deployedLinkReferences": {}
}