{
  "_format": "hh-sol-artifact-1",
  "contractName": "TetuLinearPoolFactory",
  "sourceName": "contracts/tetu-lineat-pool/TetuLinearPoolFactory.sol",
  "abi": [
    {
      "inputs": [
        {
          "internalType": "contract IVault",
          "name": "vault",
          "type": "address"
        },
        {
          "internalType": "contract IProtocolFeePercentagesProvider",
          "name": "protocolFeeProvider",
          "type": "address"
        },
        {
          "internalType": "contract IBalancerQueries",
          "name": "queries",
          "type": "address"
        },
        {
          "internalType": "string",
          "name": "factoryVersion",
          "type": "string"
        },
        {
          "internalType": "string",
          "name": "poolVersion",
          "type": "string"
        },
        {
          "internalType": "uint256",
          "name": "initialPauseWindowDuration",
          "type": "uint256"
        },
        {
          "internalType": "uint256",
          "name": "bufferPeriodDuration",
          "type": "uint256"
        }
      ],
      "stateMutability": "nonpayable",
      "type": "constructor"
    },
    {
      "anonymous": false,
      "inputs": [],
      "name": "FactoryDisabled",
      "type": "event"
    },
    {
      "anonymous": false,
      "inputs": [
        {
          "indexed": true,
          "internalType": "address",
          "name": "pool",
          "type": "address"
        }
      ],
      "name": "PoolCreated",
      "type": "event"
    },
    {
      "anonymous": false,
      "inputs": [
        {
          "indexed": true,
          "internalType": "address",
          "name": "pool",
          "type": "address"
        },
        {
          "indexed": true,
          "internalType": "uint256",
          "name": "protocolId",
          "type": "uint256"
        }
      ],
      "name": "TetuLinearPoolCreated",
      "type": "event"
    },
    {
      "anonymous": false,
      "inputs": [
        {
          "indexed": true,
          "internalType": "uint256",
          "name": "protocolId",
          "type": "uint256"
        },
        {
          "indexed": false,
          "internalType": "string",
          "name": "name",
          "type": "string"
        }
      ],
      "name": "TetuLinearPoolProtocolIdRegistered",
      "type": "event"
    },
    {
      "inputs": [
        {
          "internalType": "string",
          "name": "name",
          "type": "string"
        },
        {
          "internalType": "string",
          "name": "symbol",
          "type": "string"
        },
        {
          "internalType": "contract IERC20",
          "name": "mainToken",
          "type": "address"
        },
        {
          "internalType": "contract IERC20",
          "name": "wrappedToken",
          "type": "address"
        },
        {
          "internalType": "uint256",
          "name": "upperTarget",
          "type": "uint256"
        },
        {
          "internalType": "uint256",
          "name": "swapFeePercentage",
          "type": "uint256"
        },
        {
          "internalType": "address",
          "name": "owner",
          "type": "address"
        },
        {
          "internalType": "uint256",
          "name": "protocolId",
          "type": "uint256"
        }
      ],
      "name": "create",
      "outputs": [
        {
          "internalType": "contract LinearPool",
          "name": "",
          "type": "address"
        }
      ],
      "stateMutability": "nonpayable",
      "type": "function"
    },
    {
      "inputs": [],
      "name": "disable",
      "outputs": [],
      "stateMutability": "nonpayable",
      "type": "function"
    },
    {
      "inputs": [
        {
          "internalType": "bytes4",
          "name": "selector",
          "type": "bytes4"
        }
      ],
      "name": "getActionId",
      "outputs": [
        {
          "internalType": "bytes32",
          "name": "",
          "type": "bytes32"
        }
      ],
      "stateMutability": "view",
      "type": "function"
    },
    {
      "inputs": [],
      "name": "getAuthorizer",
      "outputs": [
        {
          "internalType": "contract IAuthorizer",
          "name": "",
          "type": "address"
        }
      ],
      "stateMutability": "view",
      "type": "function"
    },
    {
      "inputs": [],
      "name": "getCreationCode",
      "outputs": [
        {
          "internalType": "bytes",
          "name": "",
          "type": "bytes"
        }
      ],
      "stateMutability": "view",
      "type": "function"
    },
    {
      "inputs": [],
      "name": "getCreationCodeContracts",
      "outputs": [
        {
          "internalType": "address",
          "name": "contractA",
          "type": "address"
        },
        {
          "internalType": "address",
          "name": "contractB",
          "type": "address"
        }
      ],
      "stateMutability": "view",
      "type": "function"
    },
    {
      "inputs": [],
      "name": "getLastCreatedPool",
      "outputs": [
        {
          "internalType": "address",
          "name": "",
          "type": "address"
        }
      ],
      "stateMutability": "view",
      "type": "function"
    },
    {
      "inputs": [],
      "name": "getPauseConfiguration",
      "outputs": [
        {
          "internalType": "uint256",
          "name": "pauseWindowDuration",
          "type": "uint256"
        },
        {
          "internalType": "uint256",
          "name": "bufferPeriodDuration",
          "type": "uint256"
        }
      ],
      "stateMutability": "view",
      "type": "function"
    },
    {
      "inputs": [],
      "name": "getPoolVersion",
      "outputs": [
        {
          "internalType": "string",
          "name": "",
          "type": "string"
        }
      ],
      "stateMutability": "view",
      "type": "function"
    },
    {
      "inputs": [],
      "name": "getProtocolFeePercentagesProvider",
      "outputs": [
        {
          "internalType": "contract IProtocolFeePercentagesProvider",
          "name": "",
          "type": "address"
        }
      ],
      "stateMutability": "view",
      "type": "function"
    },
    {
      "inputs": [
        {
          "internalType": "uint256",
          "name": "protocolId",
          "type": "uint256"
        }
      ],
      "name": "getProtocolName",
      "outputs": [
        {
          "internalType": "string",
          "name": "",
          "type": "string"
        }
      ],
      "stateMutability": "view",
      "type": "function"
    },
    {
      "inputs": [],
      "name": "getVault",
      "outputs": [
        {
          "internalType": "contract IVault",
          "name": "",
          "type": "address"
        }
      ],
      "stateMutability": "view",
      "type": "function"
    },
    {
      "inputs": [],
      "name": "isDisabled",
      "outputs": [
        {
          "internalType": "bool",
          "name": "",
          "type": "bool"
        }
      ],
      "stateMutability": "view",
      "type": "function"
    },
    {
      "inputs": [
        {
          "internalType": "address",
          "name": "pool",
          "type": "address"
        }
      ],
      "name": "isPoolFromFactory",
      "outputs": [
        {
          "internalType": "bool",
          "name": "",
          "type": "bool"
        }
      ],
      "stateMutability": "view",
      "type": "function"
    },
    {
      "inputs": [
        {
          "internalType": "uint256",
          "name": "protocolId",
          "type": "uint256"
        },
        {
          "internalType": "string",
          "name": "name",
          "type": "string"
        }
      ],
      "name": "registerProtocolId",
      "outputs": [],
      "stateMutability": "nonpayable",
      "type": "function"
    },
    {
      "inputs": [],
      "name": "version",
      "outputs": [
        {
          "internalType": "string",
          "name": "",
          "type": "string"
        }
      ],
      "stateMutability": "view",
      "type": "function"
    }
  ],
  "bytecode": "0x6101e06040523480156200001257600080fd5b506040516200a3a23803806200a3a28339810160408190526200003591620003be565b86868383604051806020016200004b906200026d565b601f1982820381018352601f909101166040528851839083908790309085908e906200007f9060009060208401906200027b565b505080516002810460a081905280820360e081905281845283620000af816200018e602090811b62000bca17901c565b60601b6001600160601b0319166080528285018051838252620000de826200018e602090811b62000bca17901c565b6001600160601b0319606091821b811660c0529690935290526101009590955250509290911b909116610120525062000121630163f500831115610194620001e2565b620001356276a700821115610195620001e2565b610140829052610160524201610180525050506001600160601b0319606091821b81166101a05260016003559087901b166101c052508251620001809060069060208601906200027b565b50505050505050506200048f565b80517f602038038060206000396000f3fefefefefefefefefefefefefefefefefefefe808352600091602081018484f09084529150620001dc6001600160a01b03831615156101ac620001e2565b50919050565b81620001f357620001f381620001f7565b5050565b62000209816210905360ea1b6200020c565b50565b62461bcd60e51b600090815260206004526007602452600a808404818106603090810160081b958390069590950190829004918206850160101b01602363ffffff0060e086901c160160181b0190930160c81b60445260e882901c90606490fd5b615c5e806200474483390190565b828054600181600116156101000203166002900490600052602060002090601f016020900481019282601f10620002be57805160ff1916838001178555620002ee565b82800160010185558215620002ee579182015b82811115620002ee578251825591602001919060010190620002d1565b50620002fc92915062000300565b5090565b5b80821115620002fc576000815560010162000301565b600082601f83011262000328578081fd5b81516001600160401b03808211156200033f578283fd5b6040516020601f8401601f191682018101838111838210171562000361578586fd5b806040525081945083825286818588010111156200037e57600080fd5b600092505b83831015620003a2578583018101518284018201529182019162000383565b83831115620003b45760008185840101525b5050505092915050565b600080600080600080600060e0888a031215620003d9578283fd5b8751620003e68162000479565b6020890151909750620003f98162000479565b60408901519096506200040c8162000479565b60608901519095506001600160401b038082111562000429578485fd5b620004378b838c0162000317565b955060808a01519150808211156200044d578485fd5b506200045c8a828b0162000317565b93505060a0880151915060c0880151905092959891949750929550565b6001600160a01b03811681146200020957600080fd5b60805160601c60a05160c05160601c60e051610100516101205160601c6101405161016051610180516101a05160601c6101c05160601c614220620005246000398061085752508061054a5250806102d152806102fb52508061031f525050806106345250806105e2525080610c335250806102a85280610caf525080610c545250806102875280610c8b52506142206000f3fe60806040523480156200001157600080fd5b5060043610620001175760003560e01c80636c57f5a911620000a55780638d928af8116200006f5780638d928af81462000222578063a2de1041146200022c578063aaabadc51462000243578063df8af989146200024d5762000117565b80636c57f5a914620001d1578063739238d614620001db5780637f5d981714620001e5578063851c1bb314620001fc5762000117565b80633f819b6f11620000e75780633f819b6f146200017e57806354fd4d5014620001885780635ed3128214620001925780636634b75314620001ab5762000117565b8062c194db146200011c578063174481fa146200013e5780632da47c4014620001585780632f2770db1462000172575b600080fd5b6200012662000264565b604051620001359190620017d5565b60405180910390f35b6200014862000285565b604051620001359291906200176e565b62000162620002cb565b6040516200013592919062001a3c565b6200017c62000354565b005b62000126620003be565b6200012662000476565b6200019c620004f8565b6040516200013591906200174d565b620001c2620001bc36600462001475565b62000514565b60405162000135919062001795565b620001c26200053f565b6200019c62000548565b6200017c620001f6366004620015f5565b6200056c565b620002136200020d366004620014b6565b620005de565b604051620001359190620017a0565b6200019c62000632565b620001266200023d366004620015dc565b62000656565b6200019c62000780565b6200019c6200025e36600462001517565b6200080d565b6060620002806040518060200160405280600081525062000c2b565b905090565b7f00000000000000000000000000000000000000000000000000000000000000007f00000000000000000000000000000000000000000000000000000000000000009091565b600080427f00000000000000000000000000000000000000000000000000000000000000008110156200034657807f00000000000000000000000000000000000000000000000000000000000000000392507f000000000000000000000000000000000000000000000000000000000000000091506200034f565b60009250600091505b509091565b6200035e62000d06565b6200036862000d55565b600280547fffffffffffffffffffffffffffffffffffffffffffffffffffffffffffffff001660011790556040517f432acbfd662dbb5d8b378384a67159b47ca9d0f1b79f97cf64cf8585fa362d5090600090a1565b60068054604080516020601f60027fffffffffffffffffffffffffffffffffffffffffffffffffffffffffffffffff6101006001881615020190951694909404938401819004810282018101909252828152606093909290918301828280156200046c5780601f1062000440576101008083540402835291602001916200046c565b820191906000526020600020905b8154815290600101906020018083116200044e57829003601f168201915b5050505050905090565b60008054604080516020601f60027fffffffffffffffffffffffffffffffffffffffffffffffffffffffffffffffff6101006001881615020190951694909404938401819004810282018101909252828152606093909290918301828280156200046c5780601f1062000440576101008083540402835291602001916200046c565b60055473ffffffffffffffffffffffffffffffffffffffff1690565b73ffffffffffffffffffffffffffffffffffffffff1660009081526001602052604090205460ff1690565b60025460ff1690565b7f000000000000000000000000000000000000000000000000000000000000000090565b6200057662000d06565b60008281526007602052604090206001015460ff1615620005ce576040517f08c379a0000000000000000000000000000000000000000000000000000000008152600401620005c59062001821565b60405180910390fd5b620005da828262000d6e565b5050565b60007f00000000000000000000000000000000000000000000000000000000000000008260405160200162000615929190620016ea565b604051602081830303815290604052805190602001209050919050565b7f000000000000000000000000000000000000000000000000000000000000000090565b60606200066262001262565b6000838152600760209081526040918290208251815460026001821615610100027fffffffffffffffffffffffffffffffffffffffffffffffffffffffffffffffff0190911604601f8101849004909302810160609081018552938101838152909391928492849190840182828015620007205780601f10620006f45761010080835404028352916020019162000720565b820191906000526020600020905b8154815290600101906020018083116200070257829003601f168201915b50505091835250506001919091015460ff16151560209182015281015190915062000779576040517f08c379a0000000000000000000000000000000000000000000000000000000008152600401620005c5906200188f565b5192915050565b60006200078c62000632565b73ffffffffffffffffffffffffffffffffffffffff1663aaabadc56040518163ffffffff1660e01b815260040160206040518083038186803b158015620007d257600080fd5b505afa158015620007e7573d6000803e3d6000fd5b505050506040513d601f19601f82011682018060405250810190620002809190620014f8565b60006200081962000e23565b600480546001810190915560405160609062000838602082016200127a565b601f1982820381018352601f909101166040526200085562000632565b7f0000000000000000000000000000000000000000000000000000000000000000604051602001620008899291906200176e565b60408051601f1981840301815290829052620008a992916020016200171a565b60405160208183030381529060405290506000620008cf83838051906020012062000e3e565b9050600080620008de620002cb565b91509150620008ec62001288565b620008f662000632565b816000019073ffffffffffffffffffffffffffffffffffffffff16908173ffffffffffffffffffffffffffffffffffffffff16815250508e81602001819052508d81604001819052508c816060019073ffffffffffffffffffffffffffffffffffffffff16908173ffffffffffffffffffffffffffffffffffffffff16815250508b816080019073ffffffffffffffffffffffffffffffffffffffff16908173ffffffffffffffffffffffffffffffffffffffff1681525050838160a0019073ffffffffffffffffffffffffffffffffffffffff16908173ffffffffffffffffffffffffffffffffffffffff16815250508a8160c0018181525050898160e0018181525050828161010001818152505081816101200181815250508881610140019073ffffffffffffffffffffffffffffffffffffffff16908173ffffffffffffffffffffffffffffffffffffffff168152505062000a54620003be565b61016082015260405160009062000a8a9062000a7590849060200162001934565b60405160208183030381529060405262000e54565b90508073ffffffffffffffffffffffffffffffffffffffff16638129fc1c6040518163ffffffff1660e01b8152600401600060405180830381600087803b15801562000ad557600080fd5b505af115801562000aea573d6000803e3d6000fd5b50505050600062000afe6000898962000ea9565b90508073ffffffffffffffffffffffffffffffffffffffff168673ffffffffffffffffffffffffffffffffffffffff161462000b68576040517f08c379a0000000000000000000000000000000000000000000000000000000008152600401620005c590620018c6565b6040518a9073ffffffffffffffffffffffffffffffffffffffff8416907f04c0fbc836743a2333cab4d1155e41b10c2e727b9a47d1d14787f0e02d2cf94d90600090a350965050505050505062000bbe62000f87565b98975050505050505050565b80517f602038038060206000396000f3fefefefefefefefefefefefefefefefefefefe808352600091602081018484f0908452915062000c2573ffffffffffffffffffffffffffffffffffffffff831615156101ac62000f8e565b50919050565b8051604080517f00000000000000000000000000000000000000000000000000000000000000007f0000000000000000000000000000000000000000000000000000000000000000818101858101848101602090810190965280855293957f00000000000000000000000000000000000000000000000000000000000000009592947f000000000000000000000000000000000000000000000000000000000000000094938801866000828a3c846000888301883c506020898101908985010162000cf881838662000f9f565b505050505050505050919050565b600062000d376000357fffffffff0000000000000000000000000000000000000000000000000000000016620005de565b905062000d5262000d49823362000ffd565b61019162000f8e565b50565b62000d6c62000d636200053f565b1560d362000f8e565b565b604080518082018252828152600160208083019190915260008581526007825292909220815180519293919262000da9928492019062001357565b5060209190910151600190910180547fffffffffffffffffffffffffffffffffffffffffffffffffffffffffffffff001691151591909117905560405182907feec512c7f7b17cbb12126c5a70560e19b2668396191130f4ef9e59d5abe01ec99062000e17908490620017d5565b60405180910390a25050565b62000e376002600354141561019062000f8e565b6002600355565b600062000e4d8383306200109b565b9392505050565b60008062000e6283620010dc565b600580547fffffffffffffffffffffffff00000000000000000000000000000000000000001673ffffffffffffffffffffffffffffffffffffffff83161790559392505050565b6000808447101562000ee9576040517f08c379a0000000000000000000000000000000000000000000000000000000008152600401620005c590620017ea565b825162000f24576040517f08c379a0000000000000000000000000000000000000000000000000000000008152600401620005c590620018fd565b8383516020850187f5905073ffffffffffffffffffffffffffffffffffffffff811662000f7f576040517f08c379a0000000000000000000000000000000000000000000000000000000008152600401620005c59062001858565b949350505050565b6001600355565b81620005da57620005da8162001177565b5b6020811062000fc1578151835260209283019290910190601f190162000fa0565b905182516020929092036101000a7fffffffffffffffffffffffffffffffffffffffffffffffffffffffffffffffff0180199091169116179052565b60006200100962000780565b73ffffffffffffffffffffffffffffffffffffffff16639be2a8848484306040518463ffffffff1660e01b81526004016200104793929190620017a9565b60206040518083038186803b1580156200106057600080fd5b505afa15801562001075573d6000803e3d6000fd5b505050506040513d601f19601f8201168201806040525081019062000e4d919062001494565b60008060ff60f81b838686604051602001620010bb949392919062001686565b60408051808303601f19018152919052805160209091012095945050505050565b6000620010e862000d55565b6000620010f583620011a3565b73ffffffffffffffffffffffffffffffffffffffff8116600081815260016020819052604080832080547fffffffffffffffffffffffffffffffffffffffffffffffffffffffffffffff00169092179091555192935090917f83a48fbcfc991335314e74d0496aab6a1987e992ddc85dddbcc4d6dd6ef2e9fc9190a292915050565b62000d52817f42414c0000000000000000000000000000000000000000000000000000000000620011e7565b60006060620011b28362000c2b565b905060008151602083016000f0905073ffffffffffffffffffffffffffffffffffffffff811662000e4d573d6000803e3d6000fd5b7f08c379a000000000000000000000000000000000000000000000000000000000600090815260206004526007602452600a808404818106603090810160081b958390069590950190829004918206850160101b01602363ffffff0060e086901c160160181b0190930160c81b60445260e882901c90606490fd5b60408051808201909152606081526000602082015290565b61274a8062001aa183390190565b604051806101800160405280600073ffffffffffffffffffffffffffffffffffffffff1681526020016060815260200160608152602001600073ffffffffffffffffffffffffffffffffffffffff168152602001600073ffffffffffffffffffffffffffffffffffffffff168152602001600073ffffffffffffffffffffffffffffffffffffffff16815260200160008152602001600081526020016000815260200160008152602001600073ffffffffffffffffffffffffffffffffffffffff168152602001606081525090565b828054600181600116156101000203166002900490600052602060002090601f016020900481019282601f106200139a57805160ff1916838001178555620013ca565b82800160010185558215620013ca579182015b82811115620013ca578251825591602001919060010190620013ad565b50620013d8929150620013dc565b5090565b5b80821115620013d85760008155600101620013dd565b600082601f83011262001404578081fd5b813567ffffffffffffffff808211156200141c578283fd5b6040516020601f19601f85011682010181811083821117156200143d578485fd5b6040528281529250828483016020018610156200145957600080fd5b8260208601602083013760006020848301015250505092915050565b60006020828403121562001487578081fd5b813562000e4d8162001a7d565b600060208284031215620014a6578081fd5b8151801515811462000e4d578182fd5b600060208284031215620014c8578081fd5b81357fffffffff000000000000000000000000000000000000000000000000000000008116811462000e4d578182fd5b6000602082840312156200150a578081fd5b815162000e4d8162001a7d565b600080600080600080600080610100898b03121562001534578384fd5b883567ffffffffffffffff808211156200154c578586fd5b6200155a8c838d01620013f3565b995060208b013591508082111562001570578586fd5b506200157f8b828c01620013f3565b9750506040890135620015928162001a7d565b95506060890135620015a48162001a7d565b94506080890135935060a0890135925060c0890135620015c48162001a7d565b8092505060e089013590509295985092959890939650565b600060208284031215620015ee578081fd5b5035919050565b6000806040838503121562001608578182fd5b82359150602083013567ffffffffffffffff81111562001626578182fd5b6200163485828601620013f3565b9150509250929050565b73ffffffffffffffffffffffffffffffffffffffff169052565b600081518084526200167281602086016020860162001a4a565b601f01601f19169290920160200192915050565b7fff0000000000000000000000000000000000000000000000000000000000000094909416845260609290921b7fffffffffffffffffffffffffffffffffffffffff0000000000000000000000001660018401526015830152603582015260550190565b9182527fffffffff0000000000000000000000000000000000000000000000000000000016602082015260240190565b600083516200172e81846020880162001a4a565b8351908301906200174481836020880162001a4a565b01949350505050565b73ffffffffffffffffffffffffffffffffffffffff91909116815260200190565b73ffffffffffffffffffffffffffffffffffffffff92831681529116602082015260400190565b901515815260200190565b90815260200190565b92835273ffffffffffffffffffffffffffffffffffffffff918216602084015216604082015260600190565b60006020825262000e4d602083018462001658565b6020808252601c908201527f435245415445325f494e53554646494349454e545f42414c414e434500000000604082015260600190565b6020808252601e908201527f50726f746f636f6c20494420616c726561647920726567697374657265640000604082015260600190565b60208082526015908201527f435245415445325f4445504c4f595f4641494c45440000000000000000000000604082015260600190565b6020808252601a908201527f50726f746f636f6c204944206e6f742072656769737465726564000000000000604082015260600190565b6020808252601c908201527f526562616c616e636572206465706c6f796d656e74206661696c656400000000604082015260600190565b60208082526015908201527f435245415445325f42595445434f44455f5a45524f0000000000000000000000604082015260600190565b6000602082526200194a6020830184516200163e565b6020830151610180806040850152620019686101a085018362001658565b91506040850151601f198086850301606087015262001988848362001658565b935060608701519150620019a060808701836200163e565b60808701519150620019b660a08701836200163e565b60a08701519150620019cc60c08701836200163e565b60c087015160e087810191909152870151610100808801919091528701516101208088019190915287015161014080880191909152870151915061016062001a17818801846200163e565b87015186850390910183870152905062001a32838262001658565b9695505050505050565b918252602082015260400190565b60005b8381101562001a6757818101518382015260200162001a4d565b8381111562001a77576000848401525b50505050565b73ffffffffffffffffffffffffffffffffffffffff8116811462000d5257600080fdfe6101806040523480156200001257600080fd5b506040516200274a3803806200274a8339810160408190526200003591620005cf565b336001600160a01b0316635ed312826040518163ffffffff1660e01b815260040160206040518083038186803b1580156200006f57600080fd5b505afa15801562000084573d6000803e3d6000fd5b505050506040513d601f19601f82011682018060405250810190620000aa9190620004e5565b8282826001600160a01b0316631dd746ea6040518163ffffffff1660e01b815260040160006040518083038186803b158015620000e657600080fd5b505afa158015620000fb573d6000803e3d6000fd5b505050506040513d6000823e601f3d908101601f191682016040526200012591908101906200050b565b836001600160a01b0316634d64cd746040518163ffffffff1660e01b815260040160206040518083038186803b1580156200015f57600080fd5b505afa15801562000174573d6000803e3d6000fd5b505050506040513d601f19601f820116820180604052508101906200019a9190620005b6565b81518110620001a557fe5b602090810291909101810151610100526001600160601b0319606085901b166080526040805163038fff2d60e41b815290516001600160a01b038616926338fff2d09260048082019391829003018186803b1580156200020457600080fd5b505afa15801562000219573d6000803e3d6000fd5b505050506040513d601f19601f820116820180604052508101906200023f9190620005b6565b60a08181525050826001600160a01b0316634de046d56040518163ffffffff1660e01b815260040160206040518083038186803b1580156200028057600080fd5b505afa15801562000295573d6000803e3d6000fd5b505050506040513d601f19601f82011682018060405250810190620002bb9190620004e5565b6001600160a01b031660c0816001600160a01b031660601b81525050826001600160a01b031663f174e2416040518163ffffffff1660e01b815260040160206040518083038186803b1580156200031157600080fd5b505afa15801562000326573d6000803e3d6000fd5b505050506040513d601f19601f820116820180604052508101906200034c9190620004e5565b6001600160601b0319606091821b811660e05292811b8316610120521b16610140525060408051632f69894160e11b815290516000913391635ed3128291600480820192602092909190829003018186803b158015620003ab57600080fd5b505afa158015620003c0573d6000803e3d6000fd5b505050506040513d601f19601f82011682018060405250810190620003e69190620004e5565b6001600160a01b031663f174e2416040518163ffffffff1660e01b815260040160206040518083038186803b1580156200041f57600080fd5b505afa15801562000434573d6000803e3d6000fd5b505050506040513d601f19601f820116820180604052508101906200045a9190620004e5565b9050806001600160a01b031663313ce5676040518163ffffffff1660e01b815260040160206040518083038186803b1580156200049657600080fd5b505afa158015620004ab573d6000803e3d6000fd5b505050506040513d601f19601f82011682018060405250810190620004d191906200060d565b60ff16600a0a610160525062000670915050565b600060208284031215620004f7578081fd5b8151620005048162000657565b9392505050565b600060208083850312156200051e578182fd5b82516001600160401b038082111562000535578384fd5b818501915085601f83011262000549578384fd5b81518181111562000558578485fd5b83810291506200056a84830162000630565b8181528481019084860184860187018a101562000585578788fd5b8795505b83861015620005a957805183526001959095019491860191860162000589565b5098975050505050505050565b600060208284031215620005c8578081fd5b5051919050565b60008060408385031215620005e2578081fd5b8251620005ef8162000657565b6020840151909250620006028162000657565b809150509250929050565b6000602082840312156200061f578081fd5b815160ff8116811462000504578182fd5b6040518181016001600160401b03811182821017156200064f57600080fd5b604052919050565b6001600160a01b03811681146200066d57600080fd5b50565b60805160601c60a05160c05160601c60e05160601c610100516101205160601c6101405160601c61016051611fca6200078060003950806105095280610a46525080610133528061104b52806113d9528061143b5250806103bf52508061046c52806105995280610671528061096d5280610ce95280610d23528061118b528061149852806115ad528061162b5280611771528061186352806118c552508060ea5280610190528061043052806107b752806107f1528061085652806108f752806109a95280610ad65280610bae5280611580528061184152508061016f5280610402528061093f5280610eb45280610f9352806112615280611340525080609952806103095250611fca6000f3fe608060405234801561001057600080fd5b50600436106100415760003560e01c8063026b1d5f1461004657806321c2819114610064578063df633d8d14610084575b600080fd5b61004e610097565b60405161005b9190611d21565b60405180910390f35b610077610072366004611b79565b6100bb565b60405161005b9190611f3d565b610077610092366004611bb1565b6100ce565b7f000000000000000000000000000000000000000000000000000000000000000090565b60006100c682610122565b90505b919050565b600061011273ffffffffffffffffffffffffffffffffffffffff7f000000000000000000000000000000000000000000000000000000000000000016333085610259565b61011b83610122565b9392505050565b60008061012d610302565b905060007f000000000000000000000000000000000000000000000000000000000000000073ffffffffffffffffffffffffffffffffffffffff1663b05f8e487f00000000000000000000000000000000000000000000000000000000000000007f00000000000000000000000000000000000000000000000000000000000000006040518363ffffffff1660e01b81526004016101cc929190611e6d565b60806040518083038186803b1580156101e457600080fd5b505afa1580156101f8573d6000803e3d6000fd5b505050506040513d601f19601f8201168201806040525081019061021c9190611c37565b50505090508181101561023e57610235818303856103eb565b925050506100c9565b818111156102525761023582820385610928565b5050919050565b6102fc846323b872dd60e01b85858560405160240161027a93929190611d69565b604080517fffffffffffffffffffffffffffffffffffffffffffffffffffffffffffffffe08184030181529190526020810180517bffffffffffffffffffffffffffffffffffffffffffffffffffffffff167fffffffff0000000000000000000000000000000000000000000000000000000090931692909217909152610d48565b50505050565b60008060007f000000000000000000000000000000000000000000000000000000000000000073ffffffffffffffffffffffffffffffffffffffff166363fe3b566040518163ffffffff1660e01b8152600401604080518083038186803b15801561036c57600080fd5b505afa158015610380573d6000803e3d6000fd5b505050506040513d601f19601f820116820180604052508101906103a49190611c14565b9150915060006002828401816103b657fe5b0490506103e3817f0000000000000000000000000000000000000000000000000000000000000000610df5565b935050505090565b60006103f5611ac6565b6040805160c081019091527f0000000000000000000000000000000000000000000000000000000000000000815260208101600081526020017f000000000000000000000000000000000000000000000000000000000000000073ffffffffffffffffffffffffffffffffffffffff1681526020017f000000000000000000000000000000000000000000000000000000000000000073ffffffffffffffffffffffffffffffffffffffff1681526020018581526020016040518060200160405280600081525081525090506104c9611b29565b6040517fe969f6b300000000000000000000000000000000000000000000000000000000815260009073ffffffffffffffffffffffffffffffffffffffff7f0000000000000000000000000000000000000000000000000000000000000000169063e969f6b3906105409086908690600401611eb3565b602060405180830381600087803b15801561055a57600080fd5b505af115801561056e573d6000803e3d6000fd5b505050506040513d601f19601f820116820180604052508101906105929190611bfc565b90506105be7f000000000000000000000000000000000000000000000000000000000000000082610e48565b6105fd6040518060400160405280601281526020017f77726170706564416d6f756e744f75743a200000000000000000000000000000815250826110b9565b604080518082018252601b81527f62616c616e6365206f66207772617070656420746f6b656e733a200000000000602082015290517f70a082310000000000000000000000000000000000000000000000000000000081526106fb919073ffffffffffffffffffffffffffffffffffffffff7f000000000000000000000000000000000000000000000000000000000000000016906370a08231906106a6903090600401611d21565b60206040518083038186803b1580156106be57600080fd5b505afa1580156106d2573d6000803e3d6000fd5b505050506040513d601f19601f820116820180604052508101906106f69190611bfc565b6110b9565b6107048161114e565b6107436040518060400160405280601381526020017f6d697373696e674d61696e416d6f756e743a2000000000000000000000000000815250876110b9565b604080518082018252601881527f62616c616e6365206f66206d61696e20746f6b656e733a200000000000000000602082015290517f70a082310000000000000000000000000000000000000000000000000000000081526107ec919073ffffffffffffffffffffffffffffffffffffffff7f000000000000000000000000000000000000000000000000000000000000000016906370a08231906106a6903090600401611d21565b6108167f0000000000000000000000000000000000000000000000000000000000000000876111f5565b6040517f70a0823100000000000000000000000000000000000000000000000000000000815260009073ffffffffffffffffffffffffffffffffffffffff7f000000000000000000000000000000000000000000000000000000000000000016906370a082319061088b903090600401611d21565b60206040518083038186803b1580156108a357600080fd5b505afa1580156108b7573d6000803e3d6000fd5b505050506040513d601f19601f820116820180604052508101906108db9190611bfc565b905061091e73ffffffffffffffffffffffffffffffffffffffff7f0000000000000000000000000000000000000000000000000000000000000000168783611470565b9695505050505050565b6000610932611ac6565b6040805160c081019091527f0000000000000000000000000000000000000000000000000000000000000000815260208101600181526020017f000000000000000000000000000000000000000000000000000000000000000073ffffffffffffffffffffffffffffffffffffffff1681526020017f000000000000000000000000000000000000000000000000000000000000000073ffffffffffffffffffffffffffffffffffffffff168152602001858152602001604051806020016040528060008152508152509050610a06611b29565b6040517fe969f6b300000000000000000000000000000000000000000000000000000000815260009073ffffffffffffffffffffffffffffffffffffffff7f0000000000000000000000000000000000000000000000000000000000000000169063e969f6b390610a7d9086908690600401611eb3565b602060405180830381600087803b158015610a9757600080fd5b505af1158015610aab573d6000803e3d6000fd5b505050506040513d601f19601f82011682018060405250810190610acf9190611bfc565b9050610afb7f000000000000000000000000000000000000000000000000000000000000000087610e48565b610b3a6040518060400160405280601281526020017f6578636573734d61696e416d6f756e743a200000000000000000000000000000815250876110b9565b604080518082018252601881527f62616c616e6365206f66206d61696e20746f6b656e733a200000000000000000602082015290517f70a08231000000000000000000000000000000000000000000000000000000008152610be3919073ffffffffffffffffffffffffffffffffffffffff7f000000000000000000000000000000000000000000000000000000000000000016906370a08231906106a6903090600401611d21565b610c256040518060400160405280601381526020017f746f6b656e7320746f206465706f7369743a20000000000000000000000000008152506106f683611494565b610c36610c3182611494565b611827565b610c756040518060400160405280601181526020017f77726170706564416d6f756e74496e3a20000000000000000000000000000000815250826110b9565b604080518082018252601981527f62616c616e6365206f66207772617070656420746f6b656e7300000000000000602082015290517f70a08231000000000000000000000000000000000000000000000000000000008152610d1e919073ffffffffffffffffffffffffffffffffffffffff7f000000000000000000000000000000000000000000000000000000000000000016906370a08231906106a6903090600401611d21565b6108167f0000000000000000000000000000000000000000000000000000000000000000826111f5565b600060608373ffffffffffffffffffffffffffffffffffffffff1683604051610d719190611d05565b6000604051808303816000865af19150503d8060008114610dae576040519150601f19603f3d011682016040523d82523d6000602084013e610db3565b606091505b50915091506000821415610dcb573d6000803e3d6000fd5b6102fc815160001480610ded575081806020019051810190610ded9190611bdc565b6101a26118fa565b6000610e0482151560046118fa565b670de0b6b3a76400008302610e36841580610e2f5750670de0b6b3a7640000858381610e2c57fe5b04145b60056118fa565b828181610e3f57fe5b04949350505050565b6040805160028082526060828101909352816020015b610e66611b50565b815260200190600190039081610e5e579050509050600081600081518110610e8a57fe5b6020026020010151600001906002811115610ea157fe5b90816002811115610eae57fe5b815250507f000000000000000000000000000000000000000000000000000000000000000081600081518110610ee057fe5b602002602001015160200181815250508181600081518110610efe57fe5b602002602001015160600181815250508281600081518110610f1c57fe5b60200260200101516040019073ffffffffffffffffffffffffffffffffffffffff16908173ffffffffffffffffffffffffffffffffffffffff1681525050600281600181518110610f6957fe5b6020026020010151600001906002811115610f8057fe5b90816002811115610f8d57fe5b815250507f000000000000000000000000000000000000000000000000000000000000000081600181518110610fbf57fe5b60200260200101516020018181525050600081600181518110610fde57fe5b602002602001015160600181815250508281600181518110610ffc57fe5b602090810291909101015173ffffffffffffffffffffffffffffffffffffffff918216604091820152517fe6c460920000000000000000000000000000000000000000000000000000000081527f00000000000000000000000000000000000000000000000000000000000000009091169063e6c4609290611082908490600401611de9565b600060405180830381600087803b15801561109c57600080fd5b505af11580156110b0573d6000803e3d6000fd5b50505050505050565b61114a82826040516024016110cf929190611e91565b604080517fffffffffffffffffffffffffffffffffffffffffffffffffffffffffffffffe08184030181529190526020810180517bffffffffffffffffffffffffffffffffffffffffffffffffffffffff167fb60e72cc00000000000000000000000000000000000000000000000000000000179052611908565b5050565b6040517f2e1a7d4d00000000000000000000000000000000000000000000000000000000815273ffffffffffffffffffffffffffffffffffffffff7f00000000000000000000000000000000000000000000000000000000000000001690632e1a7d4d906111c0908490600401611f3d565b600060405180830381600087803b1580156111da57600080fd5b505af11580156111ee573d6000803e3d6000fd5b5050505050565b6040805160028082526060828101909352816020015b611213611b50565b81526020019060019003908161120b57905050905060028160008151811061123757fe5b602002602001015160000190600281111561124e57fe5b9081600281111561125b57fe5b815250507f00000000000000000000000000000000000000000000000000000000000000008160008151811061128d57fe5b6020026020010151602001818152505081816000815181106112ab57fe5b6020026020010151606001818152505082816000815181106112c957fe5b60200260200101516040019073ffffffffffffffffffffffffffffffffffffffff16908173ffffffffffffffffffffffffffffffffffffffff168152505060018160018151811061131657fe5b602002602001015160000190600281111561132d57fe5b9081600281111561133a57fe5b815250507f00000000000000000000000000000000000000000000000000000000000000008160018151811061136c57fe5b60200260200101516020018181525050818160018151811061138a57fe5b6020026020010151606001818152505082816001815181106113a857fe5b602090810291909101015173ffffffffffffffffffffffffffffffffffffffff9182166040909101526113fe9084167f000000000000000000000000000000000000000000000000000000000000000084611929565b6040517fe6c4609200000000000000000000000000000000000000000000000000000000815273ffffffffffffffffffffffffffffffffffffffff7f0000000000000000000000000000000000000000000000000000000000000000169063e6c4609290611082908490600401611de9565b61148f8363a9059cbb60e01b848460405160240161027a929190611dc3565b505050565b60007f000000000000000000000000000000000000000000000000000000000000000073ffffffffffffffffffffffffffffffffffffffff166318160ddd6040518163ffffffff1660e01b815260040160206040518083038186803b1580156114fc57600080fd5b505afa158015611510573d6000803e3d6000fd5b505050506040513d601f19601f820116820180604052508101906115349190611bfc565b611540575060006100c9565b6040517f70a0823100000000000000000000000000000000000000000000000000000000815260009073ffffffffffffffffffffffffffffffffffffffff7f000000000000000000000000000000000000000000000000000000000000000016906370a08231906115d5907f000000000000000000000000000000000000000000000000000000000000000090600401611d21565b60206040518083038186803b1580156115ed57600080fd5b505afa158015611601573d6000803e3d6000fd5b505050506040513d601f19601f820116820180604052508101906116259190611bfc565b905060007f000000000000000000000000000000000000000000000000000000000000000073ffffffffffffffffffffffffffffffffffffffff1663a8c62e766040518163ffffffff1660e01b815260040160206040518083038186803b15801561168f57600080fd5b505afa1580156116a3573d6000803e3d6000fd5b505050506040513d601f19601f820116820180604052508101906116c79190611b95565b9050600073ffffffffffffffffffffffffffffffffffffffff82161561176a578173ffffffffffffffffffffffffffffffffffffffff166345d01e4a6040518163ffffffff1660e01b815260040160206040518083038186803b15801561172d57600080fd5b505afa158015611741573d6000803e3d6000fd5b505050506040513d601f19601f820116820180604052508101906117659190611bfc565b61176d565b60005b90507f000000000000000000000000000000000000000000000000000000000000000073ffffffffffffffffffffffffffffffffffffffff166318160ddd6040518163ffffffff1660e01b815260040160206040518083038186803b1580156117d557600080fd5b505afa1580156117e9573d6000803e3d6000fd5b505050506040513d601f19601f8201168201806040525081019061180d9190611bfc565b81840186028161181957fe5b046001019350505050919050565b61188873ffffffffffffffffffffffffffffffffffffffff7f0000000000000000000000000000000000000000000000000000000000000000167f000000000000000000000000000000000000000000000000000000000000000083611929565b6040517fb6b55f2500000000000000000000000000000000000000000000000000000000815273ffffffffffffffffffffffffffffffffffffffff7f0000000000000000000000000000000000000000000000000000000000000000169063b6b55f25906111c0908490600401611f3d565b8161114a5761114a81611a1e565b80516a636f6e736f6c652e6c6f67602083016000808483855afa5050505050565b80158015906119da57506040517fdd62ed3e00000000000000000000000000000000000000000000000000000000815273ffffffffffffffffffffffffffffffffffffffff84169063dd62ed3e906119879030908690600401611d42565b60206040518083038186803b15801561199f57600080fd5b505afa1580156119b3573d6000803e3d6000fd5b505050506040513d601f19601f820116820180604052508101906119d79190611bfc565b15155b156119ff576119ff8363095ea7b360e01b84600060405160240161027a929190611d9a565b61148f8363095ea7b360e01b848460405160240161027a929190611dc3565b611a48817f42414c0000000000000000000000000000000000000000000000000000000000611a4b565b50565b7f08c379a000000000000000000000000000000000000000000000000000000000600090815260206004526007602452600a808404818106603090810160081b958390069590950190829004918206850160101b01602363ffffff0060e086901c160160181b0190930160c81b60445260e882901c90606490fd5b6040805160c08101909152600080825260208201908152602001600073ffffffffffffffffffffffffffffffffffffffff168152602001600073ffffffffffffffffffffffffffffffffffffffff16815260200160008152602001606081525090565b60408051608081018252600080825260208201819052918101829052606081019190915290565b604080516080810190915280600081526000602082018190526040820181905260609091015290565b600060208284031215611b8a578081fd5b813561011b81611f72565b600060208284031215611ba6578081fd5b815161011b81611f72565b60008060408385031215611bc3578081fd5b8235611bce81611f72565b946020939093013593505050565b600060208284031215611bed578081fd5b8151801515811461011b578182fd5b600060208284031215611c0d578081fd5b5051919050565b60008060408385031215611c26578182fd5b505080516020909101519092909150565b60008060008060808587031215611c4c578182fd5b8451935060208501519250604085015191506060850151611c6c81611f72565b939692955090935050565b60008151808452611c8f816020860160208601611f46565b601f017fffffffffffffffffffffffffffffffffffffffffffffffffffffffffffffffe0169290920160200192915050565b73ffffffffffffffffffffffffffffffffffffffff808251168352602082015115156020840152806040830151166040840152506060810151151560608301525050565b60008251611d17818460208701611f46565b9190910192915050565b73ffffffffffffffffffffffffffffffffffffffff91909116815260200190565b73ffffffffffffffffffffffffffffffffffffffff92831681529116602082015260400190565b73ffffffffffffffffffffffffffffffffffffffff9384168152919092166020820152604081019190915260600190565b73ffffffffffffffffffffffffffffffffffffffff92909216825260ff16602082015260400190565b73ffffffffffffffffffffffffffffffffffffffff929092168252602082015260400190565b602080825282518282018190526000919060409081850190868401855b82811015611e60578151805160038110611e1c57fe5b855280870151878601528581015173ffffffffffffffffffffffffffffffffffffffff16868601526060908101519085015260809093019290850190600101611e06565b5091979650505050505050565b91825273ffffffffffffffffffffffffffffffffffffffff16602082015260400190565b600060408252611ea46040830185611c77565b90508260208301529392505050565b600060a08252835160a0830152602084015160028110611ecf57fe5b8060c084015250604084015173ffffffffffffffffffffffffffffffffffffffff80821660e0850152806060870151166101008501525050608084015161012083015260a084015160c0610140840152611f2d610160840182611c77565b91505061011b6020830184611cc1565b90815260200190565b60005b83811015611f61578181015183820152602001611f49565b838111156102fc5750506000910152565b73ffffffffffffffffffffffffffffffffffffffff81168114611a4857600080fdfea2646970667358221220d311651fc9d853b5efe46f2425c20fc7d1ee843779146290aa26eccf37680dfb64736f6c63430007010033a264697066735822122014a699dc296e4c3a76c1fab909b53dffae2604d4052095ca74a469c3101d671264736f6c634300070100336103006040523480156200001257600080fd5b5060405162005c5e38038062005c5e833981016040819052620000359162000ec3565b6101608101518151602083015160408401516060850151608086015160c0870151620000618862000526565b60e08901516101008a01516101208b01516101408c01518a6200009e8160006200008c8c8c620005af565b896200066060201b620014141760201c565b8b8b868686828286868a85336001600160a01b031660001b8480604051806040016040528060018152602001603160f81b81525087878160039080519060200190620000ec92919062000d53565b5080516200010290600490602084019062000d53565b50506005805460ff19166012179055508151602092830120608052805191012060a052507f8b73c3c69bb8fe3d512ecc4cf759cc79239f7b179b0ffacaa9a75d522b39400f60c05260e0526001600160601b0319606091821b81166101005291901b166101205250620001819050630163f5008311156101946200082e565b620001956276a7008211156101956200082e565b4290910161014081905201610160526101808690526040805163d2946c2b60e01b815290516001600160a01b0389169163d2946c2b916004808301926020929190829003018186803b158015620001eb57600080fd5b505afa15801562000200573d6000803e3d6000fd5b505050506040513d601f19601f8201168201806040525081019062000226919062000e8b565b6001600160a01b03166101a0816001600160a01b031660601b8152505050505050505050876001600160a01b03166101c0816001600160a01b031660601b81525050866001600160a01b03166101e0816001600160a01b031660601b81525050866001600160a01b0316886001600160a01b031610620002a8576002620002ab565b60015b60ff16610200526001600160a01b0380881690891610620002ce576001620002d1565b60025b60ff1661022052620002e38862000843565b61024052620002f28762000843565b61026052600062000305898289620008ef565b6200031085620009e9565b50508a51620003339a506009995060208c019850965062000d5395505050505050565b50506080810180516060808401516001600160601b031990821b8116610280529251811b83166102a05281901b9091166102c05260408051636f307dc360e01b8152905162000473916012916001600160a01b03851691636f307dc3916004808301926020929190829003018186803b158015620003b057600080fd5b505afa158015620003c5573d6000803e3d6000fd5b505050506040513d601f19601f82011682018060405250810190620003eb919062000e8b565b6001600160a01b031663313ce5676040518163ffffffff1660e01b815260040160206040518083038186803b1580156200042457600080fd5b505afa15801562000439573d6000803e3d6000fd5b505050506040513d601f19601f820116820180604052508101906200045f91906200101a565b60ff1662000a7860201b620015c91760201c565b600a0a6102e081815250506200051e816001600160a01b0316636f307dc36040518163ffffffff1660e01b815260040160206040518083038186803b158015620004bc57600080fd5b505afa158015620004d1573d6000803e3d6000fd5b505050506040513d601f19601f82011682018060405250810190620004f7919062000e8b565b6001600160a01b031683606001516001600160a01b0316146102086200082e60201b60201c565b505062001140565b6040805160028082526060808301845292839291906020830190803683370190505090508260a00151816000815181106200055d57fe5b60200260200101906001600160a01b031690816001600160a01b0316815250508260a00151816001815181106200059057fe5b6001600160a01b03909216602092830291909101909101529050919050565b60408051600280825260608281019093526001600160a01b038481169086161091839181602001602082028036833701905050905081620005f15783620005f3565b845b816000815181106200060157fe5b60200260200101906001600160a01b031690816001600160a01b031681525050816200062e578462000630565b835b816001815181106200063e57fe5b6001600160a01b03909216602092830291909101909101529150505b92915050565b6000620006788362000a8f60201b620015d71760201c565b606083516001016001600160401b03811180156200069557600080fd5b50604051908082528060200260200182016040528015620006c0578160200160208202803683370190505b5090503081600081518110620006d257fe5b60200260200101906001600160a01b031690816001600160a01b03168152505060005b845181101562000745578481815181106200070c57fe5b60200260200101518282600101815181106200072457fe5b6001600160a01b0390921660209283029190910190910152600101620006f5565b50606083516001016001600160401b03811180156200076357600080fd5b506040519080825280602002602001820160405280156200078e578160200160208202803683370190505b509050600081600081518110620007a157fe5b60200260200101906001600160a01b031690816001600160a01b03168152505060005b84518110156200081457848181518110620007db57fe5b6020026020010151828260010181518110620007f357fe5b6001600160a01b0390921660209283029190910190910152600101620007c4565b50620008238787848462000a9b565b979650505050505050565b816200083f576200083f8162000b95565b5050565b600080826001600160a01b031663313ce5676040518163ffffffff1660e01b815260040160206040518083038186803b1580156200088057600080fd5b505afa15801562000895573d6000803e3d6000fd5b505050506040513d601f19601f82011682018060405250810190620008bb91906200101a565b60ff1690506000620008da60128362000baa60201b620015e51760201c565b600a0a670de0b6b3a764000002949350505050565b620009008183111561014c6200082e565b6200091d6b0de0b6b39983494c589c000082111561014d6200082e565b62000937670de0b6b3a7640000825b06156101616200082e565b6200094b670de0b6b3a7640000836200092c565b6200099a670de0b6b3a764000082046040602062000984670de0b6b3a764000087600854919004602080620015fb62000bc2821b17811c565b62000bc260201b620015fb17909392919060201c565b6008556040516001600160a01b038416907fd0e27a0d0c2cb09280fa5e4487315455b32afcdcf012dc35b6ef2a0e3c4d128090620009dc9085908590620010e9565b60405180910390a2505050565b620009fe64e8d4a5100082101560cb6200082e565b62000a1667016345785d8a000082111560ca6200082e565b62000a388160c0603f60085462000bc260201b620015fb17909392919060201c565b6008556040517fa9ba3ffe0b6c366b81232caab38605a0699ad5398d6cce76f91ee809e322dafc9062000a6d908390620010e0565b60405180910390a150565b600062000a888383600162000be7565b9392505050565b806200083f8162000bff565b600080856001600160a01b03166309b2760f866040518263ffffffff1660e01b815260040162000acc9190620010cb565b602060405180830381600087803b15801562000ae757600080fd5b505af115801562000afc573d6000803e3d6000fd5b505050506040513d601f19601f8201168201806040525081019062000b22919062000eaa565b604051633354e3e960e11b81529091506001600160a01b038716906366a9c7d29062000b57908490889088906004016200103d565b600060405180830381600087803b15801562000b7257600080fd5b505af115801562000b87573d6000803e3d6000fd5b509298975050505050505050565b62000ba7816210905360ea1b62000c8b565b50565b600062000bbc8383111560016200082e565b50900390565b600062000bd184848462000cec565b506001901b60001901811b1992909216911b1790565b600062000bf884841115836200082e565b5050900390565b60028151101562000c105762000ba7565b60008160008151811062000c2057fe5b602002602001015190506000600190505b825181101562000c8657600083828151811062000c4a57fe5b6020026020010151905062000c7b816001600160a01b0316846001600160a01b03161060656200082e60201b60201c565b915060010162000c31565b505050565b62461bcd60e51b600090815260206004526007602452600a808404818106603090810160081b958390069590950190829004918206850160101b01602363ffffff0060e086901c160160181b0190930160c81b60445260e882901c90606490fd5b62000cfd610100831060646200082e565b62000d366001821015801562000d2e575062000d2a60ff846101000362000d4760201b6200161e1760201c565b8211155b60646200082e565b62000c8683821c156101b46200082e565b80820390821102900390565b828054600181600116156101000203166002900490600052602060002090601f016020900481019282601f1062000d9657805160ff191683800117855562000dc6565b8280016001018555821562000dc6579182015b8281111562000dc657825182559160200191906001019062000da9565b5062000dd492915062000dd8565b5090565b5b8082111562000dd4576000815560010162000dd9565b80516200065a816200112a565b600082601f83011262000e0d578081fd5b81516001600160401b0381111562000e23578182fd5b602062000e39601f8301601f19168201620010f7565b9250818352848183860101111562000e5057600080fd5b60005b8281101562000e7057848101820151848201830152810162000e53565b8281111562000e825760008284860101525b50505092915050565b60006020828403121562000e9d578081fd5b815162000a88816200112a565b60006020828403121562000ebc578081fd5b5051919050565b60006020828403121562000ed5578081fd5b81516001600160401b038082111562000eec578283fd5b818401915061018080838703121562000f03578384fd5b62000f0e81620010f7565b905062000f1c868462000def565b815260208301518281111562000f30578485fd5b62000f3e8782860162000dfc565b60208301525060408301518281111562000f56578485fd5b62000f648782860162000dfc565b60408301525062000f79866060850162000def565b606082015262000f8d866080850162000def565b608082015262000fa18660a0850162000def565b60a082015260c083015160c082015260e083015160e082015261010080840151818301525061012080840151818301525061014062000fe38782860162000def565b90820152610160838101518381111562000ffb578586fd5b620010098882870162000dfc565b918301919091525095945050505050565b6000602082840312156200102c578081fd5b815160ff8116811462000a88578182fd5b60006060820185835260206060818501528186518084526080860191508288019350845b8181101562001089576200107685516200111e565b8352938301939183019160010162001061565b505084810360408601528551808252908201925081860190845b8181101562000b8757620010b883516200111e565b85529383019391830191600101620010a3565b6020810160038310620010da57fe5b91905290565b90815260200190565b918252602082015260400190565b6040518181016001600160401b03811182821017156200111657600080fd5b604052919050565b6001600160a01b031690565b6001600160a01b038116811462000ba757600080fd5b60805160a05160c05160e0516101005160601c6101205160601c6101405161016051610180516101a05160601c6101c05160601c6101e05160601c610200516102205161024051610260516102805160601c6102a05160601c6102c05160601c6102e05161495e62001300600039505080611841528061193952806119f05280611a915280611bed52508061190c5250806107f45250806107905280612d47525080610718528061081c5280610c4952806131c2528061334b5280613483528061358e528061370b52806138435250806107b252806109b45280610c0f528061318e52806132d05280613317528061340d528061344f528061355a528061369552806136d752806137cd528061380f5250806113e85280612a795280612b455280612d6d5280613143528061325c528061351052806136215250806109d852806110de5280611e295280611ec85280612a305280612afc5280612d0c52806131045280613206528061339952806134d152806135d252806137595250806111bc52508061094152508061181b5250806117f7525080610fc9525080610fa5525080610f55525080612757525080612799525080612778525061495e6000f3fe608060405234801561001057600080fd5b506004361061032b5760003560e01c80637ecebe00116101b2578063a457c2d7116100f9578063d505accf116100a2578063de82cd341161007c578063de82cd34146105e8578063ed24911d146105f0578063f174e241146105f8578063f5431aa8146106005761032b565b8063d505accf146105af578063d5c096c4146105c2578063dd62ed3e146105d55761032b565b8063b35056b8116100d3578063b35056b814610597578063b7b814fc1461059f578063d2946c2b146105a75761032b565b8063a457c2d714610569578063a9059cbb1461057c578063aaabadc51461058f5761032b565b8063893d20e81161015b57806395d89b411161013557806395d89b411461053b5780639d2c110c146105435780639f11080e146105565761032b565b8063893d20e8146105185780638d928af81461052057806390193b7c146105285761032b565b80638456cb591161018c5780638456cb59146104fd578063851c1bb31461050557806387ec6817146104675761032b565b80637ecebe00146104da5780638129fc1c146104ed57806382687a56146104f55761032b565b8063395093511161027657806355c676281161021f578063679aefce116101f9578063679aefce1461049e57806370a08231146104a657806374f3b009146104b95761032b565b806355c676281461045f5780636028bfd41461046757806363fe3b56146104885761032b565b80634de046d5116102505780634de046d51461043a57806354a844ba1461044f57806354fd4d50146104575761032b565b806339509351146104175780633f4ba83a1461042a5780634d64cd74146104325761032b565b80631dd746ea116102d85780633644e515116102b25780633644e515146103f257806338e9922e146103fa57806338fff2d01461040f5761032b565b80631dd746ea146103b557806323b872dd146103ca578063313ce567146103dd5761032b565b806316b8d6ff1161030957806316b8d6ff1461038e57806318160ddd146103965780631c0de0511461039e5761032b565b806301ec954a1461033057806306fdde0314610359578063095ea7b31461036e575b600080fd5b61034361033e366004614336565b610608565b6040516103509190614625565b60405180910390f35b610361610668565b6040516103509190614869565b61038161037c366004614124565b6106ff565b6040516103509190614602565b610343610716565b61034361073a565b6103a6610740565b6040516103509392919061460d565b6103bd610769565b60405161035091906145ca565b6103816103d8366004614074565b610877565b6103e56108ed565b60405161035091906148a3565b6103436108f6565b61040d6104083660046143f3565b610905565b005b61034361093f565b610381610425366004614124565b610963565b61040d61099e565b6103436109b2565b6104426109d6565b60405161035091906145b6565b61040d6109fa565b610361610a4e565b610343610aaf565b61047a610475366004614253565b610ac2565b60405161035092919061487c565b610490610ae0565b604051610350929190614895565b610343610b1e565b6103436104b4366004614004565b610cb3565b6104cc6104c7366004614253565b610cd2565b6040516103509291906145dd565b6103436104e8366004614004565b610d94565b61040d610d9f565b610343610f3a565b61040d610f3f565b6103436105133660046142f6565b610f51565b610442610fa3565b610442610fc7565b610343610536366004614004565b610feb565b610361611006565b6103436105513660046143a7565b611067565b61040d61056436600461440b565b6110a0565b610381610577366004614124565b61110a565b61038161058a366004614124565b611148565b610442611155565b61038161115f565b61040d611170565b6104426111ba565b61040d6105bd3660046140b4565b6111de565b6104cc6105d0366004614253565b61125f565b6103436105e336600461403c565b6112f6565b610343611333565b6103436113dc565b6104426113e6565b61034361140a565b6000846080015161063561061a610fc7565b6001600160a01b0316336001600160a01b03161460cd61162a565b61064a61064061093f565b82146101f461162a565b610652611638565b61065e8686868661164b565b9695505050505050565b60038054604080516020601f60026000196101006001881615020190951694909404938401819004810282018101909252828152606093909290918301828280156106f45780601f106106c9576101008083540402835291602001916106f4565b820191906000526020600020905b8154815290600101906020018083116106d757829003601f168201915b505050505090505b90565b600061070c338484611770565b5060015b92915050565b7f000000000000000000000000000000000000000000000000000000000000000090565b60025490565b600080600061074d6117d8565b1592506107586117f5565b9150610762611819565b9050909192565b604080516003808252608082019092526060918291906020820183803683370190505090507f0000000000000000000000000000000000000000000000000000000000000000817f0000000000000000000000000000000000000000000000000000000000000000815181106107db57fe5b6020026020010181815250506108196107f261183d565b7f000000000000000000000000000000000000000000000000000000000000000090611ca3565b817f00000000000000000000000000000000000000000000000000000000000000008151811061084557fe5b602002602001018181525050670de0b6b3a76400008160008151811061086757fe5b6020908102919091010152905090565b60008061088485336112f6565b90506108a8336001600160a01b03871614806108a05750838210155b61019e61162a565b6108b3858585611cdb565b336001600160a01b038616148015906108ce57506000198114155b156108e0576108e08533858403611770565b60019150505b9392505050565b60055460ff1690565b60006109006113dc565b905090565b61090d611dbb565b600080610918610ae0565b915091506109316109298383611e04565b61014f61162a565b61093a83611f0b565b505050565b7f000000000000000000000000000000000000000000000000000000000000000090565b3360008181526001602090815260408083206001600160a01b0387168452909152812054909161070c9185906109999086611f83565b611770565b6109a6611dbb565b6109b06000611f95565b565b7f000000000000000000000000000000000000000000000000000000000000000090565b7f000000000000000000000000000000000000000000000000000000000000000090565b610a02611dbb565b610a0a612026565b610a14600161203a565b7feff3d4d215b42bf0960be9c6d5e05c22cba4df6627a3a523e2acee733b5854c86001604051610a449190614602565b60405180910390a1565b60098054604080516020601f60026000196101006001881615020190951694909404938401819004810282018101909252828152606093909290918301828280156106f45780601f106106c9576101008083540402835291602001916106f4565b6008546000906109009060c0603f61207c565b60006060610ad488878561208b6120a2565b97509795505050505050565b6008546000908190670de0b6b3a7640000610afd8260208061207c565b029250670de0b6b3a7640000610b16826040602061207c565b029150509091565b600080610b2961093f565b90506060610b35610fc7565b6001600160a01b031663f94d4668836040518263ffffffff1660e01b8152600401610b609190614625565b60006040518083038186803b158015610b7857600080fd5b505afa158015610b8c573d6000803e3d6000fd5b505050506040513d6000823e601f3d908101601f19168201604052610bb4919081019061414f565b50915050610bc981610bc4610769565b612209565b600080610bd4610ae0565b91509150610be0613da5565b6040518060600160405280610bf3610aaf565b81526020018481526020018381525090506000610c7f610c46867f000000000000000000000000000000000000000000000000000000000000000081518110610c3857fe5b602002602001015184612272565b867f000000000000000000000000000000000000000000000000000000000000000081518110610c7257fe5b60200260200101516122d3565b9050610ca8610ca186600081518110610c9457fe5b60200260200101516122df565b82906122f3565b965050505050505090565b6001600160a01b0381166000908152602081905260409020545b919050565b60608088610ce161061a610fc7565b610cec61064061093f565b6000610cf78561234a565b15610d1f57610d04612379565b610d1688610d1061073a565b8761238c565b94509050610d37565b610d27611638565b610d328a898761208b565b945090505b610d418a82612482565b835167ffffffffffffffff81118015610d5957600080fd5b50604051908082528060200260200182016040528015610d83578160200160208202803683370190505b509250505097509795505050505050565b600061071082610feb565b6000610da961093f565b90506060610db5610fc7565b6001600160a01b031663f94d4668836040518263ffffffff1660e01b8152600401610de09190614625565b60006040518083038186803b158015610df857600080fd5b505afa158015610e0c573d6000803e3d6000fd5b505050506040513d6000823e601f3d908101601f19168201604052610e34919081019061414f565b505060408051600380825260808201909252919250606091906020820183803683370190505090506dffffffffffffffffffffffffffff81600081518110610e7857fe5b602002602001018181525050610e8c613dc6565b6040518060800160405280610ea0856106fc565b8152602001838152602001604051806020016040528060008152508152602001600015158152509050610ed1610fc7565b6001600160a01b031663b95cac28853030856040518563ffffffff1660e01b8152600401610f02949392919061464d565b600060405180830381600087803b158015610f1c57600080fd5b505af1158015610f30573d6000803e3d6000fd5b5050505050505050565b600090565b610f47611dbb565b6109b06001611f95565b60007f000000000000000000000000000000000000000000000000000000000000000082604051602001610f86929190614540565b604051602081830303815290604052805190602001209050919050565b7f000000000000000000000000000000000000000000000000000000000000000090565b7f000000000000000000000000000000000000000000000000000000000000000090565b6001600160a01b031660009081526006602052604090205490565b60048054604080516020601f60026000196101006001881615020190951694909404938401819004810282018101909252828152606093909290918301828280156106f45780601f106106c9576101008083540402835291602001916106f4565b6000836080015161107961061a610fc7565b61108461064061093f565b61108c611638565b61109785858561248c565b95945050505050565b6110a8611dbb565b6000806110b3610ae0565b915091506110c46109298383611e04565b6110d96110d18585611e04565b61015761162a565b6111047f00000000000000000000000000000000000000000000000000000000000000008585612499565b50505050565b60008061111733856112f6565b90508083106111315761112c33856000611770565b61113e565b61113e3385858403611770565b5060019392505050565b600061070c338484611cdb565b600061090061256f565b6008546000906109009060ff6125e9565b611178611dbb565b611180612379565b61118a600061203a565b7feff3d4d215b42bf0960be9c6d5e05c22cba4df6627a3a523e2acee733b5854c86000604051610a449190614602565b7f000000000000000000000000000000000000000000000000000000000000000090565b60007f6e71edae12b1b97f4d1f60370fef10105fa2faae0126114a169c64845d6126c988888861120d8c610feb565b896040516020016112239695949392919061473a565b604051602081830303815290604052805190602001209050611254888261124b8787876125f0565b886101f861262f565b610f30888888611770565b6060808861126e61061a610fc7565b61127961064061093f565b6000611283611638565b61128b61073a565b6112dd5761129a8a8a87612686565b945090506112b36112a9610f3a565b82101560cc61162a565b6112c560006112c0610f3a565b61271e565b6112d8896112d1610f3a565b830361271e565b610d41565b6112e88a898761208b565b94509050610d41898261271e565b6000611300610fc7565b6001600160a01b0316826001600160a01b031614156113225750600019610710565b61132c8383612728565b9050610710565b6000806000611340610fc7565b6001600160a01b031663b05f8e4861135661093f565b306040518363ffffffff1660e01b8152600401611374929190614820565b60806040518083038186803b15801561138c57600080fd5b505afa1580156113a0573d6000803e3d6000fd5b505050506040513d601f19601f820116820180604052508101906113c4919061442c565b5050915091506113d58183016122df565b9250505090565b6000610900612753565b7f000000000000000000000000000000000000000000000000000000000000000090565b600061090061183d565b600061141f836115d7565b6060835160010167ffffffffffffffff8111801561143c57600080fd5b50604051908082528060200260200182016040528015611466578160200160208202803683370190505b509050308160008151811061147757fe5b60200260200101906001600160a01b031690816001600160a01b03168152505060005b84518110156114e6578481815181106114af57fe5b60200260200101518282600101815181106114c657fe5b6001600160a01b039092166020928302919091019091015260010161149a565b506060835160010167ffffffffffffffff8111801561150457600080fd5b5060405190808252806020026020018201604052801561152e578160200160208202803683370190505b50905060008160008151811061154057fe5b60200260200101906001600160a01b031690816001600160a01b03168152505060005b84518110156115af5784818151811061157857fe5b602002602001015182826001018151811061158f57fe5b6001600160a01b0390921660209283029190910190910152600101611563565b506115bc878784846127f0565b925050505b949350505050565b60006108e6838360016128f9565b806115e18161290f565b5050565b60006115f583831115600161162a565b50900390565b6000611608848484612988565b506001901b60001901811b1992909216911b1790565b80820390821102900390565b816115e1576115e1816129ce565b6109b06116436117d8565b61019261162a565b60006116676003841080156116605750600383105b606461162a565b6060611671610769565b905061167d8582612209565b600080611688610ae0565b91509150611694613da5565b60405180606001604052806116a7610aaf565b81526020810185905260400183905290506000895160018111156116c757fe5b141561172b576116ee89606001518589815181106116e157fe5b60200260200101516129f8565b60608a015260006117008a8a84612a04565b905061171f8186898151811061171257fe5b6020026020010151612acb565b955050505050506115c1565b61173f89606001518588815181106116e157fe5b60608a015260006117518a8a84612ad7565b905061171f81868a8151811061176357fe5b6020026020010151612b8c565b6001600160a01b0380841660008181526001602090815260408083209487168084529490915290819020849055517f8c5be1e5ebec7d5bd14f71427d1e84f3dd0314c0f7b2291e5b200ac8c7c3b925906117cb908590614625565b60405180910390a3505050565b60006117e2611819565b42118061090057505060075460ff161590565b7f000000000000000000000000000000000000000000000000000000000000000090565b7f000000000000000000000000000000000000000000000000000000000000000090565b60007f00000000000000000000000000000000000000000000000000000000000000006001600160a01b03166318160ddd6040518163ffffffff1660e01b815260040160206040518083038186803b15801561189857600080fd5b505afa1580156118ac573d6000803e3d6000fd5b505050506040513d601f19601f820116820180604052508101906118d0919061423b565b6118dc575060006106fc565b6040517f70a082310000000000000000000000000000000000000000000000000000000081526001600160a01b037f000000000000000000000000000000000000000000000000000000000000000016906370a0823190611961907f0000000000000000000000000000000000000000000000000000000000000000906004016145b6565b60206040518083038186803b15801561197957600080fd5b505afa9250505080156119a9575060408051601f3d908101601f191682019092526119a69181019061423b565b60015b6119ec573d8080156119d7576040519150601f19603f3d011682016040523d82523d6000602084013e6119dc565b606091505b506119e681612b98565b506106fc565b60007f00000000000000000000000000000000000000000000000000000000000000006001600160a01b031663a8c62e766040518163ffffffff1660e01b815260040160206040518083038186803b158015611a4757600080fd5b505afa158015611a5b573d6000803e3d6000fd5b505050506040513d601f19601f82011682018060405250810190611a7f9190614020565b90506001600160a01b038116611b3f577f00000000000000000000000000000000000000000000000000000000000000006001600160a01b03166318160ddd6040518163ffffffff1660e01b815260040160206040518083038186803b158015611ae857600080fd5b505afa158015611afc573d6000803e3d6000fd5b505050506040513d601f19601f82011682018060405250810190611b20919061423b565b82670de0b6b3a76400000281611b3257fe5b04600101925050506106fc565b806001600160a01b03166345d01e4a6040518163ffffffff1660e01b815260040160206040518083038186803b158015611b7857600080fd5b505afa925050508015611ba8575060408051601f3d908101601f19168201909252611ba59181019061423b565b60015b611beb573d808015611bd6576040519150601f19603f3d011682016040523d82523d6000602084013e611bdb565b606091505b50611be581612b98565b50611c9e565b7f00000000000000000000000000000000000000000000000000000000000000006001600160a01b03166318160ddd6040518163ffffffff1660e01b815260040160206040518083038186803b158015611c4457600080fd5b505afa158015611c58573d6000803e3d6000fd5b505050506040513d601f19601f82011682018060405250810190611c7c919061423b565b818401670de0b6b3a76400000281611c9057fe5b0460010193505050506106fc565b505090565b6000828202611cc7841580611cc0575083858381611cbd57fe5b04145b600361162a565b670de0b6b3a7640000815b04949350505050565b611cf26001600160a01b038416151561019861162a565b611d096001600160a01b038316151561019961162a565b611d1483838361093a565b6001600160a01b038316600090815260208190526040902054611d3a90826101a06128f9565b6001600160a01b038085166000908152602081905260408082209390935590841681522054611d699082611f83565b6001600160a01b0380841660008181526020819052604090819020939093559151908516907fddf252ad1be2c89b69c2b068fc378daa952ba7f163c4a11628f55a4df523b3ef906117cb908590614625565b6000611dea6000357fffffffff0000000000000000000000000000000000000000000000000000000016610f51565b9050611e01611df98233612c1f565b61019161162a565b50565b6000806000611e11610fc7565b6001600160a01b031663b05f8e48611e2761093f565b7f00000000000000000000000000000000000000000000000000000000000000006040518363ffffffff1660e01b8152600401611e65929190614820565b60806040518083038186803b158015611e7d57600080fd5b505afa158015611e91573d6000803e3d6000fd5b505050506040513d601f19601f82011682018060405250810190611eb5919061442c565b5050915091506000611ef1828401611eec7f0000000000000000000000000000000000000000000000000000000000000000612d08565b6129f8565b905085811015801561065e57509390931115949350505050565b611f1e64e8d4a5100082101560cb61162a565b611f3467016345785d8a000082111560ca61162a565b600854611f45908260c0603f6115fb565b6008556040517fa9ba3ffe0b6c366b81232caab38605a0699ad5398d6cce76f91ee809e322dafc90611f78908390614625565b60405180910390a150565b60008282016108e6848210158361162a565b8015611fb557611fb0611fa66117f5565b421061019361162a565b611fca565b611fca611fc0611819565b42106101a961162a565b600780547fffffffffffffffffffffffffffffffffffffffffffffffffffffffffffffff00168215151790556040517f9e3a5e37224532dea67b89face185703738a228a6e8a23dee546960180d3be6490611f78908390614602565b6109b061203161115f565b156101b561162a565b600854612049908260ff612de2565b6008556040517feff3d4d215b42bf0960be9c6d5e05c22cba4df6627a3a523e2acee733b5854c890611f78908390614602565b6001901b6000190191901c1690565b6000606061209a6103e66129ce565b935093915050565b333014612191576000306001600160a01b03166000366040516120c6929190614570565b6000604051808303816000865af19150503d8060008114612103576040519150601f19603f3d011682016040523d82523d6000602084013e612108565b606091505b50509050806000811461211757fe5b60046000803e6000517fffffffff00000000000000000000000000000000000000000000000000000000167f43adbafb000000000000000000000000000000000000000000000000000000008114612173573d6000803e3d6000fd5b506020600460003e604060205260243d03602460403e601c3d016000f35b600060606121a48686868663ffffffff16565b8051601f1982018390526343adbafb7fffffffffffffffffffffffffffffffffffffffffffffffffffffffffffffffc083015291935091506020027fffffffffffffffffffffffffffffffffffffffffffffffffffffffffffffffdc82016044820181fd5b81518151612218908290612df1565b60005b818110156111045761225384828151811061223257fe5b602002602001015184838151811061224657fe5b6020026020010151611ca3565b84828151811061225f57fe5b602090810291909101015260010161221b565b600081602001518310156122ab57815160208301516000916122979186900390611ca3565b90506122a384826115e5565b915050610710565b816040015183116122bd575081610710565b8151604083015160009161229791860390611ca3565b60006108e68383611f83565b6000610710826122ed61073a565b906115e5565b6000612302821515600461162a565b670de0b6b3a7640000830261233484158061232d5750670de0b6b3a764000085838161232a57fe5b04145b600561162a565b6001836001830304018115150291505092915050565b6000808251118015610710575060ff80168280602001905181019061236f919061446c565b60ff161492915050565b6109b061238461115f565b6101b661162a565b60006060600061239b84612dfe565b90506060865167ffffffffffffffff811180156123b757600080fd5b506040519080825280602002602001820160405280156123e1578160200160208202803683370190505b50905060006123ee610f3a565b90506000612401898381518110610c9457fe5b9050600061240f8583612e14565b905060005b8a51811015612471578381141561242c576000612452565b612452828c838151811061243c57fe5b6020026020010151611ca390919063ffffffff16565b85828151811061245e57fe5b6020908102919091010152600101612414565b509399929850919650505050505050565b6115e18282612e54565b60006108e66103e66129ce565b6124a88183111561014c61162a565b6124c36b0de0b6b39983494c589c000082111561014d61162a565b6124db670de0b6b3a7640000825b061561016161162a565b6124ed670de0b6b3a7640000836124d1565b612522670de0b6b3a764000082046040602061251a670de0b6b3a7640000876008549190046020806115fb565b9291906115fb565b6008556040516001600160a01b038416907fd0e27a0d0c2cb09280fa5e4487315455b32afcdcf012dc35b6ef2a0e3c4d1280906125629085908590614895565b60405180910390a2505050565b6000612579610fc7565b6001600160a01b031663aaabadc56040518163ffffffff1660e01b815260040160206040518083038186803b1580156125b157600080fd5b505afa1580156125c5573d6000803e3d6000fd5b505050506040513d601f19601f820116820180604052508101906109009190614020565b1c60011690565b60408051604180825260808201909252606091829190602082018180368337019050509050836020820152826040820152846060820153949350505050565b600061263a85612f20565b905061265061264a878387612f3c565b8361162a565b61265f428410156101b861162a565b5050506001600160a01b039092166000908152600660205260409020805460010190555050565b600060606126a16001600160a01b038616301461015661162a565b6126b86001600160a01b038516301461015661162a565b604080516003808252608082019092526dffffffffffffffffffffffffffff91606091906020820183803683370190505090506dffffffffffffffffffffffffffff8160008151811061270757fe5b602090810291909101015290969095509350505050565b6115e18282612feb565b6001600160a01b03918216600090815260016020908152604080832093909416825291909152205490565b60007f00000000000000000000000000000000000000000000000000000000000000007f00000000000000000000000000000000000000000000000000000000000000007f00000000000000000000000000000000000000000000000000000000000000006127c061307e565b306040516020016127d59594939291906147f4565b60405160208183030381529060405280519060200120905090565b600080856001600160a01b03166309b2760f866040518263ffffffff1660e01b815260040161281f9190614855565b602060405180830381600087803b15801561283957600080fd5b505af115801561284d573d6000803e3d6000fd5b505050506040513d601f19601f82011682018060405250810190612871919061423b565b6040517f66a9c7d20000000000000000000000000000000000000000000000000000000081529091506001600160a01b038716906366a9c7d2906128bd9084908890889060040161476e565b600060405180830381600087803b1580156128d757600080fd5b505af11580156128eb573d6000803e3d6000fd5b509298975050505050505050565b6000612908848411158361162a565b5050900390565b60028151101561291e57611e01565b60008160008151811061292d57fe5b602002602001015190506000600190505b825181101561093a57600083828151811061295557fe5b6020026020010151905061297e816001600160a01b0316846001600160a01b031610606561162a565b915060010161293e565b6129976101008310606461162a565b6129bf6001821015801561166057506129b560ff846101000361161e565b821115606461162a565b61093a83821c156101b461162a565b611e01817f42414c0000000000000000000000000000000000000000000000000000000000613082565b60006108e68383611ca3565b60208301516000906001600160a01b0316301415612a2e57612a278484846130fd565b90506108e6565b7f00000000000000000000000000000000000000000000000000000000000000006001600160a01b031684602001516001600160a01b03161415612a7757612a27848484613255565b7f00000000000000000000000000000000000000000000000000000000000000006001600160a01b031684602001516001600160a01b03161415612ac057612a27848484613392565b6108e66101356129ce565b60006108e68383612e14565b60408301516000906001600160a01b0316301415612afa57612a278484846134ca565b7f00000000000000000000000000000000000000000000000000000000000000006001600160a01b031684604001516001600160a01b03161415612b4357612a2784848461361a565b7f00000000000000000000000000000000000000000000000000000000000000006001600160a01b031684604001516001600160a01b03161415612ac057612a27848484613752565b60006108e683836122f3565b805160208201517fffffffff00000000000000000000000000000000000000000000000000000000167f43adbafb0000000000000000000000000000000000000000000000000000000081147ffa61cc1200000000000000000000000000000000000000000000000000000000821417612c13578160208401fd5b506115e16101656129ce565b600073ba1ba1ba1ba1ba1ba1ba1ba1ba1ba1ba1ba1ba1b612c3e610fa3565b6001600160a01b031614158015612c595750612c598361388a565b15612c8157612c66610fa3565b6001600160a01b0316336001600160a01b0316149050610710565b612c8961256f565b6001600160a01b0316639be2a8848484306040518463ffffffff1660e01b8152600401612cb89392919061462e565b60206040518083038186803b158015612cd057600080fd5b505afa158015612ce4573d6000803e3d6000fd5b505050506040513d601f19601f8201168201806040525081019061132c919061421b565b60007f00000000000000000000000000000000000000000000000000000000000000006001600160a01b0316826001600160a01b03161415612d6b57507f0000000000000000000000000000000000000000000000000000000000000000610ccd565b7f00000000000000000000000000000000000000000000000000000000000000006001600160a01b0316826001600160a01b03161415612db757612db06107f261183d565b9050610ccd565b6001600160a01b038216301415612dd75750670de0b6b3a7640000610ccd565b610ccd6101356129ce565b6001811b1992909216911b1790565b6115e1818314606761162a565b6000818060200190518101906108e69190614488565b6000612e23821515600461162a565b670de0b6b3a76400008302612e4b84158061232d5750670de0b6b3a764000085838161232a57fe5b828181611cd257fe5b612e6b6001600160a01b038316151561019b61162a565b612e778260008361093a565b6001600160a01b038216600090815260208190526040902054612e9d90826101b26128f9565b6001600160a01b038316600090815260208190526040902055612ed0612ecb82612ec561073a565b906115c9565b6138ee565b60006001600160a01b0316826001600160a01b03167fddf252ad1be2c89b69c2b068fc378daa952ba7f163c4a11628f55a4df523b3ef83604051612f149190614625565b60405180910390a35050565b6000612f2a612753565b82604051602001610f86929190614580565b6000612f4e82516041146101b961162a565b60208281015160408085015160608601518251600080825295019283905292939092811a91600190612f87908990859088908890614837565b6020604051602081039080840390855afa158015612fa9573d6000803e3d6000fd5b5050604051601f1901519150506001600160a01b03811615801590612fdf5750876001600160a01b0316816001600160a01b0316145b98975050505050505050565b612ff76000838361093a565b61300c612ecb8261300661073a565b90611f83565b6001600160a01b03821660009081526020819052604090205461302f9082611f83565b6001600160a01b0383166000818152602081905260408082209390935591519091907fddf252ad1be2c89b69c2b068fc378daa952ba7f163c4a11628f55a4df523b3ef90612f14908590614625565b4690565b7f08c379a000000000000000000000000000000000000000000000000000000000600090815260206004526007602452600a808404818106603090810160081b958390069590950190829004918206850160101b01602363ffffff0060e086901c160160181b0190930160c81b60445260e882901c90606490fd5b60006131837f00000000000000000000000000000000000000000000000000000000000000006001600160a01b031685604001516001600160a01b0316148061317b57507f00000000000000000000000000000000000000000000000000000000000000006001600160a01b031685604001516001600160a01b0316145b61013561162a565b6115c18460600151847f0000000000000000000000000000000000000000000000000000000000000000815181106131b757fe5b6020026020010151857f0000000000000000000000000000000000000000000000000000000000000000815181106131eb57fe5b602002602001015161320387600081518110610c9457fe5b867f00000000000000000000000000000000000000000000000000000000000000006001600160a01b03168a604001516001600160a01b031614613249576138f361324d565b6139515b63ffffffff16565b60006132b17f00000000000000000000000000000000000000000000000000000000000000006001600160a01b031685604001516001600160a01b0316148061317b575060408501516001600160a01b0316301461013561162a565b60408401516001600160a01b0316301461330c576133078460600151847f0000000000000000000000000000000000000000000000000000000000000000815181106132f957fe5b6020026020010151846139ba565b6115c1565b6115c18460600151847f00000000000000000000000000000000000000000000000000000000000000008151811061334057fe5b6020026020010151857f00000000000000000000000000000000000000000000000000000000000000008151811061337457fe5b602002602001015161338c87600081518110610c9457fe5b866139ea565b60006133ee7f00000000000000000000000000000000000000000000000000000000000000006001600160a01b031685604001516001600160a01b0316148061317b575060408501516001600160a01b0316301461013561162a565b60408401516001600160a01b03163014613444576133078460600151847f00000000000000000000000000000000000000000000000000000000000000008151811061343657fe5b602002602001015184613a50565b6115c18460600151847f00000000000000000000000000000000000000000000000000000000000000008151811061347857fe5b6020026020010151857f0000000000000000000000000000000000000000000000000000000000000000815181106134ac57fe5b60200260200101516134c487600081518110610c9457fe5b86613a90565b600061354f7f00000000000000000000000000000000000000000000000000000000000000006001600160a01b031685602001516001600160a01b0316148061317b57507f00000000000000000000000000000000000000000000000000000000000000006001600160a01b031685602001516001600160a01b03161461013561162a565b6115c18460600151847f00000000000000000000000000000000000000000000000000000000000000008151811061358357fe5b6020026020010151857f0000000000000000000000000000000000000000000000000000000000000000815181106135b757fe5b60200260200101516135cf87600081518110610c9457fe5b867f00000000000000000000000000000000000000000000000000000000000000006001600160a01b03168a602001516001600160a01b03161461361557613af761324d565b613b4e565b60006136767f00000000000000000000000000000000000000000000000000000000000000006001600160a01b031685602001516001600160a01b0316148061317b575060208501516001600160a01b0316301461013561162a565b60208401516001600160a01b031630146136cc576133078460600151847f0000000000000000000000000000000000000000000000000000000000000000815181106136be57fe5b602002602001015184613bb8565b6115c18460600151847f00000000000000000000000000000000000000000000000000000000000000008151811061370057fe5b6020026020010151857f00000000000000000000000000000000000000000000000000000000000000008151811061373457fe5b602002602001015161374c87600081518110610c9457fe5b86613be2565b60006137ae7f00000000000000000000000000000000000000000000000000000000000000006001600160a01b031685602001516001600160a01b0316148061317b575060208501516001600160a01b0316301461013561162a565b60208401516001600160a01b03163014613804576133078460600151847f0000000000000000000000000000000000000000000000000000000000000000815181106137f657fe5b602002602001015184613c31565b6115c18460600151847f00000000000000000000000000000000000000000000000000000000000000008151811061383857fe5b6020026020010151857f00000000000000000000000000000000000000000000000000000000000000008151811061386c57fe5b602002602001015161388487600081518110610c9457fe5b86613c66565b60006138b57f9f11080e00000000000000000000000000000000000000000000000000000000610f51565b82148061071057506138e67f38e9922e00000000000000000000000000000000000000000000000000000000610f51565b909114919050565b600255565b6000806139008684612272565b9050600061390e82876122d3565b9050600061391c868a6115e5565b90506000613937846122ed6139318587613cba565b8a613cd4565b905061394388826115e5565b9a9950505050505050505050565b60008061395e8684612272565b9050600061396c82876122d3565b9050600061398361397d838b613cba565b87613cf5565b9050600061399184836115e5565b9050600061399f8288613d15565b90506139ab8a826115e5565b9b9a5050505050505050505050565b6000806139c78484612272565b905060006139de6139d88688611f83565b85612272565b905061065e81836115e5565b600082613a02576139fb8683612272565b9050611097565b6000613a0e8684612272565b90506000613a1f6139d8888a611f83565b90506000613a2d82846115e5565b90506000613a3b84896122d3565b9050613943613a4a8884613cba565b82613cf5565b600080613a5d8484612272565b90506000613a6b82876115e5565b90506000613a798286613d15565b9050613a8586826115e5565b979650505050505050565b600082613a9e575084611097565b6000613aaa8684612272565b90506000613ab882876122d3565b90506000613ac6878a611f83565b90506000613ad484836122d3565b90506000613aeb613ae58984613cba565b85613cf5565b90506139ab81896115e5565b600082613b05575084611097565b6000613b118684612272565b90506000613b1f82876122d3565b90506000613b2d868a611f83565b90506000613b42846122ed6139318587613cba565b905061394381896115e5565b600082613b5f576139fb8683613d15565b6000613b6b8684612272565b90506000613b7982876122d3565b90506000613b90613b8a838b613cba565b87613cd4565b90506000613b9e8483611f83565b90506000613bac8288613d15565b90506139ab818b6115e5565b600080613bc58484612272565b90506000613bd66139d886886115e5565b905061065e82826115e5565b600080613bef8684612272565b90506000613c006139d8888a6115e5565b90506000613c0e83836115e5565b90506000613c1c84896122d3565b9050613943613c2b8884613cba565b82613cd4565b600080613c3e8484612272565b90506000613c4c8287611f83565b90506000613c5a8286613d15565b9050613a8581876115e5565b600080613c738684612272565b90506000613c8182876122d3565b90506000613c8f878a6115e5565b90506000613c9d84836122d3565b90506000613cae613ae58984613cba565b90506139ab88826115e5565b60008282026108e6841580611cc0575083858381611cbd57fe5b6000613ce3821515600461162a565b50811515600019909201046001010290565b6000613d04821515600461162a565b818381613d0d57fe5b049392505050565b60008160200151831015613d5e57815161132c90613d3c90670de0b6b3a764000090611f83565b60208401518451613d5891613d519190611ca3565b8690611f83565b90612e14565b81604001518311613d70575081610710565b815161132c90613d8990670de0b6b3a7640000906115e5565b60408401518451613d5891613d9e9190611ca3565b86906115e5565b60405180606001604052806000815260200160008152602001600081525090565b60405180608001604052806060815260200160608152602001606081526020016000151581525090565b803561071081614904565b600082601f830112613e0b578081fd5b8135613e1e613e19826148d8565b6148b1565b818152915060208083019084810181840286018201871015613e3f57600080fd5b60005b84811015613e5e57813584529282019290820190600101613e42565b505050505092915050565b600082601f830112613e79578081fd5b8151613e87613e19826148d8565b818152915060208083019084810181840286018201871015613ea857600080fd5b60005b84811015613e5e57815184529282019290820190600101613eab565b600082601f830112613ed7578081fd5b813567ffffffffffffffff811115613eed578182fd5b613f006020601f19601f840116016148b1565b9150808252836020828501011115613f1757600080fd5b8060208401602084013760009082016020015292915050565b80356002811061071057600080fd5b6000610120808385031215613f52578182fd5b613f5b816148b1565b915050613f688383613f30565b8152613f778360208401613df0565b6020820152613f898360408401613df0565b6040820152606082013560608201526080820135608082015260a082013560a0820152613fb98360c08401613df0565b60c0820152613fcb8360e08401613df0565b60e08201526101008083013567ffffffffffffffff811115613fec57600080fd5b613ff885828601613ec7565b82840152505092915050565b600060208284031215614015578081fd5b81356108e681614904565b600060208284031215614031578081fd5b81516108e681614904565b6000806040838503121561404e578081fd5b823561405981614904565b9150602083013561406981614904565b809150509250929050565b600080600060608486031215614088578081fd5b833561409381614904565b925060208401356140a381614904565b929592945050506040919091013590565b600080600080600080600060e0888a0312156140ce578283fd5b87356140d981614904565b965060208801356140e981614904565b95506040880135945060608801359350608088013561410781614919565b9699959850939692959460a0840135945060c09093013592915050565b60008060408385031215614136578182fd5b823561414181614904565b946020939093013593505050565b600080600060608486031215614163578081fd5b835167ffffffffffffffff8082111561417a578283fd5b818601915086601f83011261418d578283fd5b815161419b613e19826148d8565b80828252602080830192508086018b8283870289010111156141bb578788fd5b8796505b848710156141e65780516141d281614904565b8452600196909601959281019281016141bf565b5089015190975093505050808211156141fd578283fd5b5061420a86828701613e69565b925050604084015190509250925092565b60006020828403121561422c578081fd5b815180151581146108e6578182fd5b60006020828403121561424c578081fd5b5051919050565b600080600080600080600060e0888a03121561426d578081fd5b87359650602088013561427f81614904565b9550604088013561428f81614904565b9450606088013567ffffffffffffffff808211156142ab578283fd5b6142b78b838c01613dfb565b955060808a0135945060a08a0135935060c08a01359150808211156142da578283fd5b506142e78a828b01613ec7565b91505092959891949750929550565b600060208284031215614307578081fd5b81357fffffffff00000000000000000000000000000000000000000000000000000000811681146108e6578182fd5b6000806000806080858703121561434b578182fd5b843567ffffffffffffffff80821115614362578384fd5b61436e88838901613f3f565b95506020870135915080821115614383578384fd5b5061439087828801613dfb565b949794965050505060408301359260600135919050565b6000806000606084860312156143bb578081fd5b833567ffffffffffffffff8111156143d1578182fd5b6143dd86828701613f3f565b9660208601359650604090950135949350505050565b600060208284031215614404578081fd5b5035919050565b6000806040838503121561441d578182fd5b50508035926020909101359150565b60008060008060808587031215614441578182fd5b845193506020850151925060408501519150606085015161446181614904565b939692955090935050565b60006020828403121561447d578081fd5b81516108e681614919565b6000806040838503121561449a578182fd5b82516144a581614919565b6020939093015192949293505050565b6000815180845260208085019450808401835b838110156144e4578151875295820195908201906001016144c8565b509495945050505050565b15159052565b60008151808452815b8181101561451a576020818501810151868301820152016144fe565b8181111561452b5782602083870101525b50601f01601f19169290920160200192915050565b9182527fffffffff0000000000000000000000000000000000000000000000000000000016602082015260240190565b6000828483379101908152919050565b7f190100000000000000000000000000000000000000000000000000000000000081526002810192909252602282015260420190565b6001600160a01b0391909116815260200190565b6000602082526108e660208301846144b5565b6000604082526145f060408301856144b5565b828103602084015261109781856144b5565b901515815260200190565b92151583526020830191909152604082015260600190565b90815260200190565b9283526001600160a01b03918216602084015216604082015260600190565b600085825260206001600160a01b038087168285015280861660408501525060806060840152610100830184516080808601528181518084526101208701915084830193508592505b808310156146be576146a884516148f8565b8252928401926001929092019190840190614696565b508387015193507fffffffffffffffffffffffffffffffffffffffffffffffffffffffffffffff809250828682030160a08701526146fc81856144b5565b935050506040850151818584030160c086015261471983826144f5565b92505050606084015161472f60e08501826144ef565b509695505050505050565b9586526001600160a01b0394851660208701529290931660408501526060840152608083019190915260a082015260c00190565b60006060820185835260206060818501528186518084526080860191508288019350845b818110156147b6576147a485516148f8565b83529383019391830191600101614792565b505084810360408601528551808252908201925081860190845b818110156128eb576147e283516148f8565b855293830193918301916001016147d0565b9485526020850193909352604084019190915260608301526001600160a01b0316608082015260a00190565b9182526001600160a01b0316602082015260400190565b93845260ff9290921660208401526040830152606082015260800190565b602081016003831061486357fe5b91905290565b6000602082526108e660208301846144f5565b6000838252604060208301526115c160408301846144b5565b918252602082015260400190565b60ff91909116815260200190565b60405181810167ffffffffffffffff811182821017156148d057600080fd5b604052919050565b600067ffffffffffffffff8211156148ee578081fd5b5060209081020190565b6001600160a01b031690565b6001600160a01b0381168114611e0157600080fd5b60ff81168114611e0157600080fdfea26469706673582212205e8e8944e3df516e7c97fef36db3030a3434c7eda0ec9040f4513f5d09fc520b64736f6c63430007010033",
  "linkReferences": {},
  "deployedLinkReferences": {}
}