{
  "_format": "hh-sol-artifact-1",
  "contractName": "EulerLinearPoolFactory",
  "sourceName": "contracts/euler-linear-pool/EulerLinearPoolFactory.sol",
  "abi": [
    {
      "inputs": [
        {
          "internalType": "contract IVault",
          "name": "vault",
          "type": "address"
        },
        {
          "internalType": "contract IProtocolFeePercentagesProvider",
          "name": "protocolFeeProvider",
          "type": "address"
        },
        {
          "internalType": "contract IBalancerQueries",
          "name": "queries",
          "type": "address"
        },
        {
          "internalType": "string",
          "name": "factoryVersion",
          "type": "string"
        },
        {
          "internalType": "string",
          "name": "poolVersion",
          "type": "string"
        },
        {
          "internalType": "uint256",
          "name": "initialPauseWindowDuration",
          "type": "uint256"
        },
        {
          "internalType": "uint256",
          "name": "bufferPeriodDuration",
          "type": "uint256"
        },
        {
          "internalType": "address",
          "name": "_eulerProtocol",
          "type": "address"
        }
      ],
      "stateMutability": "nonpayable",
      "type": "constructor"
    },
    {
      "anonymous": false,
      "inputs": [
        {
          "indexed": true,
          "internalType": "address",
          "name": "pool",
          "type": "address"
        },
        {
          "indexed": true,
          "internalType": "uint256",
          "name": "protocolId",
          "type": "uint256"
        }
      ],
      "name": "EulerLinearPoolCreated",
      "type": "event"
    },
    {
      "anonymous": false,
      "inputs": [
        {
          "indexed": true,
          "internalType": "uint256",
          "name": "protocolId",
          "type": "uint256"
        },
        {
          "indexed": false,
          "internalType": "string",
          "name": "name",
          "type": "string"
        }
      ],
      "name": "EulerLinearPoolProtocolIdRegistered",
      "type": "event"
    },
    {
      "anonymous": false,
      "inputs": [],
      "name": "FactoryDisabled",
      "type": "event"
    },
    {
      "anonymous": false,
      "inputs": [
        {
          "indexed": true,
          "internalType": "address",
          "name": "pool",
          "type": "address"
        }
      ],
      "name": "PoolCreated",
      "type": "event"
    },
    {
      "inputs": [
        {
          "internalType": "string",
          "name": "name",
          "type": "string"
        },
        {
          "internalType": "string",
          "name": "symbol",
          "type": "string"
        },
        {
          "internalType": "contract IERC20",
          "name": "mainToken",
          "type": "address"
        },
        {
          "internalType": "contract IERC20",
          "name": "wrappedToken",
          "type": "address"
        },
        {
          "internalType": "uint256",
          "name": "upperTarget",
          "type": "uint256"
        },
        {
          "internalType": "uint256",
          "name": "swapFeePercentage",
          "type": "uint256"
        },
        {
          "internalType": "address",
          "name": "owner",
          "type": "address"
        },
        {
          "internalType": "uint256",
          "name": "protocolId",
          "type": "uint256"
        }
      ],
      "name": "create",
      "outputs": [
        {
          "internalType": "contract LinearPool",
          "name": "",
          "type": "address"
        }
      ],
      "stateMutability": "nonpayable",
      "type": "function"
    },
    {
      "inputs": [],
      "name": "disable",
      "outputs": [],
      "stateMutability": "nonpayable",
      "type": "function"
    },
    {
      "inputs": [],
      "name": "eulerProtocol",
      "outputs": [
        {
          "internalType": "address",
          "name": "",
          "type": "address"
        }
      ],
      "stateMutability": "view",
      "type": "function"
    },
    {
      "inputs": [
        {
          "internalType": "bytes4",
          "name": "selector",
          "type": "bytes4"
        }
      ],
      "name": "getActionId",
      "outputs": [
        {
          "internalType": "bytes32",
          "name": "",
          "type": "bytes32"
        }
      ],
      "stateMutability": "view",
      "type": "function"
    },
    {
      "inputs": [],
      "name": "getAuthorizer",
      "outputs": [
        {
          "internalType": "contract IAuthorizer",
          "name": "",
          "type": "address"
        }
      ],
      "stateMutability": "view",
      "type": "function"
    },
    {
      "inputs": [],
      "name": "getCreationCode",
      "outputs": [
        {
          "internalType": "bytes",
          "name": "",
          "type": "bytes"
        }
      ],
      "stateMutability": "view",
      "type": "function"
    },
    {
      "inputs": [],
      "name": "getCreationCodeContracts",
      "outputs": [
        {
          "internalType": "address",
          "name": "contractA",
          "type": "address"
        },
        {
          "internalType": "address",
          "name": "contractB",
          "type": "address"
        }
      ],
      "stateMutability": "view",
      "type": "function"
    },
    {
      "inputs": [],
      "name": "getLastCreatedPool",
      "outputs": [
        {
          "internalType": "address",
          "name": "",
          "type": "address"
        }
      ],
      "stateMutability": "view",
      "type": "function"
    },
    {
      "inputs": [],
      "name": "getPauseConfiguration",
      "outputs": [
        {
          "internalType": "uint256",
          "name": "pauseWindowDuration",
          "type": "uint256"
        },
        {
          "internalType": "uint256",
          "name": "bufferPeriodDuration",
          "type": "uint256"
        }
      ],
      "stateMutability": "view",
      "type": "function"
    },
    {
      "inputs": [],
      "name": "getPoolVersion",
      "outputs": [
        {
          "internalType": "string",
          "name": "",
          "type": "string"
        }
      ],
      "stateMutability": "view",
      "type": "function"
    },
    {
      "inputs": [],
      "name": "getProtocolFeePercentagesProvider",
      "outputs": [
        {
          "internalType": "contract IProtocolFeePercentagesProvider",
          "name": "",
          "type": "address"
        }
      ],
      "stateMutability": "view",
      "type": "function"
    },
    {
      "inputs": [
        {
          "internalType": "uint256",
          "name": "protocolId",
          "type": "uint256"
        }
      ],
      "name": "getProtocolName",
      "outputs": [
        {
          "internalType": "string",
          "name": "",
          "type": "string"
        }
      ],
      "stateMutability": "view",
      "type": "function"
    },
    {
      "inputs": [],
      "name": "getVault",
      "outputs": [
        {
          "internalType": "contract IVault",
          "name": "",
          "type": "address"
        }
      ],
      "stateMutability": "view",
      "type": "function"
    },
    {
      "inputs": [],
      "name": "isDisabled",
      "outputs": [
        {
          "internalType": "bool",
          "name": "",
          "type": "bool"
        }
      ],
      "stateMutability": "view",
      "type": "function"
    },
    {
      "inputs": [
        {
          "internalType": "address",
          "name": "pool",
          "type": "address"
        }
      ],
      "name": "isPoolFromFactory",
      "outputs": [
        {
          "internalType": "bool",
          "name": "",
          "type": "bool"
        }
      ],
      "stateMutability": "view",
      "type": "function"
    },
    {
      "inputs": [
        {
          "internalType": "uint256",
          "name": "protocolId",
          "type": "uint256"
        },
        {
          "internalType": "string",
          "name": "name",
          "type": "string"
        }
      ],
      "name": "registerProtocolId",
      "outputs": [],
      "stateMutability": "nonpayable",
      "type": "function"
    },
    {
      "inputs": [],
      "name": "version",
      "outputs": [
        {
          "internalType": "string",
          "name": "",
          "type": "string"
        }
      ],
      "stateMutability": "view",
      "type": "function"
    }
  ],
  "bytecode": "0x6102006040523480156200001257600080fd5b5060405162009918380380620099188339810160408190526200003591620003d0565b87878484604051806020016200004b906200027f565b601f1982820381018352601f909101166040528951839083908790309085908f906200007f9060009060208401906200028d565b505080516002810460a081905280820360e081905281845283620000af81620001a0602090811b62000d4117901c565b60601b6001600160601b0319166080528285018051838252620000de82620001a0602090811b62000d4117901c565b6001600160601b0319606091821b811660c0529690935290526101009590955250509290911b909116610120525062000121630163f500831115610194620001f4565b620001356276a700821115610195620001f4565b610140829052610160524201610180525050506001600160601b0319606091821b81166101a05260016003559088901b166101c052508351620001809060069060208701906200028d565b5060601b6001600160601b0319166101e05250620004b895505050505050565b80517f602038038060206000396000f3fefefefefefefefefefefefefefefefefefefe808352600091602081018484f09084529150620001ee6001600160a01b03831615156101ac620001f4565b50919050565b816200020557620002058162000209565b5050565b6200021b816210905360ea1b6200021e565b50565b62461bcd60e51b600090815260206004526007602452600a808404818106603090810160081b958390069590950190829004918206850160101b01602363ffffff0060e086901c160160181b0190930160c81b60445260e882901c90606490fd5b6157da806200413e83390190565b828054600181600116156101000203166002900490600052602060002090601f016020900481019282601f10620002d057805160ff191683800117855562000300565b8280016001018555821562000300579182015b8281111562000300578251825591602001919060010190620002e3565b506200030e92915062000312565b5090565b5b808211156200030e576000815560010162000313565b600082601f8301126200033a578081fd5b81516001600160401b038082111562000351578283fd5b6040516020601f8401601f191682018101838111838210171562000373578586fd5b806040525081945083825286818588010111156200039057600080fd5b600092505b83831015620003b4578583018101518284018201529182019162000395565b83831115620003c65760008185840101525b5050505092915050565b600080600080600080600080610100898b031215620003ed578384fd5b8851620003fa81620004a2565b60208a01519098506200040d81620004a2565b60408a01519097506200042081620004a2565b60608a01519096506001600160401b03808211156200043d578586fd5b6200044b8c838d0162000329565b965060808b015191508082111562000461578586fd5b50620004708b828c0162000329565b94505060a0890151925060c0890151915060e08901516200049181620004a2565b809150509295985092959890939650565b6001600160a01b03811681146200021b57600080fd5b60805160601c60a05160c05160601c60e051610100516101205160601c6101405161016051610180516101a05160601c6101c05160601c6101e05160601c613bda62000564600039806104a052806108c45280610c705250806108a35250806105965250806102f952806103235250806103475250508061068052508061062e525080610daa5250806102d05280610e26525080610dcb5250806102af5280610e025250613bda6000f3fe60806040523480156200001157600080fd5b5060043610620001355760003560e01c80636634b75311620000c3578063851c1bb3116200008d578063a2de1041116200006f578063a2de10411462000254578063aaabadc5146200026b578063df8af98914620002755762000135565b8063851c1bb314620002245780638d928af8146200024a5762000135565b80636634b75314620001d35780636c57f5a914620001f9578063739238d614620002035780637f5d9817146200020d5762000135565b80633f819b6f11620001055780633f819b6f146200019c5780635208fc2b14620001a657806354fd4d5014620001bf5780635ed3128214620001c95762000135565b8062c194db146200013a578063174481fa146200015c5780632da47c4014620001765780632f2770db1462000190575b600080fd5b620001446200028c565b6040516200015391906200194c565b60405180910390f35b62000166620002ad565b60405162000153929190620018e5565b62000180620002f3565b6040516200015392919062001c40565b6200019a6200037c565b005b62000144620003e6565b620001b06200049e565b604051620001539190620018c4565b62000144620004c2565b620001b062000544565b620001ea620001e4366004620015ec565b62000560565b6040516200015391906200190c565b620001ea6200058b565b620001b062000594565b6200019a6200021e3660046200176c565b620005b8565b6200023b620002353660046200164c565b6200062a565b60405162000153919062001917565b620001b06200067e565b620001446200026536600462001753565b620006a2565b620001b0620007cc565b620001b0620002863660046200168e565b62000859565b6060620002a86040518060200160405280600081525062000da2565b905090565b7f00000000000000000000000000000000000000000000000000000000000000007f00000000000000000000000000000000000000000000000000000000000000009091565b600080427f00000000000000000000000000000000000000000000000000000000000000008110156200036e57807f00000000000000000000000000000000000000000000000000000000000000000392507f0000000000000000000000000000000000000000000000000000000000000000915062000377565b60009250600091505b509091565b6200038662000e7d565b6200039062000ecc565b600280547fffffffffffffffffffffffffffffffffffffffffffffffffffffffffffffff001660011790556040517f432acbfd662dbb5d8b378384a67159b47ca9d0f1b79f97cf64cf8585fa362d5090600090a1565b60068054604080516020601f60027fffffffffffffffffffffffffffffffffffffffffffffffffffffffffffffffff610100600188161502019095169490940493840181900481028201810190925282815260609390929091830182828015620004945780601f10620004685761010080835404028352916020019162000494565b820191906000526020600020905b8154815290600101906020018083116200047657829003601f168201915b5050505050905090565b7f000000000000000000000000000000000000000000000000000000000000000081565b60008054604080516020601f60027fffffffffffffffffffffffffffffffffffffffffffffffffffffffffffffffff610100600188161502019095169490940493840181900481028201810190925282815260609390929091830182828015620004945780601f10620004685761010080835404028352916020019162000494565b60055473ffffffffffffffffffffffffffffffffffffffff1690565b73ffffffffffffffffffffffffffffffffffffffff1660009081526001602052604090205460ff1690565b60025460ff1690565b7f000000000000000000000000000000000000000000000000000000000000000090565b620005c262000e7d565b60008281526007602052604090206001015460ff16156200061a576040517f08c379a0000000000000000000000000000000000000000000000000000000008152600401620006119062001a25565b60405180910390fd5b62000626828262000ee5565b5050565b60007f0000000000000000000000000000000000000000000000000000000000000000826040516020016200066192919062001861565b604051602081830303815290604052805190602001209050919050565b7f000000000000000000000000000000000000000000000000000000000000000090565b6060620006ae620013d9565b6000838152600760209081526040918290208251815460026001821615610100027fffffffffffffffffffffffffffffffffffffffffffffffffffffffffffffffff0190911604601f81018490049093028101606090810185529381018381529093919284928491908401828280156200076c5780601f1062000740576101008083540402835291602001916200076c565b820191906000526020600020905b8154815290600101906020018083116200074e57829003601f168201915b50505091835250506001919091015460ff161515602091820152810151909150620007c5576040517f08c379a0000000000000000000000000000000000000000000000000000000008152600401620006119062001a93565b5192915050565b6000620007d86200067e565b73ffffffffffffffffffffffffffffffffffffffff1663aaabadc56040518163ffffffff1660e01b815260040160206040518083038186803b1580156200081e57600080fd5b505afa15801562000833573d6000803e3d6000fd5b505050506040513d601f19601f82011682018060405250810190620002a891906200160b565b60006200086562000f9a565b60048054600181019091556040516060906200088460208201620013f1565b601f1982820381018352601f90910116604052620008a16200067e565b7f00000000000000000000000000000000000000000000000000000000000000007f0000000000000000000000000000000000000000000000000000000000000000604051602001620008f79392919062001961565b60408051601f198184030181529082905262000917929160200162001891565b604051602081830303815290604052905060006200093d83838051906020012062000fb5565b90506000806200094c620002f3565b915091506200095a620013ff565b620009646200067e565b816000019073ffffffffffffffffffffffffffffffffffffffff16908173ffffffffffffffffffffffffffffffffffffffff16815250508e81602001819052508d81604001819052508c816060019073ffffffffffffffffffffffffffffffffffffffff16908173ffffffffffffffffffffffffffffffffffffffff16815250508b816080019073ffffffffffffffffffffffffffffffffffffffff16908173ffffffffffffffffffffffffffffffffffffffff1681525050838160a0019073ffffffffffffffffffffffffffffffffffffffff16908173ffffffffffffffffffffffffffffffffffffffff16815250508a8160c0018181525050898160e0018181525050828161010001818152505081816101200181815250508881610140019073ffffffffffffffffffffffffffffffffffffffff16908173ffffffffffffffffffffffffffffffffffffffff168152505062000ac2620003e6565b61016082015260405160009062000af89062000ae390849060200162001b38565b60405160208183030381529060405262000fcb565b90508073ffffffffffffffffffffffffffffffffffffffff16638129fc1c6040518163ffffffff1660e01b8152600401600060405180830381600087803b15801562000b4357600080fd5b505af115801562000b58573d6000803e3d6000fd5b50505050600062000b6c6000898962001020565b90508073ffffffffffffffffffffffffffffffffffffffff168673ffffffffffffffffffffffffffffffffffffffff161462000bd6576040517f08c379a0000000000000000000000000000000000000000000000000000000008152600401620006119062001aca565b8073ffffffffffffffffffffffffffffffffffffffff16635208fc2b6040518163ffffffff1660e01b815260040160206040518083038186803b15801562000c1d57600080fd5b505afa15801562000c32573d6000803e3d6000fd5b505050506040513d601f19601f8201168201806040525081019062000c5891906200160b565b73ffffffffffffffffffffffffffffffffffffffff167f000000000000000000000000000000000000000000000000000000000000000073ffffffffffffffffffffffffffffffffffffffff161462000cdf576040517f08c379a00000000000000000000000000000000000000000000000000000000081526004016200061190620019c8565b6040518a9073ffffffffffffffffffffffffffffffffffffffff8416907fde3939ceca101461fd7e389705020a1f8b1518edb75d05284b21aa270354c3dc90600090a350965050505050505062000d35620010fe565b98975050505050505050565b80517f602038038060206000396000f3fefefefefefefefefefefefefefefefefefefe808352600091602081018484f0908452915062000d9c73ffffffffffffffffffffffffffffffffffffffff831615156101ac62001105565b50919050565b8051604080517f00000000000000000000000000000000000000000000000000000000000000007f0000000000000000000000000000000000000000000000000000000000000000818101858101848101602090810190965280855293957f00000000000000000000000000000000000000000000000000000000000000009592947f000000000000000000000000000000000000000000000000000000000000000094938801866000828a3c846000888301883c506020898101908985010162000e6f81838662001116565b505050505050505050919050565b600062000eae6000357fffffffff00000000000000000000000000000000000000000000000000000000166200062a565b905062000ec962000ec0823362001174565b61019162001105565b50565b62000ee362000eda6200058b565b1560d362001105565b565b604080518082018252828152600160208083019190915260008581526007825292909220815180519293919262000f209284920190620014ce565b5060209190910151600190910180547fffffffffffffffffffffffffffffffffffffffffffffffffffffffffffffff001691151591909117905560405182907fbc95cef6d5db011ce7bbd666790167a2ba616785c508e3e2cbfbf2f37fa965c29062000f8e9084906200194c565b60405180910390a25050565b62000fae6002600354141561019062001105565b6002600355565b600062000fc483833062001212565b9392505050565b60008062000fd98362001253565b600580547fffffffffffffffffffffffff00000000000000000000000000000000000000001673ffffffffffffffffffffffffffffffffffffffff83161790559392505050565b6000808447101562001060576040517f08c379a0000000000000000000000000000000000000000000000000000000008152600401620006119062001991565b82516200109b576040517f08c379a0000000000000000000000000000000000000000000000000000000008152600401620006119062001b01565b8383516020850187f5905073ffffffffffffffffffffffffffffffffffffffff8116620010f6576040517f08c379a0000000000000000000000000000000000000000000000000000000008152600401620006119062001a5c565b949350505050565b6001600355565b8162000626576200062681620012ee565b5b6020811062001138578151835260209283019290910190601f190162001117565b905182516020929092036101000a7fffffffffffffffffffffffffffffffffffffffffffffffffffffffffffffffff0180199091169116179052565b600062001180620007cc565b73ffffffffffffffffffffffffffffffffffffffff16639be2a8848484306040518463ffffffff1660e01b8152600401620011be9392919062001920565b60206040518083038186803b158015620011d757600080fd5b505afa158015620011ec573d6000803e3d6000fd5b505050506040513d601f19601f8201168201806040525081019062000fc491906200162a565b60008060ff60f81b838686604051602001620012329493929190620017fd565b60408051808303601f19018152919052805160209091012095945050505050565b60006200125f62000ecc565b60006200126c836200131a565b73ffffffffffffffffffffffffffffffffffffffff8116600081815260016020819052604080832080547fffffffffffffffffffffffffffffffffffffffffffffffffffffffffffffff00169092179091555192935090917f83a48fbcfc991335314e74d0496aab6a1987e992ddc85dddbcc4d6dd6ef2e9fc9190a292915050565b62000ec9817f42414c00000000000000000000000000000000000000000000000000000000006200135e565b60006060620013298362000da2565b905060008151602083016000f0905073ffffffffffffffffffffffffffffffffffffffff811662000fc4573d6000803e3d6000fd5b7f08c379a000000000000000000000000000000000000000000000000000000000600090815260206004526007602452600a808404818106603090810160081b958390069590950190829004918206850160101b01602363ffffff0060e086901c160160181b0190930160c81b60445260e882901c90606490fd5b60408051808201909152606081526000602082015290565b611f008062001ca583390190565b604051806101800160405280600073ffffffffffffffffffffffffffffffffffffffff1681526020016060815260200160608152602001600073ffffffffffffffffffffffffffffffffffffffff168152602001600073ffffffffffffffffffffffffffffffffffffffff168152602001600073ffffffffffffffffffffffffffffffffffffffff16815260200160008152602001600081526020016000815260200160008152602001600073ffffffffffffffffffffffffffffffffffffffff168152602001606081525090565b828054600181600116156101000203166002900490600052602060002090601f016020900481019282601f106200151157805160ff191683800117855562001541565b8280016001018555821562001541579182015b828111156200154157825182559160200191906001019062001524565b506200154f92915062001553565b5090565b5b808211156200154f576000815560010162001554565b600082601f8301126200157b578081fd5b813567ffffffffffffffff8082111562001593578283fd5b6040516020601f19601f8501168201018181108382111715620015b4578485fd5b604052828152925082848301602001861015620015d057600080fd5b8260208601602083013760006020848301015250505092915050565b600060208284031215620015fe578081fd5b813562000fc48162001c81565b6000602082840312156200161d578081fd5b815162000fc48162001c81565b6000602082840312156200163c578081fd5b8151801515811462000fc4578182fd5b6000602082840312156200165e578081fd5b81357fffffffff000000000000000000000000000000000000000000000000000000008116811462000fc4578182fd5b600080600080600080600080610100898b031215620016ab578384fd5b883567ffffffffffffffff80821115620016c3578586fd5b620016d18c838d016200156a565b995060208b0135915080821115620016e7578586fd5b50620016f68b828c016200156a565b9750506040890135620017098162001c81565b955060608901356200171b8162001c81565b94506080890135935060a0890135925060c08901356200173b8162001c81565b8092505060e089013590509295985092959890939650565b60006020828403121562001765578081fd5b5035919050565b600080604083850312156200177f578182fd5b82359150602083013567ffffffffffffffff8111156200179d578182fd5b620017ab858286016200156a565b9150509250929050565b73ffffffffffffffffffffffffffffffffffffffff169052565b60008151808452620017e981602086016020860162001c4e565b601f01601f19169290920160200192915050565b7fff0000000000000000000000000000000000000000000000000000000000000094909416845260609290921b7fffffffffffffffffffffffffffffffffffffffff0000000000000000000000001660018401526015830152603582015260550190565b9182527fffffffff0000000000000000000000000000000000000000000000000000000016602082015260240190565b60008351620018a581846020880162001c4e565b835190830190620018bb81836020880162001c4e565b01949350505050565b73ffffffffffffffffffffffffffffffffffffffff91909116815260200190565b73ffffffffffffffffffffffffffffffffffffffff92831681529116602082015260400190565b901515815260200190565b90815260200190565b92835273ffffffffffffffffffffffffffffffffffffffff918216602084015216604082015260600190565b60006020825262000fc46020830184620017cf565b73ffffffffffffffffffffffffffffffffffffffff93841681529183166020830152909116604082015260600190565b6020808252601c908201527f435245415445325f494e53554646494349454e545f42414c414e434500000000604082015260600190565b60208082526025908201527f526562616c616e636572206e6f74206177617265206f662065756c657250726f60408201527f746f636f6c000000000000000000000000000000000000000000000000000000606082015260800190565b6020808252601e908201527f50726f746f636f6c20494420616c726561647920726567697374657265640000604082015260600190565b60208082526015908201527f435245415445325f4445504c4f595f4641494c45440000000000000000000000604082015260600190565b6020808252601a908201527f50726f746f636f6c204944206e6f742072656769737465726564000000000000604082015260600190565b6020808252601c908201527f526562616c616e636572206465706c6f796d656e74206661696c656400000000604082015260600190565b60208082526015908201527f435245415445325f42595445434f44455f5a45524f0000000000000000000000604082015260600190565b60006020825262001b4e602083018451620017b5565b602083015161018080604085015262001b6c6101a0850183620017cf565b91506040850151601f198086850301606087015262001b8c8483620017cf565b93506060870151915062001ba46080870183620017b5565b6080870151915062001bba60a0870183620017b5565b60a0870151915062001bd060c0870183620017b5565b60c087015160e087810191909152870151610100808801919091528701516101208088019190915287015161014080880191909152870151915061016062001c1b81880184620017b5565b87015186850390910183870152905062001c368382620017cf565b9695505050505050565b918252602082015260400190565b60005b8381101562001c6b57818101518382015260200162001c51565b8381111562001c7b576000848401525b50505050565b73ffffffffffffffffffffffffffffffffffffffff8116811462000ec957600080fdfe6101806040523480156200001257600080fd5b5060405162001f0038038062001f00833981016040819052620000359162000470565b336001600160a01b0316635ed312826040518163ffffffff1660e01b815260040160206040518083038186803b1580156200006f57600080fd5b505afa15801562000084573d6000803e3d6000fd5b505050506040513d601f19601f82011682018060405250810190620000aa919062000386565b8383826001600160a01b0316631dd746ea6040518163ffffffff1660e01b815260040160006040518083038186803b158015620000e657600080fd5b505afa158015620000fb573d6000803e3d6000fd5b505050506040513d6000823e601f3d908101601f19168201604052620001259190810190620003ac565b836001600160a01b0316634d64cd746040518163ffffffff1660e01b815260040160206040518083038186803b1580156200015f57600080fd5b505afa15801562000174573d6000803e3d6000fd5b505050506040513d601f19601f820116820180604052508101906200019a919062000457565b81518110620001a557fe5b602090810291909101810151610100526001600160601b0319606085901b166080526040805163038fff2d60e41b815290516001600160a01b038616926338fff2d09260048082019391829003018186803b1580156200020457600080fd5b505afa15801562000219573d6000803e3d6000fd5b505050506040513d601f19601f820116820180604052508101906200023f919062000457565b60a08181525050826001600160a01b0316634de046d56040518163ffffffff1660e01b815260040160206040518083038186803b1580156200028057600080fd5b505afa15801562000295573d6000803e3d6000fd5b505050506040513d601f19601f82011682018060405250810190620002bb919062000386565b6001600160a01b031660c0816001600160a01b031660601b81525050826001600160a01b031663f174e2416040518163ffffffff1660e01b815260040160206040518083038186803b1580156200031157600080fd5b505afa15801562000326573d6000803e3d6000fd5b505050506040513d601f19601f820116820180604052508101906200034c919062000386565b6001600160601b0319606091821b811660e05292811b83166101205290811b8216610140529290921b909116610160525062000503915050565b60006020828403121562000398578081fd5b8151620003a581620004ea565b9392505050565b60006020808385031215620003bf578182fd5b82516001600160401b0380821115620003d6578384fd5b818501915085601f830112620003ea578384fd5b815181811115620003f9578485fd5b83810291506200040b848301620004c3565b8181528481019084860184860187018a101562000426578788fd5b8795505b838610156200044a5780518352600195909501949186019186016200042a565b5098975050505050505050565b60006020828403121562000469578081fd5b5051919050565b60008060006060848603121562000485578182fd5b83516200049281620004ea565b6020850151909350620004a581620004ea565b6040850151909250620004b881620004ea565b809150509250925092565b6040518181016001600160401b0381118282101715620004e257600080fd5b604052919050565b6001600160a01b03811681146200050057600080fd5b50565b60805160601c60a05160c05160601c60e05160601c610100516101205160601c6101405160601c6101605160601c611908620005f86000398060e352806111bd525080610540528061085852508061016a5280610c4b528061101052806110725250806103f65250806104a352806105d0528061077f52806109235280610cf95280610dbe52806110d0528061121f52508061012152806101c7528061046752806106035280610668528061070952806107bb52806108e8528061119b5250806101a6528061043952806107515280610ab45280610b935280610e985280610f7752508060ac528061034052506119086000f3fe608060405234801561001057600080fd5b506004361061004c5760003560e01c8063026b1d5f1461005157806321c281911461006f5780635208fc2b1461008f578063df633d8d14610097575b600080fd5b6100596100aa565b6040516100669190611630565b60405180910390f35b61008261007d3660046114ee565b6100ce565b6040516100669190611871565b6100596100e1565b6100826100a536600461150a565b610105565b7f000000000000000000000000000000000000000000000000000000000000000090565b60006100d982610159565b90505b919050565b7f000000000000000000000000000000000000000000000000000000000000000081565b600061014973ffffffffffffffffffffffffffffffffffffffff7f000000000000000000000000000000000000000000000000000000000000000016333085610290565b61015283610159565b9392505050565b600080610164610339565b905060007f000000000000000000000000000000000000000000000000000000000000000073ffffffffffffffffffffffffffffffffffffffff1663b05f8e487f00000000000000000000000000000000000000000000000000000000000000007f00000000000000000000000000000000000000000000000000000000000000006040518363ffffffff1660e01b815260040161020392919061177c565b60806040518083038186803b15801561021b57600080fd5b505afa15801561022f573d6000803e3d6000fd5b505050506040513d601f19601f820116820180604052508101906102539190611590565b5050509050818110156102755761026c81830385610422565b925050506100dc565b818111156102895761026c8282038561073a565b5050919050565b610333846323b872dd60e01b8585856040516024016102b193929190611678565b604080517fffffffffffffffffffffffffffffffffffffffffffffffffffffffffffffffe08184030181529190526020810180517bffffffffffffffffffffffffffffffffffffffffffffffffffffffff167fffffffff0000000000000000000000000000000000000000000000000000000090931692909217909152610948565b50505050565b60008060007f000000000000000000000000000000000000000000000000000000000000000073ffffffffffffffffffffffffffffffffffffffff166363fe3b566040518163ffffffff1660e01b8152600401604080518083038186803b1580156103a357600080fd5b505afa1580156103b7573d6000803e3d6000fd5b505050506040513d601f19601f820116820180604052508101906103db919061156d565b9150915060006002828401816103ed57fe5b04905061041a817f00000000000000000000000000000000000000000000000000000000000000006109f5565b935050505090565b600061042c61143b565b6040805160c081019091527f0000000000000000000000000000000000000000000000000000000000000000815260208101600081526020017f000000000000000000000000000000000000000000000000000000000000000073ffffffffffffffffffffffffffffffffffffffff1681526020017f000000000000000000000000000000000000000000000000000000000000000073ffffffffffffffffffffffffffffffffffffffff16815260200185815260200160405180602001604052806000815250815250905061050061149e565b6040517fe969f6b300000000000000000000000000000000000000000000000000000000815260009073ffffffffffffffffffffffffffffffffffffffff7f0000000000000000000000000000000000000000000000000000000000000000169063e969f6b39061057790869086906004016117ae565b602060405180830381600087803b15801561059157600080fd5b505af11580156105a5573d6000803e3d6000fd5b505050506040513d601f19601f820116820180604052508101906105c99190611555565b90506105f57f000000000000000000000000000000000000000000000000000000000000000082610a48565b6105fe81610cb9565b6106287f000000000000000000000000000000000000000000000000000000000000000087610e2c565b6040517f70a0823100000000000000000000000000000000000000000000000000000000815260009073ffffffffffffffffffffffffffffffffffffffff7f000000000000000000000000000000000000000000000000000000000000000016906370a082319061069d903090600401611630565b60206040518083038186803b1580156106b557600080fd5b505afa1580156106c9573d6000803e3d6000fd5b505050506040513d601f19601f820116820180604052508101906106ed9190611555565b905061073073ffffffffffffffffffffffffffffffffffffffff7f00000000000000000000000000000000000000000000000000000000000000001687836110a7565b9695505050505050565b600061074461143b565b6040805160c081019091527f0000000000000000000000000000000000000000000000000000000000000000815260208101600181526020017f000000000000000000000000000000000000000000000000000000000000000073ffffffffffffffffffffffffffffffffffffffff1681526020017f000000000000000000000000000000000000000000000000000000000000000073ffffffffffffffffffffffffffffffffffffffff16815260200185815260200160405180602001604052806000815250815250905061081861149e565b6040517fe969f6b300000000000000000000000000000000000000000000000000000000815260009073ffffffffffffffffffffffffffffffffffffffff7f0000000000000000000000000000000000000000000000000000000000000000169063e969f6b39061088f90869086906004016117ae565b602060405180830381600087803b1580156108a957600080fd5b505af11580156108bd573d6000803e3d6000fd5b505050506040513d601f19601f820116820180604052508101906108e19190611555565b905061090d7f000000000000000000000000000000000000000000000000000000000000000087610a48565b61091e610919826110cb565b611181565b6106287f000000000000000000000000000000000000000000000000000000000000000082610e2c565b600060608373ffffffffffffffffffffffffffffffffffffffff16836040516109719190611614565b6000604051808303816000865af19150503d80600081146109ae576040519150601f19603f3d011682016040523d82523d6000602084013e6109b3565b606091505b509150915060008214156109cb573d6000803e3d6000fd5b6103338151600014806109ed5750818060200190518101906109ed9190611535565b6101a261128c565b6000610a04821515600461128c565b670de0b6b3a76400008302610a36841580610a2f5750670de0b6b3a7640000858381610a2c57fe5b04145b600561128c565b828181610a3f57fe5b04949350505050565b6040805160028082526060828101909352816020015b610a666114c5565b815260200190600190039081610a5e579050509050600081600081518110610a8a57fe5b6020026020010151600001906002811115610aa157fe5b90816002811115610aae57fe5b815250507f000000000000000000000000000000000000000000000000000000000000000081600081518110610ae057fe5b602002602001015160200181815250508181600081518110610afe57fe5b602002602001015160600181815250508281600081518110610b1c57fe5b60200260200101516040019073ffffffffffffffffffffffffffffffffffffffff16908173ffffffffffffffffffffffffffffffffffffffff1681525050600281600181518110610b6957fe5b6020026020010151600001906002811115610b8057fe5b90816002811115610b8d57fe5b815250507f000000000000000000000000000000000000000000000000000000000000000081600181518110610bbf57fe5b60200260200101516020018181525050600081600181518110610bde57fe5b602002602001015160600181815250508281600181518110610bfc57fe5b602090810291909101015173ffffffffffffffffffffffffffffffffffffffff918216604091820152517fe6c460920000000000000000000000000000000000000000000000000000000081527f00000000000000000000000000000000000000000000000000000000000000009091169063e6c4609290610c829084906004016116f8565b600060405180830381600087803b158015610c9c57600080fd5b505af1158015610cb0573d6000803e3d6000fd5b50505050505050565b6040517f010ad6d100000000000000000000000000000000000000000000000000000000815260009073ffffffffffffffffffffffffffffffffffffffff7f0000000000000000000000000000000000000000000000000000000000000000169063010ad6d190610d2e908590600401611871565b60206040518083038186803b158015610d4657600080fd5b505afa158015610d5a573d6000803e3d6000fd5b505050506040513d601f19601f82011682018060405250810190610d7e9190611555565b6040517f441a3e7000000000000000000000000000000000000000000000000000000000815290915073ffffffffffffffffffffffffffffffffffffffff7f0000000000000000000000000000000000000000000000000000000000000000169063441a3e7090610df69060009085906004016117a0565b600060405180830381600087803b158015610e1057600080fd5b505af1158015610e24573d6000803e3d6000fd5b505050505050565b6040805160028082526060828101909352816020015b610e4a6114c5565b815260200190600190039081610e42579050509050600281600081518110610e6e57fe5b6020026020010151600001906002811115610e8557fe5b90816002811115610e9257fe5b815250507f000000000000000000000000000000000000000000000000000000000000000081600081518110610ec457fe5b602002602001015160200181815250508181600081518110610ee257fe5b602002602001015160600181815250508281600081518110610f0057fe5b60200260200101516040019073ffffffffffffffffffffffffffffffffffffffff16908173ffffffffffffffffffffffffffffffffffffffff1681525050600181600181518110610f4d57fe5b6020026020010151600001906002811115610f6457fe5b90816002811115610f7157fe5b815250507f000000000000000000000000000000000000000000000000000000000000000081600181518110610fa357fe5b602002602001015160200181815250508181600181518110610fc157fe5b602002602001015160600181815250508281600181518110610fdf57fe5b602090810291909101015173ffffffffffffffffffffffffffffffffffffffff9182166040909101526110359084167f00000000000000000000000000000000000000000000000000000000000000008461129e565b6040517fe6c4609200000000000000000000000000000000000000000000000000000000815273ffffffffffffffffffffffffffffffffffffffff7f0000000000000000000000000000000000000000000000000000000000000000169063e6c4609290610c829084906004016116f8565b6110c68363a9059cbb60e01b84846040516024016102b19291906116d2565b505050565b6000807f000000000000000000000000000000000000000000000000000000000000000073ffffffffffffffffffffffffffffffffffffffff1663010ad6d1846040518263ffffffff1660e01b81526004016111279190611871565b60206040518083038186803b15801561113f57600080fd5b505afa158015611153573d6000803e3d6000fd5b505050506040513d601f19601f820116820180604052508101906111779190611555565b6001019392505050565b6111e273ffffffffffffffffffffffffffffffffffffffff7f0000000000000000000000000000000000000000000000000000000000000000167f00000000000000000000000000000000000000000000000000000000000000008361129e565b6040517fe2bbb15800000000000000000000000000000000000000000000000000000000815273ffffffffffffffffffffffffffffffffffffffff7f0000000000000000000000000000000000000000000000000000000000000000169063e2bbb158906112579060009085906004016117a0565b600060405180830381600087803b15801561127157600080fd5b505af1158015611285573d6000803e3d6000fd5b5050505050565b8161129a5761129a81611393565b5050565b801580159061134f57506040517fdd62ed3e00000000000000000000000000000000000000000000000000000000815273ffffffffffffffffffffffffffffffffffffffff84169063dd62ed3e906112fc9030908690600401611651565b60206040518083038186803b15801561131457600080fd5b505afa158015611328573d6000803e3d6000fd5b505050506040513d601f19601f8201168201806040525081019061134c9190611555565b15155b15611374576113748363095ea7b360e01b8460006040516024016102b19291906116a9565b6110c68363095ea7b360e01b84846040516024016102b19291906116d2565b6113bd817f42414c00000000000000000000000000000000000000000000000000000000006113c0565b50565b7f08c379a000000000000000000000000000000000000000000000000000000000600090815260206004526007602452600a808404818106603090810160081b958390069590950190829004918206850160101b01602363ffffff0060e086901c160160181b0190930160c81b60445260e882901c90606490fd5b6040805160c08101909152600080825260208201908152602001600073ffffffffffffffffffffffffffffffffffffffff168152602001600073ffffffffffffffffffffffffffffffffffffffff16815260200160008152602001606081525090565b60408051608081018252600080825260208201819052918101829052606081019190915290565b604080516080810190915280600081526000602082018190526040820181905260609091015290565b6000602082840312156114ff578081fd5b8135610152816118b0565b6000806040838503121561151c578081fd5b8235611527816118b0565b946020939093013593505050565b600060208284031215611546578081fd5b81518015158114610152578182fd5b600060208284031215611566578081fd5b5051919050565b6000806040838503121561157f578182fd5b505080516020909101519092909150565b600080600080608085870312156115a5578182fd5b84519350602085015192506040850151915060608501516115c5816118b0565b939692955090935050565b73ffffffffffffffffffffffffffffffffffffffff808251168352602082015115156020840152806040830151166040840152506060810151151560608301525050565b6000825161162681846020870161187a565b9190910192915050565b73ffffffffffffffffffffffffffffffffffffffff91909116815260200190565b73ffffffffffffffffffffffffffffffffffffffff92831681529116602082015260400190565b73ffffffffffffffffffffffffffffffffffffffff9384168152919092166020820152604081019190915260600190565b73ffffffffffffffffffffffffffffffffffffffff92909216825260ff16602082015260400190565b73ffffffffffffffffffffffffffffffffffffffff929092168252602082015260400190565b602080825282518282018190526000919060409081850190868401855b8281101561176f57815180516003811061172b57fe5b855280870151878601528581015173ffffffffffffffffffffffffffffffffffffffff16868601526060908101519085015260809093019290850190600101611715565b5091979650505050505050565b91825273ffffffffffffffffffffffffffffffffffffffff16602082015260400190565b918252602082015260400190565b600060a08252835160a083015260208401516117c9816118a6565b8060c084015250604084015173ffffffffffffffffffffffffffffffffffffffff80821660e0850152806060870151166101008501525050608084015161012083015260a084015160c0610140840152805180610160850152610180611835828287016020860161187a565b807fffffffffffffffffffffffffffffffffffffffffffffffffffffffffffffffe0601f840116860101935050505061015260208301846115d0565b90815260200190565b60005b8381101561189557818101518382015260200161187d565b838111156103335750506000910152565b600281106113bd57fe5b73ffffffffffffffffffffffffffffffffffffffff811681146113bd57600080fdfea2646970667358221220645808847f6cd32f053d8d0e2a758c406cabf5a3f9a42cc34755cf0b9e0333ea64736f6c63430007010033a2646970667358221220b41a7ebecfc405f3b5b122559a4249acdfdb0cf4fa2b78f6a8fe4053a09ec20d64736f6c634300070100336102a06040523480156200001257600080fd5b50604051620057da380380620057da833981016040819052620000359162000de2565b6101608101518151602083015160408401516060850151608086015160c087015162000061886200046d565b60e08901516101008a01516101208b01516101408c01518a6200009e8160006200008c8c8c620004f6565b89620005a760201b620014141760201c565b8b8b868686828286868a85336001600160a01b031660001b8480604051806040016040528060018152602001603160f81b81525087878160039080519060200190620000ec92919062000c6b565b5080516200010290600490602084019062000c6b565b50506005805460ff19166012179055508151602092830120608052805191012060a052507f8b73c3c69bb8fe3d512ecc4cf759cc79239f7b179b0ffacaa9a75d522b39400f60c05260e0526001600160601b0319606091821b81166101005291901b166101205250620001819050630163f50083111561019462000775565b620001956276a70082111561019562000775565b4290910161014081905201610160526101808690526040805163d2946c2b60e01b815290516001600160a01b0389169163d2946c2b916004808301926020929190829003018186803b158015620001eb57600080fd5b505afa15801562000200573d6000803e3d6000fd5b505050506040513d601f19601f8201168201806040525081019062000226919062000da3565b6001600160a01b03166101a0816001600160a01b031660601b8152505050505050505050876001600160a01b03166101c0816001600160a01b031660601b81525050866001600160a01b03166101e0816001600160a01b031660601b81525050866001600160a01b0316886001600160a01b031610620002a8576002620002ab565b60015b60ff16610200526001600160a01b0380881690891610620002ce576001620002d1565b60025b60ff1661022052620002e3886200078a565b61024052620002f2876200078a565b6102605260006200030589828962000836565b620003108562000930565b50508a51620003339a506009995060208c019850965062000c6b95505050505050565b5050600081606001516001600160a01b031663313ce5676040518163ffffffff1660e01b815260040160206040518083038186803b1580156200037557600080fd5b505afa1580156200038a573d6000803e3d6000fd5b505050506040513d601f19601f82011682018060405250810190620003b0919062000f39565b60ff1690508060120361028081815250506200046582608001516001600160a01b0316637158da7c6040518163ffffffff1660e01b815260040160206040518083038186803b1580156200040357600080fd5b505afa15801562000418573d6000803e3d6000fd5b505050506040513d601f19601f820116820180604052508101906200043e919062000da3565b6001600160a01b031683606001516001600160a01b0316146102086200077560201b60201c565b50506200105f565b6040805160028082526060808301845292839291906020830190803683370190505090508260a0015181600081518110620004a457fe5b60200260200101906001600160a01b031690816001600160a01b0316815250508260a0015181600181518110620004d757fe5b6001600160a01b03909216602092830291909101909101529050919050565b60408051600280825260608281019093526001600160a01b0384811690861610918391816020016020820280368337019050509050816200053857836200053a565b845b816000815181106200054857fe5b60200260200101906001600160a01b031690816001600160a01b0316815250508162000575578462000577565b835b816001815181106200058557fe5b6001600160a01b03909216602092830291909101909101529150505b92915050565b6000620005bf83620009bf60201b620015c91760201c565b606083516001016001600160401b0381118015620005dc57600080fd5b5060405190808252806020026020018201604052801562000607578160200160208202803683370190505b50905030816000815181106200061957fe5b60200260200101906001600160a01b031690816001600160a01b03168152505060005b84518110156200068c578481815181106200065357fe5b60200260200101518282600101815181106200066b57fe5b6001600160a01b03909216602092830291909101909101526001016200063c565b50606083516001016001600160401b0381118015620006aa57600080fd5b50604051908082528060200260200182016040528015620006d5578160200160208202803683370190505b509050600081600081518110620006e857fe5b60200260200101906001600160a01b031690816001600160a01b03168152505060005b84518110156200075b578481815181106200072257fe5b60200260200101518282600101815181106200073a57fe5b6001600160a01b03909216602092830291909101909101526001016200070b565b506200076a87878484620009cb565b979650505050505050565b816200078657620007868162000ac5565b5050565b600080826001600160a01b031663313ce5676040518163ffffffff1660e01b815260040160206040518083038186803b158015620007c757600080fd5b505afa158015620007dc573d6000803e3d6000fd5b505050506040513d601f19601f8201168201806040525081019062000802919062000f39565b60ff16905060006200082160128362000ada60201b620015d71760201c565b600a0a670de0b6b3a764000002949350505050565b620008478183111561014c62000775565b620008646b0de0b6b39983494c589c000082111561014d62000775565b6200087e670de0b6b3a7640000825b061561016162000775565b62000892670de0b6b3a76400008362000873565b620008e1670de0b6b3a7640000820460406020620008cb670de0b6b3a764000087600854919004602080620015ed62000af2821b17811c565b62000af260201b620015ed17909392919060201c565b6008556040516001600160a01b038416907fd0e27a0d0c2cb09280fa5e4487315455b32afcdcf012dc35b6ef2a0e3c4d12809062000923908590859062001008565b60405180910390a2505050565b6200094564e8d4a5100082101560cb62000775565b6200095d67016345785d8a000082111560ca62000775565b6200097f8160c0603f60085462000af260201b620015ed17909392919060201c565b6008556040517fa9ba3ffe0b6c366b81232caab38605a0699ad5398d6cce76f91ee809e322dafc90620009b490839062000fff565b60405180910390a150565b80620007868162000b17565b600080856001600160a01b03166309b2760f866040518263ffffffff1660e01b8152600401620009fc919062000fea565b602060405180830381600087803b15801562000a1757600080fd5b505af115801562000a2c573d6000803e3d6000fd5b505050506040513d601f19601f8201168201806040525081019062000a52919062000dc9565b604051633354e3e960e11b81529091506001600160a01b038716906366a9c7d29062000a879084908890889060040162000f5c565b600060405180830381600087803b15801562000aa257600080fd5b505af115801562000ab7573d6000803e3d6000fd5b509298975050505050505050565b62000ad7816210905360ea1b62000ba3565b50565b600062000aec83831115600162000775565b50900390565b600062000b0184848462000c04565b506001901b60001901811b1992909216911b1790565b60028151101562000b285762000ad7565b60008160008151811062000b3857fe5b602002602001015190506000600190505b825181101562000b9e57600083828151811062000b6257fe5b6020026020010151905062000b93816001600160a01b0316846001600160a01b03161060656200077560201b60201c565b915060010162000b49565b505050565b62461bcd60e51b600090815260206004526007602452600a808404818106603090810160081b958390069590950190829004918206850160101b01602363ffffff0060e086901c160160181b0190930160c81b60445260e882901c90606490fd5b62000c156101008310606462000775565b62000c4e6001821015801562000c46575062000c4260ff846101000362000c5f60201b620016101760201c565b8211155b606462000775565b62000b9e83821c156101b462000775565b80820390821102900390565b828054600181600116156101000203166002900490600052602060002090601f016020900481019282601f1062000cae57805160ff191683800117855562000cde565b8280016001018555821562000cde579182015b8281111562000cde57825182559160200191906001019062000cc1565b5062000cec92915062000cf0565b5090565b5b8082111562000cec576000815560010162000cf1565b8051620005a18162001049565b600082601f83011262000d25578081fd5b81516001600160401b0381111562000d3b578182fd5b602062000d51601f8301601f1916820162001016565b9250818352848183860101111562000d6857600080fd5b60005b8281101562000d8857848101820151848201830152810162000d6b565b8281111562000d9a5760008284860101525b50505092915050565b60006020828403121562000db5578081fd5b815162000dc28162001049565b9392505050565b60006020828403121562000ddb578081fd5b5051919050565b60006020828403121562000df4578081fd5b81516001600160401b038082111562000e0b578283fd5b818401915061018080838703121562000e22578384fd5b62000e2d8162001016565b905062000e3b868462000d07565b815260208301518281111562000e4f578485fd5b62000e5d8782860162000d14565b60208301525060408301518281111562000e75578485fd5b62000e838782860162000d14565b60408301525062000e98866060850162000d07565b606082015262000eac866080850162000d07565b608082015262000ec08660a0850162000d07565b60a082015260c083015160c082015260e083015160e082015261010080840151818301525061012080840151818301525061014062000f028782860162000d07565b90820152610160838101518381111562000f1a578586fd5b62000f288882870162000d14565b918301919091525095945050505050565b60006020828403121562000f4b578081fd5b815160ff8116811462000dc2578182fd5b60006060820185835260206060818501528186518084526080860191508288019350845b8181101562000fa85762000f9585516200103d565b8352938301939183019160010162000f80565b505084810360408601528551808252908201925081860190845b8181101562000ab75762000fd783516200103d565b8552938301939183019160010162000fc2565b602081016003831062000ff957fe5b91905290565b90815260200190565b918252602082015260400190565b6040518181016001600160401b03811182821017156200103557600080fd5b604052919050565b6001600160a01b031690565b6001600160a01b038116811462000ad757600080fd5b60805160a05160c05160e0516101005160601c6101205160601c6101405161016051610180516101a05160601c6101c05160601c6101e05160601c61020051610220516102405161026051610280516145ec620011ee600039806118495250806107f452508061079052806129c7525080610718528061081c5280610c495280612e425280612fcb5280613103528061320e528061338b52806134c35250806107b252806109b45280610c0f5280612e0e5280612f505280612f97528061308d52806130cf52806131da52806133155280613357528061344d528061348f5250806113e852806126e352806127af52806129ed5280612dc35280612edc528061319052806132a15250806109d852806110de5280611aa95280611b48528061269a5280612766528061298c5280612d845280612e8652806130195280613151528061325252806133d95250806111bc52508061094152508061180d5250806117e9525080610fc9525080610fa5525080610f555250806123d75250806124195250806123f852506145ec6000f3fe608060405234801561001057600080fd5b506004361061032b5760003560e01c80637ecebe00116101b2578063a457c2d7116100f9578063d505accf116100a2578063de82cd341161007c578063de82cd34146105e8578063ed24911d146105f0578063f174e241146105f8578063f5431aa8146106005761032b565b8063d505accf146105af578063d5c096c4146105c2578063dd62ed3e146105d55761032b565b8063b35056b8116100d3578063b35056b814610597578063b7b814fc1461059f578063d2946c2b146105a75761032b565b8063a457c2d714610569578063a9059cbb1461057c578063aaabadc51461058f5761032b565b8063893d20e81161015b57806395d89b411161013557806395d89b411461053b5780639d2c110c146105435780639f11080e146105565761032b565b8063893d20e8146105185780638d928af81461052057806390193b7c146105285761032b565b80638456cb591161018c5780638456cb59146104fd578063851c1bb31461050557806387ec6817146104675761032b565b80637ecebe00146104da5780638129fc1c146104ed57806382687a56146104f55761032b565b8063395093511161027657806355c676281161021f578063679aefce116101f9578063679aefce1461049e57806370a08231146104a657806374f3b009146104b95761032b565b806355c676281461045f5780636028bfd41461046757806363fe3b56146104885761032b565b80634de046d5116102505780634de046d51461043a57806354a844ba1461044f57806354fd4d50146104575761032b565b806339509351146104175780633f4ba83a1461042a5780634d64cd74146104325761032b565b80631dd746ea116102d85780633644e515116102b25780633644e515146103f257806338e9922e146103fa57806338fff2d01461040f5761032b565b80631dd746ea146103b557806323b872dd146103ca578063313ce567146103dd5761032b565b806316b8d6ff1161030957806316b8d6ff1461038e57806318160ddd146103965780631c0de0511461039e5761032b565b806301ec954a1461033057806306fdde0314610359578063095ea7b31461036e575b600080fd5b61034361033e366004613fc4565b610608565b60405161035091906142b3565b60405180910390f35b610361610668565b60405161035091906144f7565b61038161037c366004613d96565b6106ff565b6040516103509190614290565b610343610716565b61034361073a565b6103a6610740565b6040516103509392919061429b565b6103bd610769565b6040516103509190614258565b6103816103d8366004613ce6565b610877565b6103e56108ed565b6040516103509190614531565b6103436108f6565b61040d610408366004614081565b610905565b005b61034361093f565b610381610425366004613d96565b610963565b61040d61099e565b6103436109b2565b6104426109d6565b6040516103509190614244565b61040d6109fa565b610361610a4e565b610343610aaf565b61047a610475366004613ec5565b610ac2565b60405161035092919061450a565b610490610ae0565b604051610350929190614523565b610343610b1e565b6103436104b4366004613c92565b610cb3565b6104cc6104c7366004613ec5565b610cd2565b60405161035092919061426b565b6103436104e8366004613c92565b610d94565b61040d610d9f565b610343610f3a565b61040d610f3f565b610343610513366004613f68565b610f51565b610442610fa3565b610442610fc7565b610343610536366004613c92565b610feb565b610361611006565b610343610551366004614035565b611067565b61040d610564366004614099565b6110a0565b610381610577366004613d96565b61110a565b61038161058a366004613d96565b611148565b610442611155565b61038161115f565b61040d611170565b6104426111ba565b61040d6105bd366004613d26565b6111de565b6104cc6105d0366004613ec5565b61125f565b6103436105e3366004613cae565b6112f6565b610343611333565b6103436113dc565b6104426113e6565b61034361140a565b6000846080015161063561061a610fc7565b6001600160a01b0316336001600160a01b03161460cd61161c565b61064a61064061093f565b82146101f461161c565b61065261162a565b61065e8686868661163d565b9695505050505050565b60038054604080516020601f60026000196101006001881615020190951694909404938401819004810282018101909252828152606093909290918301828280156106f45780601f106106c9576101008083540402835291602001916106f4565b820191906000526020600020905b8154815290600101906020018083116106d757829003601f168201915b505050505090505b90565b600061070c338484611762565b5060015b92915050565b7f000000000000000000000000000000000000000000000000000000000000000090565b60025490565b600080600061074d6117ca565b1592506107586117e7565b915061076261180b565b9050909192565b604080516003808252608082019092526060918291906020820183803683370190505090507f0000000000000000000000000000000000000000000000000000000000000000817f0000000000000000000000000000000000000000000000000000000000000000815181106107db57fe5b6020026020010181815250506108196107f261182f565b7f000000000000000000000000000000000000000000000000000000000000000090611923565b817f00000000000000000000000000000000000000000000000000000000000000008151811061084557fe5b602002602001018181525050670de0b6b3a76400008160008151811061086757fe5b6020908102919091010152905090565b60008061088485336112f6565b90506108a8336001600160a01b03871614806108a05750838210155b61019e61161c565b6108b385858561195b565b336001600160a01b038616148015906108ce57506000198114155b156108e0576108e08533858403611762565b60019150505b9392505050565b60055460ff1690565b60006109006113dc565b905090565b61090d611a3b565b600080610918610ae0565b915091506109316109298383611a84565b61014f61161c565b61093a83611b8b565b505050565b7f000000000000000000000000000000000000000000000000000000000000000090565b3360008181526001602090815260408083206001600160a01b0387168452909152812054909161070c9185906109999086611c03565b611762565b6109a6611a3b565b6109b06000611c15565b565b7f000000000000000000000000000000000000000000000000000000000000000090565b7f000000000000000000000000000000000000000000000000000000000000000090565b610a02611a3b565b610a0a611ca6565b610a146001611cba565b7feff3d4d215b42bf0960be9c6d5e05c22cba4df6627a3a523e2acee733b5854c86001604051610a449190614290565b60405180910390a1565b60098054604080516020601f60026000196101006001881615020190951694909404938401819004810282018101909252828152606093909290918301828280156106f45780601f106106c9576101008083540402835291602001916106f4565b6008546000906109009060c0603f611cfc565b60006060610ad4888785611d0b611d22565b97509795505050505050565b6008546000908190670de0b6b3a7640000610afd82602080611cfc565b029250670de0b6b3a7640000610b168260406020611cfc565b029150509091565b600080610b2961093f565b90506060610b35610fc7565b6001600160a01b031663f94d4668836040518263ffffffff1660e01b8152600401610b6091906142b3565b60006040518083038186803b158015610b7857600080fd5b505afa158015610b8c573d6000803e3d6000fd5b505050506040513d6000823e601f3d908101601f19168201604052610bb49190810190613dc1565b50915050610bc981610bc4610769565b611e89565b600080610bd4610ae0565b91509150610be0613a33565b6040518060600160405280610bf3610aaf565b81526020018481526020018381525090506000610c7f610c46867f000000000000000000000000000000000000000000000000000000000000000081518110610c3857fe5b602002602001015184611ef2565b867f000000000000000000000000000000000000000000000000000000000000000081518110610c7257fe5b6020026020010151611f53565b9050610ca8610ca186600081518110610c9457fe5b6020026020010151611f5f565b8290611f73565b965050505050505090565b6001600160a01b0381166000908152602081905260409020545b919050565b60608088610ce161061a610fc7565b610cec61064061093f565b6000610cf785611fca565b15610d1f57610d04611ff9565b610d1688610d1061073a565b8761200c565b94509050610d37565b610d2761162a565b610d328a8987611d0b565b945090505b610d418a82612102565b835167ffffffffffffffff81118015610d5957600080fd5b50604051908082528060200260200182016040528015610d83578160200160208202803683370190505b509250505097509795505050505050565b600061071082610feb565b6000610da961093f565b90506060610db5610fc7565b6001600160a01b031663f94d4668836040518263ffffffff1660e01b8152600401610de091906142b3565b60006040518083038186803b158015610df857600080fd5b505afa158015610e0c573d6000803e3d6000fd5b505050506040513d6000823e601f3d908101601f19168201604052610e349190810190613dc1565b505060408051600380825260808201909252919250606091906020820183803683370190505090506dffffffffffffffffffffffffffff81600081518110610e7857fe5b602002602001018181525050610e8c613a54565b6040518060800160405280610ea0856106fc565b8152602001838152602001604051806020016040528060008152508152602001600015158152509050610ed1610fc7565b6001600160a01b031663b95cac28853030856040518563ffffffff1660e01b8152600401610f0294939291906142db565b600060405180830381600087803b158015610f1c57600080fd5b505af1158015610f30573d6000803e3d6000fd5b5050505050505050565b600090565b610f47611a3b565b6109b06001611c15565b60007f000000000000000000000000000000000000000000000000000000000000000082604051602001610f869291906141ce565b604051602081830303815290604052805190602001209050919050565b7f000000000000000000000000000000000000000000000000000000000000000090565b7f000000000000000000000000000000000000000000000000000000000000000090565b6001600160a01b031660009081526006602052604090205490565b60048054604080516020601f60026000196101006001881615020190951694909404938401819004810282018101909252828152606093909290918301828280156106f45780601f106106c9576101008083540402835291602001916106f4565b6000836080015161107961061a610fc7565b61108461064061093f565b61108c61162a565b61109785858561210c565b95945050505050565b6110a8611a3b565b6000806110b3610ae0565b915091506110c46109298383611a84565b6110d96110d18585611a84565b61015761161c565b6111047f00000000000000000000000000000000000000000000000000000000000000008585612119565b50505050565b60008061111733856112f6565b90508083106111315761112c33856000611762565b61113e565b61113e3385858403611762565b5060019392505050565b600061070c33848461195b565b60006109006121ef565b6008546000906109009060ff612269565b611178611a3b565b611180611ff9565b61118a6000611cba565b7feff3d4d215b42bf0960be9c6d5e05c22cba4df6627a3a523e2acee733b5854c86000604051610a449190614290565b7f000000000000000000000000000000000000000000000000000000000000000090565b60007f6e71edae12b1b97f4d1f60370fef10105fa2faae0126114a169c64845d6126c988888861120d8c610feb565b89604051602001611223969594939291906143c8565b604051602081830303815290604052805190602001209050611254888261124b878787612270565b886101f86122af565b610f30888888611762565b6060808861126e61061a610fc7565b61127961064061093f565b600061128361162a565b61128b61073a565b6112dd5761129a8a8a87612306565b945090506112b36112a9610f3a565b82101560cc61161c565b6112c560006112c0610f3a565b61239e565b6112d8896112d1610f3a565b830361239e565b610d41565b6112e88a8987611d0b565b94509050610d41898261239e565b6000611300610fc7565b6001600160a01b0316826001600160a01b031614156113225750600019610710565b61132c83836123a8565b9050610710565b6000806000611340610fc7565b6001600160a01b031663b05f8e4861135661093f565b306040518363ffffffff1660e01b81526004016113749291906144ae565b60806040518083038186803b15801561138c57600080fd5b505afa1580156113a0573d6000803e3d6000fd5b505050506040513d601f19601f820116820180604052508101906113c491906140ba565b5050915091506113d5818301611f5f565b9250505090565b60006109006123d3565b7f000000000000000000000000000000000000000000000000000000000000000090565b600061090061182f565b600061141f836115c9565b6060835160010167ffffffffffffffff8111801561143c57600080fd5b50604051908082528060200260200182016040528015611466578160200160208202803683370190505b509050308160008151811061147757fe5b60200260200101906001600160a01b031690816001600160a01b03168152505060005b84518110156114e6578481815181106114af57fe5b60200260200101518282600101815181106114c657fe5b6001600160a01b039092166020928302919091019091015260010161149a565b506060835160010167ffffffffffffffff8111801561150457600080fd5b5060405190808252806020026020018201604052801561152e578160200160208202803683370190505b50905060008160008151811061154057fe5b60200260200101906001600160a01b031690816001600160a01b03168152505060005b84518110156115af5784818151811061157857fe5b602002602001015182826001018151811061158f57fe5b6001600160a01b0390921660209283029190910190910152600101611563565b506115bc87878484612470565b925050505b949350505050565b806115d381612579565b5050565b60006115e783831115600161161c565b50900390565b60006115fa8484846125f2565b506001901b60001901811b1992909216911b1790565b80820390821102900390565b816115d3576115d381612638565b6109b06116356117ca565b61019261161c565b60006116596003841080156116525750600383105b606461161c565b6060611663610769565b905061166f8582611e89565b60008061167a610ae0565b91509150611686613a33565b6040518060600160405280611699610aaf565b81526020810185905260400183905290506000895160018111156116b957fe5b141561171d576116e089606001518589815181106116d357fe5b6020026020010151612662565b60608a015260006116f28a8a8461266e565b90506117118186898151811061170457fe5b6020026020010151612735565b955050505050506115c1565b61173189606001518588815181106116d357fe5b60608a015260006117438a8a84612741565b905061171181868a8151811061175557fe5b60200260200101516127f6565b6001600160a01b0380841660008181526001602090815260408083209487168084529490915290819020849055517f8c5be1e5ebec7d5bd14f71427d1e84f3dd0314c0f7b2291e5b200ac8c7c3b925906117bd9085906142b3565b60405180910390a3505050565b60006117d461180b565b42118061090057505060075460ff161590565b7f000000000000000000000000000000000000000000000000000000000000000090565b7f000000000000000000000000000000000000000000000000000000000000000090565b60006118396113e6565b6001600160a01b031663010ad6d17f0000000000000000000000000000000000000000000000000000000000000000600a0a670de0b6b3a7640000026040518263ffffffff1660e01b815260040161189191906142b3565b60206040518083038186803b1580156118a957600080fd5b505afa9250505080156118d9575060408051601f3d908101601f191682019092526118d691810190613ead565b60015b61191c573d808015611907576040519150601f19603f3d011682016040523d82523d6000602084013e61190c565b606091505b5061191681612802565b506106fc565b90506106fc565b600082820261194784158061194057508385838161193d57fe5b04145b600361161c565b670de0b6b3a7640000815b04949350505050565b6119726001600160a01b038416151561019861161c565b6119896001600160a01b038316151561019961161c565b61199483838361093a565b6001600160a01b0383166000908152602081905260409020546119ba90826101a0612889565b6001600160a01b0380851660009081526020819052604080822093909355908416815220546119e99082611c03565b6001600160a01b0380841660008181526020819052604090819020939093559151908516907fddf252ad1be2c89b69c2b068fc378daa952ba7f163c4a11628f55a4df523b3ef906117bd9085906142b3565b6000611a6a6000357fffffffff0000000000000000000000000000000000000000000000000000000016610f51565b9050611a81611a79823361289f565b61019161161c565b50565b6000806000611a91610fc7565b6001600160a01b031663b05f8e48611aa761093f565b7f00000000000000000000000000000000000000000000000000000000000000006040518363ffffffff1660e01b8152600401611ae59291906144ae565b60806040518083038186803b158015611afd57600080fd5b505afa158015611b11573d6000803e3d6000fd5b505050506040513d601f19601f82011682018060405250810190611b3591906140ba565b5050915091506000611b71828401611b6c7f0000000000000000000000000000000000000000000000000000000000000000612988565b612662565b905085811015801561065e57509390931115949350505050565b611b9e64e8d4a5100082101560cb61161c565b611bb467016345785d8a000082111560ca61161c565b600854611bc5908260c0603f6115ed565b6008556040517fa9ba3ffe0b6c366b81232caab38605a0699ad5398d6cce76f91ee809e322dafc90611bf89083906142b3565b60405180910390a150565b60008282016108e6848210158361161c565b8015611c3557611c30611c266117e7565b421061019361161c565b611c4a565b611c4a611c4061180b565b42106101a961161c565b600780547fffffffffffffffffffffffffffffffffffffffffffffffffffffffffffffff00168215151790556040517f9e3a5e37224532dea67b89face185703738a228a6e8a23dee546960180d3be6490611bf8908390614290565b6109b0611cb161115f565b156101b561161c565b600854611cc9908260ff612a62565b6008556040517feff3d4d215b42bf0960be9c6d5e05c22cba4df6627a3a523e2acee733b5854c890611bf8908390614290565b6001901b6000190191901c1690565b60006060611d1a6103e6612638565b935093915050565b333014611e11576000306001600160a01b0316600036604051611d469291906141fe565b6000604051808303816000865af19150503d8060008114611d83576040519150601f19603f3d011682016040523d82523d6000602084013e611d88565b606091505b505090508060008114611d9757fe5b60046000803e6000517fffffffff00000000000000000000000000000000000000000000000000000000167f43adbafb000000000000000000000000000000000000000000000000000000008114611df3573d6000803e3d6000fd5b506020600460003e604060205260243d03602460403e601c3d016000f35b60006060611e248686868663ffffffff16565b8051601f1982018390526343adbafb7fffffffffffffffffffffffffffffffffffffffffffffffffffffffffffffffc083015291935091506020027fffffffffffffffffffffffffffffffffffffffffffffffffffffffffffffffdc82016044820181fd5b81518151611e98908290612a71565b60005b8181101561110457611ed3848281518110611eb257fe5b6020026020010151848381518110611ec657fe5b6020026020010151611923565b848281518110611edf57fe5b6020908102919091010152600101611e9b565b60008160200151831015611f2b5781516020830151600091611f179186900390611923565b9050611f2384826115d7565b915050610710565b81604001518311611f3d575081610710565b81516040830151600091611f1791860390611923565b60006108e68383611c03565b600061071082611f6d61073a565b906115d7565b6000611f82821515600461161c565b670de0b6b3a76400008302611fb4841580611fad5750670de0b6b3a7640000858381611faa57fe5b04145b600561161c565b6001836001830304018115150291505092915050565b6000808251118015610710575060ff801682806020019051810190611fef91906140fa565b60ff161492915050565b6109b061200461115f565b6101b661161c565b60006060600061201b84612a7e565b90506060865167ffffffffffffffff8111801561203757600080fd5b50604051908082528060200260200182016040528015612061578160200160208202803683370190505b509050600061206e610f3a565b90506000612081898381518110610c9457fe5b9050600061208f8583612a94565b905060005b8a518110156120f157838114156120ac5760006120d2565b6120d2828c83815181106120bc57fe5b602002602001015161192390919063ffffffff16565b8582815181106120de57fe5b6020908102919091010152600101612094565b509399929850919650505050505050565b6115d38282612ad4565b60006108e66103e6612638565b6121288183111561014c61161c565b6121436b0de0b6b39983494c589c000082111561014d61161c565b61215b670de0b6b3a7640000825b061561016161161c565b61216d670de0b6b3a764000083612151565b6121a2670de0b6b3a764000082046040602061219a670de0b6b3a7640000876008549190046020806115ed565b9291906115ed565b6008556040516001600160a01b038416907fd0e27a0d0c2cb09280fa5e4487315455b32afcdcf012dc35b6ef2a0e3c4d1280906121e29085908590614523565b60405180910390a2505050565b60006121f9610fc7565b6001600160a01b031663aaabadc56040518163ffffffff1660e01b815260040160206040518083038186803b15801561223157600080fd5b505afa158015612245573d6000803e3d6000fd5b505050506040513d601f19601f820116820180604052508101906109009190613fa8565b1c60011690565b60408051604180825260808201909252606091829190602082018180368337019050509050836020820152826040820152846060820153949350505050565b60006122ba85612ba0565b90506122d06122ca878387612bbc565b8361161c565b6122df428410156101b861161c565b5050506001600160a01b039092166000908152600660205260409020805460010190555050565b600060606123216001600160a01b038616301461015661161c565b6123386001600160a01b038516301461015661161c565b604080516003808252608082019092526dffffffffffffffffffffffffffff91606091906020820183803683370190505090506dffffffffffffffffffffffffffff8160008151811061238757fe5b602090810291909101015290969095509350505050565b6115d38282612c6b565b6001600160a01b03918216600090815260016020908152604080832093909416825291909152205490565b60007f00000000000000000000000000000000000000000000000000000000000000007f00000000000000000000000000000000000000000000000000000000000000007f0000000000000000000000000000000000000000000000000000000000000000612440612cfe565b30604051602001612455959493929190614482565b60405160208183030381529060405280519060200120905090565b600080856001600160a01b03166309b2760f866040518263ffffffff1660e01b815260040161249f91906144e3565b602060405180830381600087803b1580156124b957600080fd5b505af11580156124cd573d6000803e3d6000fd5b505050506040513d601f19601f820116820180604052508101906124f19190613ead565b6040517f66a9c7d20000000000000000000000000000000000000000000000000000000081529091506001600160a01b038716906366a9c7d29061253d908490889088906004016143fc565b600060405180830381600087803b15801561255757600080fd5b505af115801561256b573d6000803e3d6000fd5b509298975050505050505050565b60028151101561258857611a81565b60008160008151811061259757fe5b602002602001015190506000600190505b825181101561093a5760008382815181106125bf57fe5b602002602001015190506125e8816001600160a01b0316846001600160a01b031610606561161c565b91506001016125a8565b6126016101008310606461161c565b61262960018210158015611652575061261f60ff8461010003611610565b821115606461161c565b61093a83821c156101b461161c565b611a81817f42414c0000000000000000000000000000000000000000000000000000000000612d02565b60006108e68383611923565b60208301516000906001600160a01b031630141561269857612691848484612d7d565b90506108e6565b7f00000000000000000000000000000000000000000000000000000000000000006001600160a01b031684602001516001600160a01b031614156126e157612691848484612ed5565b7f00000000000000000000000000000000000000000000000000000000000000006001600160a01b031684602001516001600160a01b0316141561272a57612691848484613012565b6108e6610135612638565b60006108e68383612a94565b60408301516000906001600160a01b03163014156127645761269184848461314a565b7f00000000000000000000000000000000000000000000000000000000000000006001600160a01b031684604001516001600160a01b031614156127ad5761269184848461329a565b7f00000000000000000000000000000000000000000000000000000000000000006001600160a01b031684604001516001600160a01b0316141561272a576126918484846133d2565b60006108e68383611f73565b805160208201517fffffffff00000000000000000000000000000000000000000000000000000000167f43adbafb0000000000000000000000000000000000000000000000000000000081147ffa61cc120000000000000000000000000000000000000000000000000000000082141761287d578160208401fd5b506115d3610165612638565b6000612898848411158361161c565b5050900390565b600073ba1ba1ba1ba1ba1ba1ba1ba1ba1ba1ba1ba1ba1b6128be610fa3565b6001600160a01b0316141580156128d957506128d98361350a565b15612901576128e6610fa3565b6001600160a01b0316336001600160a01b0316149050610710565b6129096121ef565b6001600160a01b0316639be2a8848484306040518463ffffffff1660e01b8152600401612938939291906142bc565b60206040518083038186803b15801561295057600080fd5b505afa158015612964573d6000803e3d6000fd5b505050506040513d601f19601f8201168201806040525081019061132c9190613e8d565b60007f00000000000000000000000000000000000000000000000000000000000000006001600160a01b0316826001600160a01b031614156129eb57507f0000000000000000000000000000000000000000000000000000000000000000610ccd565b7f00000000000000000000000000000000000000000000000000000000000000006001600160a01b0316826001600160a01b03161415612a3757612a306107f261182f565b9050610ccd565b6001600160a01b038216301415612a575750670de0b6b3a7640000610ccd565b610ccd610135612638565b6001811b1992909216911b1790565b6115d3818314606761161c565b6000818060200190518101906108e69190614116565b6000612aa3821515600461161c565b670de0b6b3a76400008302612acb841580611fad5750670de0b6b3a7640000858381611faa57fe5b82818161195257fe5b612aeb6001600160a01b038316151561019b61161c565b612af78260008361093a565b6001600160a01b038216600090815260208190526040902054612b1d90826101b2612889565b6001600160a01b038316600090815260208190526040902055612b50612b4b82612b4561073a565b9061356e565b61357c565b60006001600160a01b0316826001600160a01b03167fddf252ad1be2c89b69c2b068fc378daa952ba7f163c4a11628f55a4df523b3ef83604051612b9491906142b3565b60405180910390a35050565b6000612baa6123d3565b82604051602001610f8692919061420e565b6000612bce82516041146101b961161c565b60208281015160408085015160608601518251600080825295019283905292939092811a91600190612c079089908590889088906144c5565b6020604051602081039080840390855afa158015612c29573d6000803e3d6000fd5b5050604051601f1901519150506001600160a01b03811615801590612c5f5750876001600160a01b0316816001600160a01b0316145b98975050505050505050565b612c776000838361093a565b612c8c612b4b82612c8661073a565b90611c03565b6001600160a01b038216600090815260208190526040902054612caf9082611c03565b6001600160a01b0383166000818152602081905260408082209390935591519091907fddf252ad1be2c89b69c2b068fc378daa952ba7f163c4a11628f55a4df523b3ef90612b949085906142b3565b4690565b7f08c379a000000000000000000000000000000000000000000000000000000000600090815260206004526007602452600a808404818106603090810160081b958390069590950190829004918206850160101b01602363ffffff0060e086901c160160181b0190930160c81b60445260e882901c90606490fd5b6000612e037f00000000000000000000000000000000000000000000000000000000000000006001600160a01b031685604001516001600160a01b03161480612dfb57507f00000000000000000000000000000000000000000000000000000000000000006001600160a01b031685604001516001600160a01b0316145b61013561161c565b6115c18460600151847f000000000000000000000000000000000000000000000000000000000000000081518110612e3757fe5b6020026020010151857f000000000000000000000000000000000000000000000000000000000000000081518110612e6b57fe5b6020026020010151612e8387600081518110610c9457fe5b867f00000000000000000000000000000000000000000000000000000000000000006001600160a01b03168a604001516001600160a01b031614612ec957613581612ecd565b6135df5b63ffffffff16565b6000612f317f00000000000000000000000000000000000000000000000000000000000000006001600160a01b031685604001516001600160a01b03161480612dfb575060408501516001600160a01b0316301461013561161c565b60408401516001600160a01b03163014612f8c57612f878460600151847f000000000000000000000000000000000000000000000000000000000000000081518110612f7957fe5b602002602001015184613648565b6115c1565b6115c18460600151847f000000000000000000000000000000000000000000000000000000000000000081518110612fc057fe5b6020026020010151857f000000000000000000000000000000000000000000000000000000000000000081518110612ff457fe5b602002602001015161300c87600081518110610c9457fe5b86613678565b600061306e7f00000000000000000000000000000000000000000000000000000000000000006001600160a01b031685604001516001600160a01b03161480612dfb575060408501516001600160a01b0316301461013561161c565b60408401516001600160a01b031630146130c457612f878460600151847f0000000000000000000000000000000000000000000000000000000000000000815181106130b657fe5b6020026020010151846136de565b6115c18460600151847f0000000000000000000000000000000000000000000000000000000000000000815181106130f857fe5b6020026020010151857f00000000000000000000000000000000000000000000000000000000000000008151811061312c57fe5b602002602001015161314487600081518110610c9457fe5b8661371e565b60006131cf7f00000000000000000000000000000000000000000000000000000000000000006001600160a01b031685602001516001600160a01b03161480612dfb57507f00000000000000000000000000000000000000000000000000000000000000006001600160a01b031685602001516001600160a01b03161461013561161c565b6115c18460600151847f00000000000000000000000000000000000000000000000000000000000000008151811061320357fe5b6020026020010151857f00000000000000000000000000000000000000000000000000000000000000008151811061323757fe5b602002602001015161324f87600081518110610c9457fe5b867f00000000000000000000000000000000000000000000000000000000000000006001600160a01b03168a602001516001600160a01b03161461329557613785612ecd565b6137dc565b60006132f67f00000000000000000000000000000000000000000000000000000000000000006001600160a01b031685602001516001600160a01b03161480612dfb575060208501516001600160a01b0316301461013561161c565b60208401516001600160a01b0316301461334c57612f878460600151847f00000000000000000000000000000000000000000000000000000000000000008151811061333e57fe5b602002602001015184613846565b6115c18460600151847f00000000000000000000000000000000000000000000000000000000000000008151811061338057fe5b6020026020010151857f0000000000000000000000000000000000000000000000000000000000000000815181106133b457fe5b60200260200101516133cc87600081518110610c9457fe5b86613870565b600061342e7f00000000000000000000000000000000000000000000000000000000000000006001600160a01b031685602001516001600160a01b03161480612dfb575060208501516001600160a01b0316301461013561161c565b60208401516001600160a01b0316301461348457612f878460600151847f00000000000000000000000000000000000000000000000000000000000000008151811061347657fe5b6020026020010151846138bf565b6115c18460600151847f0000000000000000000000000000000000000000000000000000000000000000815181106134b857fe5b6020026020010151857f0000000000000000000000000000000000000000000000000000000000000000815181106134ec57fe5b602002602001015161350487600081518110610c9457fe5b866138f4565b60006135357f9f11080e00000000000000000000000000000000000000000000000000000000610f51565b82148061071057506135667f38e9922e00000000000000000000000000000000000000000000000000000000610f51565b909114919050565b60006108e683836001612889565b600255565b60008061358e8684611ef2565b9050600061359c8287611f53565b905060006135aa868a6115d7565b905060006135c584611f6d6135bf8587613948565b8a613962565b90506135d188826115d7565b9a9950505050505050505050565b6000806135ec8684611ef2565b905060006135fa8287611f53565b9050600061361161360b838b613948565b87613983565b9050600061361f84836115d7565b9050600061362d82886139a3565b90506136398a826115d7565b9b9a5050505050505050505050565b6000806136558484611ef2565b9050600061366c6136668688611c03565b85611ef2565b905061065e81836115d7565b600082613690576136898683611ef2565b9050611097565b600061369c8684611ef2565b905060006136ad613666888a611c03565b905060006136bb82846115d7565b905060006136c98489611f53565b90506135d16136d88884613948565b82613983565b6000806136eb8484611ef2565b905060006136f982876115d7565b9050600061370782866139a3565b905061371386826115d7565b979650505050505050565b60008261372c575084611097565b60006137388684611ef2565b905060006137468287611f53565b90506000613754878a611c03565b905060006137628483611f53565b905060006137796137738984613948565b85613983565b905061363981896115d7565b600082613793575084611097565b600061379f8684611ef2565b905060006137ad8287611f53565b905060006137bb868a611c03565b905060006137d084611f6d6135bf8587613948565b90506135d181896115d7565b6000826137ed5761368986836139a3565b60006137f98684611ef2565b905060006138078287611f53565b9050600061381e613818838b613948565b87613962565b9050600061382c8483611c03565b9050600061383a82886139a3565b9050613639818b6115d7565b6000806138538484611ef2565b9050600061386461366686886115d7565b905061065e82826115d7565b60008061387d8684611ef2565b9050600061388e613666888a6115d7565b9050600061389c83836115d7565b905060006138aa8489611f53565b90506135d16138b98884613948565b82613962565b6000806138cc8484611ef2565b905060006138da8287611c03565b905060006138e882866139a3565b905061371381876115d7565b6000806139018684611ef2565b9050600061390f8287611f53565b9050600061391d878a6115d7565b9050600061392b8483611f53565b9050600061393c6137738984613948565b905061363988826115d7565b60008282026108e684158061194057508385838161193d57fe5b6000613971821515600461161c565b50811515600019909201046001010290565b6000613992821515600461161c565b81838161399b57fe5b049392505050565b600081602001518310156139ec57815161132c906139ca90670de0b6b3a764000090611c03565b602084015184516139e6916139df9190611923565b8690611c03565b90612a94565b816040015183116139fe575081610710565b815161132c90613a1790670de0b6b3a7640000906115d7565b604084015184516139e691613a2c9190611923565b86906115d7565b60405180606001604052806000815260200160008152602001600081525090565b60405180608001604052806060815260200160608152602001606081526020016000151581525090565b803561071081614592565b600082601f830112613a99578081fd5b8135613aac613aa782614566565b61453f565b818152915060208083019084810181840286018201871015613acd57600080fd5b60005b84811015613aec57813584529282019290820190600101613ad0565b505050505092915050565b600082601f830112613b07578081fd5b8151613b15613aa782614566565b818152915060208083019084810181840286018201871015613b3657600080fd5b60005b84811015613aec57815184529282019290820190600101613b39565b600082601f830112613b65578081fd5b813567ffffffffffffffff811115613b7b578182fd5b613b8e6020601f19601f8401160161453f565b9150808252836020828501011115613ba557600080fd5b8060208401602084013760009082016020015292915050565b80356002811061071057600080fd5b6000610120808385031215613be0578182fd5b613be98161453f565b915050613bf68383613bbe565b8152613c058360208401613a7e565b6020820152613c178360408401613a7e565b6040820152606082013560608201526080820135608082015260a082013560a0820152613c478360c08401613a7e565b60c0820152613c598360e08401613a7e565b60e08201526101008083013567ffffffffffffffff811115613c7a57600080fd5b613c8685828601613b55565b82840152505092915050565b600060208284031215613ca3578081fd5b81356108e681614592565b60008060408385031215613cc0578081fd5b8235613ccb81614592565b91506020830135613cdb81614592565b809150509250929050565b600080600060608486031215613cfa578081fd5b8335613d0581614592565b92506020840135613d1581614592565b929592945050506040919091013590565b600080600080600080600060e0888a031215613d40578283fd5b8735613d4b81614592565b96506020880135613d5b81614592565b955060408801359450606088013593506080880135613d79816145a7565b9699959850939692959460a0840135945060c09093013592915050565b60008060408385031215613da8578182fd5b8235613db381614592565b946020939093013593505050565b600080600060608486031215613dd5578081fd5b835167ffffffffffffffff80821115613dec578283fd5b818601915086601f830112613dff578283fd5b8151613e0d613aa782614566565b80828252602080830192508086018b828387028901011115613e2d578788fd5b8796505b84871015613e58578051613e4481614592565b845260019690960195928101928101613e31565b508901519097509350505080821115613e6f578283fd5b50613e7c86828701613af7565b925050604084015190509250925092565b600060208284031215613e9e578081fd5b815180151581146108e6578182fd5b600060208284031215613ebe578081fd5b5051919050565b600080600080600080600060e0888a031215613edf578081fd5b873596506020880135613ef181614592565b95506040880135613f0181614592565b9450606088013567ffffffffffffffff80821115613f1d578283fd5b613f298b838c01613a89565b955060808a0135945060a08a0135935060c08a0135915080821115613f4c578283fd5b50613f598a828b01613b55565b91505092959891949750929550565b600060208284031215613f79578081fd5b81357fffffffff00000000000000000000000000000000000000000000000000000000811681146108e6578182fd5b600060208284031215613fb9578081fd5b81516108e681614592565b60008060008060808587031215613fd9578182fd5b843567ffffffffffffffff80821115613ff0578384fd5b613ffc88838901613bcd565b95506020870135915080821115614011578384fd5b5061401e87828801613a89565b949794965050505060408301359260600135919050565b600080600060608486031215614049578081fd5b833567ffffffffffffffff81111561405f578182fd5b61406b86828701613bcd565b9660208601359650604090950135949350505050565b600060208284031215614092578081fd5b5035919050565b600080604083850312156140ab578182fd5b50508035926020909101359150565b600080600080608085870312156140cf578182fd5b84519350602085015192506040850151915060608501516140ef81614592565b939692955090935050565b60006020828403121561410b578081fd5b81516108e6816145a7565b60008060408385031215614128578182fd5b8251614133816145a7565b6020939093015192949293505050565b6000815180845260208085019450808401835b8381101561417257815187529582019590820190600101614156565b509495945050505050565b15159052565b60008151808452815b818110156141a85760208185018101518683018201520161418c565b818111156141b95782602083870101525b50601f01601f19169290920160200192915050565b9182527fffffffff0000000000000000000000000000000000000000000000000000000016602082015260240190565b6000828483379101908152919050565b7f190100000000000000000000000000000000000000000000000000000000000081526002810192909252602282015260420190565b6001600160a01b0391909116815260200190565b6000602082526108e66020830184614143565b60006040825261427e6040830185614143565b82810360208401526110978185614143565b901515815260200190565b92151583526020830191909152604082015260600190565b90815260200190565b9283526001600160a01b03918216602084015216604082015260600190565b600085825260206001600160a01b038087168285015280861660408501525060806060840152610100830184516080808601528181518084526101208701915084830193508592505b8083101561434c576143368451614586565b8252928401926001929092019190840190614324565b508387015193507fffffffffffffffffffffffffffffffffffffffffffffffffffffffffffffff809250828682030160a087015261438a8185614143565b935050506040850151818584030160c08601526143a78382614183565b9250505060608401516143bd60e085018261417d565b509695505050505050565b9586526001600160a01b0394851660208701529290931660408501526060840152608083019190915260a082015260c00190565b60006060820185835260206060818501528186518084526080860191508288019350845b81811015614444576144328551614586565b83529383019391830191600101614420565b505084810360408601528551808252908201925081860190845b8181101561256b576144708351614586565b8552938301939183019160010161445e565b9485526020850193909352604084019190915260608301526001600160a01b0316608082015260a00190565b9182526001600160a01b0316602082015260400190565b93845260ff9290921660208401526040830152606082015260800190565b60208101600383106144f157fe5b91905290565b6000602082526108e66020830184614183565b6000838252604060208301526115c16040830184614143565b918252602082015260400190565b60ff91909116815260200190565b60405181810167ffffffffffffffff8111828210171561455e57600080fd5b604052919050565b600067ffffffffffffffff82111561457c578081fd5b5060209081020190565b6001600160a01b031690565b6001600160a01b0381168114611a8157600080fd5b60ff81168114611a8157600080fdfea264697066735822122010afb21e55646dbc0692fad019b42f18e08b7c45e44d15b5bdd8977b9b94dabc64736f6c63430007010033",
  "linkReferences": {},
  "deployedLinkReferences": {}
}