{
  "_format": "hh-sol-artifact-1",
  "contractName": "BeefyLinearPool",
  "sourceName": "contracts/beefy-linear-pool/BeefyLinearPool.sol",
  "abi": [
    {
      "inputs": [
        {
          "components": [
            {
              "internalType": "contract IVault",
              "name": "vault",
              "type": "address"
            },
            {
              "internalType": "string",
              "name": "name",
              "type": "string"
            },
            {
              "internalType": "string",
              "name": "symbol",
              "type": "string"
            },
            {
              "internalType": "contract IERC20",
              "name": "mainToken",
              "type": "address"
            },
            {
              "internalType": "contract IERC20",
              "name": "wrappedToken",
              "type": "address"
            },
            {
              "internalType": "address",
              "name": "assetManager",
              "type": "address"
            },
            {
              "internalType": "uint256",
              "name": "upperTarget",
              "type": "uint256"
            },
            {
              "internalType": "uint256",
              "name": "swapFeePercentage",
              "type": "uint256"
            },
            {
              "internalType": "uint256",
              "name": "pauseWindowDuration",
              "type": "uint256"
            },
            {
              "internalType": "uint256",
              "name": "bufferPeriodDuration",
              "type": "uint256"
            },
            {
              "internalType": "address",
              "name": "owner",
              "type": "address"
            },
            {
              "internalType": "string",
              "name": "version",
              "type": "string"
            }
          ],
          "internalType": "struct BeefyLinearPool.ConstructorArgs",
          "name": "args",
          "type": "tuple"
        }
      ],
      "stateMutability": "nonpayable",
      "type": "constructor"
    },
    {
      "anonymous": false,
      "inputs": [
        {
          "indexed": true,
          "internalType": "address",
          "name": "owner",
          "type": "address"
        },
        {
          "indexed": true,
          "internalType": "address",
          "name": "spender",
          "type": "address"
        },
        {
          "indexed": false,
          "internalType": "uint256",
          "name": "value",
          "type": "uint256"
        }
      ],
      "name": "Approval",
      "type": "event"
    },
    {
      "anonymous": false,
      "inputs": [
        {
          "indexed": false,
          "internalType": "bool",
          "name": "paused",
          "type": "bool"
        }
      ],
      "name": "PausedStateChanged",
      "type": "event"
    },
    {
      "anonymous": false,
      "inputs": [
        {
          "indexed": false,
          "internalType": "bool",
          "name": "enabled",
          "type": "bool"
        }
      ],
      "name": "RecoveryModeStateChanged",
      "type": "event"
    },
    {
      "anonymous": false,
      "inputs": [
        {
          "indexed": false,
          "internalType": "uint256",
          "name": "swapFeePercentage",
          "type": "uint256"
        }
      ],
      "name": "SwapFeePercentageChanged",
      "type": "event"
    },
    {
      "anonymous": false,
      "inputs": [
        {
          "indexed": true,
          "internalType": "contract IERC20",
          "name": "token",
          "type": "address"
        },
        {
          "indexed": false,
          "internalType": "uint256",
          "name": "lowerTarget",
          "type": "uint256"
        },
        {
          "indexed": false,
          "internalType": "uint256",
          "name": "upperTarget",
          "type": "uint256"
        }
      ],
      "name": "TargetsSet",
      "type": "event"
    },
    {
      "anonymous": false,
      "inputs": [
        {
          "indexed": true,
          "internalType": "address",
          "name": "from",
          "type": "address"
        },
        {
          "indexed": true,
          "internalType": "address",
          "name": "to",
          "type": "address"
        },
        {
          "indexed": false,
          "internalType": "uint256",
          "name": "value",
          "type": "uint256"
        }
      ],
      "name": "Transfer",
      "type": "event"
    },
    {
      "inputs": [],
      "name": "DOMAIN_SEPARATOR",
      "outputs": [
        {
          "internalType": "bytes32",
          "name": "",
          "type": "bytes32"
        }
      ],
      "stateMutability": "view",
      "type": "function"
    },
    {
      "inputs": [
        {
          "internalType": "address",
          "name": "owner",
          "type": "address"
        },
        {
          "internalType": "address",
          "name": "spender",
          "type": "address"
        }
      ],
      "name": "allowance",
      "outputs": [
        {
          "internalType": "uint256",
          "name": "",
          "type": "uint256"
        }
      ],
      "stateMutability": "view",
      "type": "function"
    },
    {
      "inputs": [
        {
          "internalType": "address",
          "name": "spender",
          "type": "address"
        },
        {
          "internalType": "uint256",
          "name": "amount",
          "type": "uint256"
        }
      ],
      "name": "approve",
      "outputs": [
        {
          "internalType": "bool",
          "name": "",
          "type": "bool"
        }
      ],
      "stateMutability": "nonpayable",
      "type": "function"
    },
    {
      "inputs": [
        {
          "internalType": "address",
          "name": "account",
          "type": "address"
        }
      ],
      "name": "balanceOf",
      "outputs": [
        {
          "internalType": "uint256",
          "name": "",
          "type": "uint256"
        }
      ],
      "stateMutability": "view",
      "type": "function"
    },
    {
      "inputs": [],
      "name": "decimals",
      "outputs": [
        {
          "internalType": "uint8",
          "name": "",
          "type": "uint8"
        }
      ],
      "stateMutability": "view",
      "type": "function"
    },
    {
      "inputs": [
        {
          "internalType": "address",
          "name": "spender",
          "type": "address"
        },
        {
          "internalType": "uint256",
          "name": "amount",
          "type": "uint256"
        }
      ],
      "name": "decreaseAllowance",
      "outputs": [
        {
          "internalType": "bool",
          "name": "",
          "type": "bool"
        }
      ],
      "stateMutability": "nonpayable",
      "type": "function"
    },
    {
      "inputs": [],
      "name": "disableRecoveryMode",
      "outputs": [],
      "stateMutability": "nonpayable",
      "type": "function"
    },
    {
      "inputs": [],
      "name": "enableRecoveryMode",
      "outputs": [],
      "stateMutability": "nonpayable",
      "type": "function"
    },
    {
      "inputs": [
        {
          "internalType": "bytes4",
          "name": "selector",
          "type": "bytes4"
        }
      ],
      "name": "getActionId",
      "outputs": [
        {
          "internalType": "bytes32",
          "name": "",
          "type": "bytes32"
        }
      ],
      "stateMutability": "view",
      "type": "function"
    },
    {
      "inputs": [],
      "name": "getAuthorizer",
      "outputs": [
        {
          "internalType": "contract IAuthorizer",
          "name": "",
          "type": "address"
        }
      ],
      "stateMutability": "view",
      "type": "function"
    },
    {
      "inputs": [],
      "name": "getBptIndex",
      "outputs": [
        {
          "internalType": "uint256",
          "name": "",
          "type": "uint256"
        }
      ],
      "stateMutability": "pure",
      "type": "function"
    },
    {
      "inputs": [],
      "name": "getDomainSeparator",
      "outputs": [
        {
          "internalType": "bytes32",
          "name": "",
          "type": "bytes32"
        }
      ],
      "stateMutability": "view",
      "type": "function"
    },
    {
      "inputs": [],
      "name": "getMainIndex",
      "outputs": [
        {
          "internalType": "uint256",
          "name": "",
          "type": "uint256"
        }
      ],
      "stateMutability": "view",
      "type": "function"
    },
    {
      "inputs": [],
      "name": "getMainToken",
      "outputs": [
        {
          "internalType": "contract IERC20",
          "name": "",
          "type": "address"
        }
      ],
      "stateMutability": "view",
      "type": "function"
    },
    {
      "inputs": [
        {
          "internalType": "address",
          "name": "account",
          "type": "address"
        }
      ],
      "name": "getNextNonce",
      "outputs": [
        {
          "internalType": "uint256",
          "name": "",
          "type": "uint256"
        }
      ],
      "stateMutability": "view",
      "type": "function"
    },
    {
      "inputs": [],
      "name": "getOwner",
      "outputs": [
        {
          "internalType": "address",
          "name": "",
          "type": "address"
        }
      ],
      "stateMutability": "view",
      "type": "function"
    },
    {
      "inputs": [],
      "name": "getPausedState",
      "outputs": [
        {
          "internalType": "bool",
          "name": "paused",
          "type": "bool"
        },
        {
          "internalType": "uint256",
          "name": "pauseWindowEndTime",
          "type": "uint256"
        },
        {
          "internalType": "uint256",
          "name": "bufferPeriodEndTime",
          "type": "uint256"
        }
      ],
      "stateMutability": "view",
      "type": "function"
    },
    {
      "inputs": [],
      "name": "getPoolId",
      "outputs": [
        {
          "internalType": "bytes32",
          "name": "",
          "type": "bytes32"
        }
      ],
      "stateMutability": "view",
      "type": "function"
    },
    {
      "inputs": [],
      "name": "getProtocolFeesCollector",
      "outputs": [
        {
          "internalType": "contract IProtocolFeesCollector",
          "name": "",
          "type": "address"
        }
      ],
      "stateMutability": "view",
      "type": "function"
    },
    {
      "inputs": [],
      "name": "getRate",
      "outputs": [
        {
          "internalType": "uint256",
          "name": "",
          "type": "uint256"
        }
      ],
      "stateMutability": "view",
      "type": "function"
    },
    {
      "inputs": [],
      "name": "getScalingFactors",
      "outputs": [
        {
          "internalType": "uint256[]",
          "name": "",
          "type": "uint256[]"
        }
      ],
      "stateMutability": "view",
      "type": "function"
    },
    {
      "inputs": [],
      "name": "getSwapFeePercentage",
      "outputs": [
        {
          "internalType": "uint256",
          "name": "",
          "type": "uint256"
        }
      ],
      "stateMutability": "view",
      "type": "function"
    },
    {
      "inputs": [],
      "name": "getTargets",
      "outputs": [
        {
          "internalType": "uint256",
          "name": "lowerTarget",
          "type": "uint256"
        },
        {
          "internalType": "uint256",
          "name": "upperTarget",
          "type": "uint256"
        }
      ],
      "stateMutability": "view",
      "type": "function"
    },
    {
      "inputs": [],
      "name": "getVault",
      "outputs": [
        {
          "internalType": "contract IVault",
          "name": "",
          "type": "address"
        }
      ],
      "stateMutability": "view",
      "type": "function"
    },
    {
      "inputs": [],
      "name": "getVirtualSupply",
      "outputs": [
        {
          "internalType": "uint256",
          "name": "",
          "type": "uint256"
        }
      ],
      "stateMutability": "view",
      "type": "function"
    },
    {
      "inputs": [],
      "name": "getWrappedIndex",
      "outputs": [
        {
          "internalType": "uint256",
          "name": "",
          "type": "uint256"
        }
      ],
      "stateMutability": "view",
      "type": "function"
    },
    {
      "inputs": [],
      "name": "getWrappedToken",
      "outputs": [
        {
          "internalType": "contract IERC20",
          "name": "",
          "type": "address"
        }
      ],
      "stateMutability": "view",
      "type": "function"
    },
    {
      "inputs": [],
      "name": "getWrappedTokenRate",
      "outputs": [
        {
          "internalType": "uint256",
          "name": "",
          "type": "uint256"
        }
      ],
      "stateMutability": "view",
      "type": "function"
    },
    {
      "inputs": [],
      "name": "inRecoveryMode",
      "outputs": [
        {
          "internalType": "bool",
          "name": "",
          "type": "bool"
        }
      ],
      "stateMutability": "view",
      "type": "function"
    },
    {
      "inputs": [
        {
          "internalType": "address",
          "name": "spender",
          "type": "address"
        },
        {
          "internalType": "uint256",
          "name": "addedValue",
          "type": "uint256"
        }
      ],
      "name": "increaseAllowance",
      "outputs": [
        {
          "internalType": "bool",
          "name": "",
          "type": "bool"
        }
      ],
      "stateMutability": "nonpayable",
      "type": "function"
    },
    {
      "inputs": [],
      "name": "initialize",
      "outputs": [],
      "stateMutability": "nonpayable",
      "type": "function"
    },
    {
      "inputs": [],
      "name": "name",
      "outputs": [
        {
          "internalType": "string",
          "name": "",
          "type": "string"
        }
      ],
      "stateMutability": "view",
      "type": "function"
    },
    {
      "inputs": [
        {
          "internalType": "address",
          "name": "owner",
          "type": "address"
        }
      ],
      "name": "nonces",
      "outputs": [
        {
          "internalType": "uint256",
          "name": "",
          "type": "uint256"
        }
      ],
      "stateMutability": "view",
      "type": "function"
    },
    {
      "inputs": [
        {
          "internalType": "bytes32",
          "name": "poolId",
          "type": "bytes32"
        },
        {
          "internalType": "address",
          "name": "sender",
          "type": "address"
        },
        {
          "internalType": "address",
          "name": "",
          "type": "address"
        },
        {
          "internalType": "uint256[]",
          "name": "balances",
          "type": "uint256[]"
        },
        {
          "internalType": "uint256",
          "name": "",
          "type": "uint256"
        },
        {
          "internalType": "uint256",
          "name": "",
          "type": "uint256"
        },
        {
          "internalType": "bytes",
          "name": "userData",
          "type": "bytes"
        }
      ],
      "name": "onExitPool",
      "outputs": [
        {
          "internalType": "uint256[]",
          "name": "amountsOut",
          "type": "uint256[]"
        },
        {
          "internalType": "uint256[]",
          "name": "dueProtocolFees",
          "type": "uint256[]"
        }
      ],
      "stateMutability": "nonpayable",
      "type": "function"
    },
    {
      "inputs": [
        {
          "internalType": "bytes32",
          "name": "poolId",
          "type": "bytes32"
        },
        {
          "internalType": "address",
          "name": "sender",
          "type": "address"
        },
        {
          "internalType": "address",
          "name": "recipient",
          "type": "address"
        },
        {
          "internalType": "uint256[]",
          "name": "balances",
          "type": "uint256[]"
        },
        {
          "internalType": "uint256",
          "name": "",
          "type": "uint256"
        },
        {
          "internalType": "uint256",
          "name": "",
          "type": "uint256"
        },
        {
          "internalType": "bytes",
          "name": "userData",
          "type": "bytes"
        }
      ],
      "name": "onJoinPool",
      "outputs": [
        {
          "internalType": "uint256[]",
          "name": "amountsIn",
          "type": "uint256[]"
        },
        {
          "internalType": "uint256[]",
          "name": "dueProtocolFees",
          "type": "uint256[]"
        }
      ],
      "stateMutability": "nonpayable",
      "type": "function"
    },
    {
      "inputs": [
        {
          "components": [
            {
              "internalType": "enum IVault.SwapKind",
              "name": "kind",
              "type": "uint8"
            },
            {
              "internalType": "contract IERC20",
              "name": "tokenIn",
              "type": "address"
            },
            {
              "internalType": "contract IERC20",
              "name": "tokenOut",
              "type": "address"
            },
            {
              "internalType": "uint256",
              "name": "amount",
              "type": "uint256"
            },
            {
              "internalType": "bytes32",
              "name": "poolId",
              "type": "bytes32"
            },
            {
              "internalType": "uint256",
              "name": "lastChangeBlock",
              "type": "uint256"
            },
            {
              "internalType": "address",
              "name": "from",
              "type": "address"
            },
            {
              "internalType": "address",
              "name": "to",
              "type": "address"
            },
            {
              "internalType": "bytes",
              "name": "userData",
              "type": "bytes"
            }
          ],
          "internalType": "struct IPoolSwapStructs.SwapRequest",
          "name": "request",
          "type": "tuple"
        },
        {
          "internalType": "uint256[]",
          "name": "balances",
          "type": "uint256[]"
        },
        {
          "internalType": "uint256",
          "name": "indexIn",
          "type": "uint256"
        },
        {
          "internalType": "uint256",
          "name": "indexOut",
          "type": "uint256"
        }
      ],
      "name": "onSwap",
      "outputs": [
        {
          "internalType": "uint256",
          "name": "",
          "type": "uint256"
        }
      ],
      "stateMutability": "nonpayable",
      "type": "function"
    },
    {
      "inputs": [
        {
          "components": [
            {
              "internalType": "enum IVault.SwapKind",
              "name": "kind",
              "type": "uint8"
            },
            {
              "internalType": "contract IERC20",
              "name": "tokenIn",
              "type": "address"
            },
            {
              "internalType": "contract IERC20",
              "name": "tokenOut",
              "type": "address"
            },
            {
              "internalType": "uint256",
              "name": "amount",
              "type": "uint256"
            },
            {
              "internalType": "bytes32",
              "name": "poolId",
              "type": "bytes32"
            },
            {
              "internalType": "uint256",
              "name": "lastChangeBlock",
              "type": "uint256"
            },
            {
              "internalType": "address",
              "name": "from",
              "type": "address"
            },
            {
              "internalType": "address",
              "name": "to",
              "type": "address"
            },
            {
              "internalType": "bytes",
              "name": "userData",
              "type": "bytes"
            }
          ],
          "internalType": "struct IPoolSwapStructs.SwapRequest",
          "name": "request",
          "type": "tuple"
        },
        {
          "internalType": "uint256",
          "name": "balanceTokenIn",
          "type": "uint256"
        },
        {
          "internalType": "uint256",
          "name": "balanceTokenOut",
          "type": "uint256"
        }
      ],
      "name": "onSwap",
      "outputs": [
        {
          "internalType": "uint256",
          "name": "",
          "type": "uint256"
        }
      ],
      "stateMutability": "nonpayable",
      "type": "function"
    },
    {
      "inputs": [],
      "name": "pause",
      "outputs": [],
      "stateMutability": "nonpayable",
      "type": "function"
    },
    {
      "inputs": [
        {
          "internalType": "address",
          "name": "owner",
          "type": "address"
        },
        {
          "internalType": "address",
          "name": "spender",
          "type": "address"
        },
        {
          "internalType": "uint256",
          "name": "value",
          "type": "uint256"
        },
        {
          "internalType": "uint256",
          "name": "deadline",
          "type": "uint256"
        },
        {
          "internalType": "uint8",
          "name": "v",
          "type": "uint8"
        },
        {
          "internalType": "bytes32",
          "name": "r",
          "type": "bytes32"
        },
        {
          "internalType": "bytes32",
          "name": "s",
          "type": "bytes32"
        }
      ],
      "name": "permit",
      "outputs": [],
      "stateMutability": "nonpayable",
      "type": "function"
    },
    {
      "inputs": [
        {
          "internalType": "bytes32",
          "name": "",
          "type": "bytes32"
        },
        {
          "internalType": "address",
          "name": "sender",
          "type": "address"
        },
        {
          "internalType": "address",
          "name": "",
          "type": "address"
        },
        {
          "internalType": "uint256[]",
          "name": "balances",
          "type": "uint256[]"
        },
        {
          "internalType": "uint256",
          "name": "",
          "type": "uint256"
        },
        {
          "internalType": "uint256",
          "name": "",
          "type": "uint256"
        },
        {
          "internalType": "bytes",
          "name": "userData",
          "type": "bytes"
        }
      ],
      "name": "queryExit",
      "outputs": [
        {
          "internalType": "uint256",
          "name": "bptIn",
          "type": "uint256"
        },
        {
          "internalType": "uint256[]",
          "name": "amountsOut",
          "type": "uint256[]"
        }
      ],
      "stateMutability": "nonpayable",
      "type": "function"
    },
    {
      "inputs": [
        {
          "internalType": "bytes32",
          "name": "",
          "type": "bytes32"
        },
        {
          "internalType": "address",
          "name": "sender",
          "type": "address"
        },
        {
          "internalType": "address",
          "name": "",
          "type": "address"
        },
        {
          "internalType": "uint256[]",
          "name": "balances",
          "type": "uint256[]"
        },
        {
          "internalType": "uint256",
          "name": "",
          "type": "uint256"
        },
        {
          "internalType": "uint256",
          "name": "",
          "type": "uint256"
        },
        {
          "internalType": "bytes",
          "name": "userData",
          "type": "bytes"
        }
      ],
      "name": "queryJoin",
      "outputs": [
        {
          "internalType": "uint256",
          "name": "bptOut",
          "type": "uint256"
        },
        {
          "internalType": "uint256[]",
          "name": "amountsIn",
          "type": "uint256[]"
        }
      ],
      "stateMutability": "nonpayable",
      "type": "function"
    },
    {
      "inputs": [
        {
          "internalType": "uint256",
          "name": "swapFeePercentage",
          "type": "uint256"
        }
      ],
      "name": "setSwapFeePercentage",
      "outputs": [],
      "stateMutability": "nonpayable",
      "type": "function"
    },
    {
      "inputs": [
        {
          "internalType": "uint256",
          "name": "newLowerTarget",
          "type": "uint256"
        },
        {
          "internalType": "uint256",
          "name": "newUpperTarget",
          "type": "uint256"
        }
      ],
      "name": "setTargets",
      "outputs": [],
      "stateMutability": "nonpayable",
      "type": "function"
    },
    {
      "inputs": [],
      "name": "symbol",
      "outputs": [
        {
          "internalType": "string",
          "name": "",
          "type": "string"
        }
      ],
      "stateMutability": "view",
      "type": "function"
    },
    {
      "inputs": [],
      "name": "totalSupply",
      "outputs": [
        {
          "internalType": "uint256",
          "name": "",
          "type": "uint256"
        }
      ],
      "stateMutability": "view",
      "type": "function"
    },
    {
      "inputs": [
        {
          "internalType": "address",
          "name": "recipient",
          "type": "address"
        },
        {
          "internalType": "uint256",
          "name": "amount",
          "type": "uint256"
        }
      ],
      "name": "transfer",
      "outputs": [
        {
          "internalType": "bool",
          "name": "",
          "type": "bool"
        }
      ],
      "stateMutability": "nonpayable",
      "type": "function"
    },
    {
      "inputs": [
        {
          "internalType": "address",
          "name": "sender",
          "type": "address"
        },
        {
          "internalType": "address",
          "name": "recipient",
          "type": "address"
        },
        {
          "internalType": "uint256",
          "name": "amount",
          "type": "uint256"
        }
      ],
      "name": "transferFrom",
      "outputs": [
        {
          "internalType": "bool",
          "name": "",
          "type": "bool"
        }
      ],
      "stateMutability": "nonpayable",
      "type": "function"
    },
    {
      "inputs": [],
      "name": "unpause",
      "outputs": [],
      "stateMutability": "nonpayable",
      "type": "function"
    },
    {
      "inputs": [],
      "name": "version",
      "outputs": [
        {
          "internalType": "string",
          "name": "",
          "type": "string"
        }
      ],
      "stateMutability": "view",
      "type": "function"
    }
  ],
  "bytecode": "0x6102e06040523480156200001257600080fd5b5060405162005ab138038062005ab1833981016040819052620000359162000e1e565b6101608101518151602083015160408401516060850151608086015160c08701516200006188620004a9565b60e08901516101008a01516101208b01516101408c01518a6200009e8160006200008c8c8c62000532565b89620005e360201b620014241760201c565b8b8b86868686838387878b86336001600160a01b031660001b8480604051806040016040528060018152602001603160f81b81525087878160039080519060200190620000ed92919062000ca7565b5080516200010390600490602084019062000ca7565b50506005805460ff19166012179055508151602092830120608052805191012060a052507f8b73c3c69bb8fe3d512ecc4cf759cc79239f7b179b0ffacaa9a75d522b39400f60c05260e0526001600160601b0319606091821b81166101005291901b166101205250620001829050630163f500831115610194620007b1565b620001966276a700821115610195620007b1565b4291909101610140819052016101605260601b6001600160601b031916610180526101a08690526040805163d2946c2b60e01b815290516001600160a01b0389169163d2946c2b916004808301926020929190829003018186803b158015620001fe57600080fd5b505afa15801562000213573d6000803e3d6000fd5b505050506040513d601f19601f8201168201806040525081019062000239919062000ddf565b6001600160a01b03166101c0816001600160a01b031660601b8152505050505050505050876001600160a01b03166101e0816001600160a01b031660601b81525050866001600160a01b0316610200816001600160a01b031660601b81525050866001600160a01b0316886001600160a01b031610620002bb576002620002be565b60015b60ff16610220526001600160a01b0380881690891610620002e1576001620002e4565b60025b60ff1661024052620002f688620007c6565b610260526200030587620007c6565b6102805260006200031889828962000872565b62000323856200096c565b50508a51620003469a506009995060208c019850965062000ca795505050505050565b5050600081608001519050806001600160a01b03166102a0816001600160a01b031660601b815250506000816001600160a01b0316631f1fcd516040518163ffffffff1660e01b815260040160206040518083038186803b158015620003ab57600080fd5b505afa158015620003c0573d6000803e3d6000fd5b505050506040513d601f19601f82011682018060405250810190620003e6919062000ddf565b90506000816001600160a01b031663313ce5676040518163ffffffff1660e01b815260040160206040518083038186803b1580156200042457600080fd5b505afa15801562000439573d6000803e3d6000fd5b505050506040513d601f19601f820116820180604052508101906200045f919062000f75565b60240390508060ff16600a0a6102c081815250506200049f826001600160a01b031685606001516001600160a01b031614610208620007b160201b60201c565b505050506200109b565b6040805160028082526060808301845292839291906020830190803683370190505090508260a0015181600081518110620004e057fe5b60200260200101906001600160a01b031690816001600160a01b0316815250508260a00151816001815181106200051357fe5b6001600160a01b03909216602092830291909101909101529050919050565b60408051600280825260608281019093526001600160a01b03848116908616109183918160200160208202803683370190505090508162000574578362000576565b845b816000815181106200058457fe5b60200260200101906001600160a01b031690816001600160a01b03168152505081620005b15784620005b3565b835b81600181518110620005c157fe5b6001600160a01b03909216602092830291909101909101529150505b92915050565b6000620005fb83620009fb60201b620015d91760201c565b606083516001016001600160401b03811180156200061857600080fd5b5060405190808252806020026020018201604052801562000643578160200160208202803683370190505b50905030816000815181106200065557fe5b60200260200101906001600160a01b031690816001600160a01b03168152505060005b8451811015620006c8578481815181106200068f57fe5b6020026020010151828260010181518110620006a757fe5b6001600160a01b039092166020928302919091019091015260010162000678565b50606083516001016001600160401b0381118015620006e657600080fd5b5060405190808252806020026020018201604052801562000711578160200160208202803683370190505b5090506000816000815181106200072457fe5b60200260200101906001600160a01b031690816001600160a01b03168152505060005b845181101562000797578481815181106200075e57fe5b60200260200101518282600101815181106200077657fe5b6001600160a01b039092166020928302919091019091015260010162000747565b50620007a68787848462000a07565b979650505050505050565b81620007c257620007c28162000b01565b5050565b600080826001600160a01b031663313ce5676040518163ffffffff1660e01b815260040160206040518083038186803b1580156200080357600080fd5b505afa15801562000818573d6000803e3d6000fd5b505050506040513d601f19601f820116820180604052508101906200083e919062000f75565b60ff16905060006200085d60128362000b1660201b620015e71760201c565b600a0a670de0b6b3a764000002949350505050565b620008838183111561014c620007b1565b620008a06b0de0b6b39983494c589c000082111561014d620007b1565b620008ba670de0b6b3a7640000825b0615610161620007b1565b620008ce670de0b6b3a764000083620008af565b6200091d670de0b6b3a764000082046040602062000907670de0b6b3a764000087600854919004602080620015fd62000b2e821b17811c565b62000b2e60201b620015fd17909392919060201c565b6008556040516001600160a01b038416907fd0e27a0d0c2cb09280fa5e4487315455b32afcdcf012dc35b6ef2a0e3c4d1280906200095f908590859062001044565b60405180910390a2505050565b6200098164e8d4a5100082101560cb620007b1565b6200099967016345785d8a000082111560ca620007b1565b620009bb8160c0603f60085462000b2e60201b620015fd17909392919060201c565b6008556040517fa9ba3ffe0b6c366b81232caab38605a0699ad5398d6cce76f91ee809e322dafc90620009f09083906200103b565b60405180910390a150565b80620007c28162000b53565b600080856001600160a01b03166309b2760f866040518263ffffffff1660e01b815260040162000a38919062001026565b602060405180830381600087803b15801562000a5357600080fd5b505af115801562000a68573d6000803e3d6000fd5b505050506040513d601f19601f8201168201806040525081019062000a8e919062000e05565b604051633354e3e960e11b81529091506001600160a01b038716906366a9c7d29062000ac39084908890889060040162000f98565b600060405180830381600087803b15801562000ade57600080fd5b505af115801562000af3573d6000803e3d6000fd5b509298975050505050505050565b62000b13816210905360ea1b62000bdf565b50565b600062000b28838311156001620007b1565b50900390565b600062000b3d84848462000c40565b506001901b60001901811b1992909216911b1790565b60028151101562000b645762000b13565b60008160008151811062000b7457fe5b602002602001015190506000600190505b825181101562000bda57600083828151811062000b9e57fe5b6020026020010151905062000bcf816001600160a01b0316846001600160a01b0316106065620007b160201b60201c565b915060010162000b85565b505050565b62461bcd60e51b600090815260206004526007602452600a808404818106603090810160081b958390069590950190829004918206850160101b01602363ffffff0060e086901c160160181b0190930160c81b60445260e882901c90606490fd5b62000c5161010083106064620007b1565b62000c8a6001821015801562000c82575062000c7e60ff846101000362000c9b60201b620016201760201c565b8211155b6064620007b1565b62000bda83821c156101b4620007b1565b80820390821102900390565b828054600181600116156101000203166002900490600052602060002090601f016020900481019282601f1062000cea57805160ff191683800117855562000d1a565b8280016001018555821562000d1a579182015b8281111562000d1a57825182559160200191906001019062000cfd565b5062000d2892915062000d2c565b5090565b5b8082111562000d28576000815560010162000d2d565b8051620005dd8162001085565b600082601f83011262000d61578081fd5b81516001600160401b0381111562000d77578182fd5b602062000d8d601f8301601f1916820162001052565b9250818352848183860101111562000da457600080fd5b60005b8281101562000dc457848101820151848201830152810162000da7565b8281111562000dd65760008284860101525b50505092915050565b60006020828403121562000df1578081fd5b815162000dfe8162001085565b9392505050565b60006020828403121562000e17578081fd5b5051919050565b60006020828403121562000e30578081fd5b81516001600160401b038082111562000e47578283fd5b818401915061018080838703121562000e5e578384fd5b62000e698162001052565b905062000e77868462000d43565b815260208301518281111562000e8b578485fd5b62000e998782860162000d50565b60208301525060408301518281111562000eb1578485fd5b62000ebf8782860162000d50565b60408301525062000ed4866060850162000d43565b606082015262000ee8866080850162000d43565b608082015262000efc8660a0850162000d43565b60a082015260c083015160c082015260e083015160e082015261010080840151818301525061012080840151818301525061014062000f3e8782860162000d43565b90820152610160838101518381111562000f56578586fd5b62000f648882870162000d50565b918301919091525095945050505050565b60006020828403121562000f87578081fd5b815160ff8116811462000dfe578182fd5b60006060820185835260206060818501528186518084526080860191508288019350845b8181101562000fe45762000fd1855162001079565b8352938301939183019160010162000fbc565b505084810360408601528551808252908201925081860190845b8181101562000af35762001013835162001079565b8552938301939183019160010162000ffe565b60208101600383106200103557fe5b91905290565b90815260200190565b918252602082015260400190565b6040518181016001600160401b03811182821017156200107157600080fd5b604052919050565b6001600160a01b031690565b6001600160a01b038116811462000b1357600080fd5b60805160a05160c05160e0516101005160601c6101205160601c61014051610160516101805160601c6101a0516101c05160601c6101e05160601c6102005160601c610220516102405161026051610280516102a05160601c6102c05161486862001249600039806119b352806119ea52508061184452806118dd5250806107f45250806107905280612bb5525080610718528061081c5280610c515280612ff0528061317952806132b152806133bc528061353952806136715250806107b252806109bc5280610c175280612fbc52806130fe5280613145528061323b528061327d528061338852806134c3528061350552806135fb528061363d5250806113f852806127df52806128ab5280612bdb5280612f71528061308a528061333e528061344f5250806109e052806110ee5280611ba55280611c44528061279652806128625280612b7a5280612f32528061303452806131c752806132ff528061340052806135875250806111cc5250806109495250508061181d5250806117f9525080610fd1525080610fad525080610f5d5250806124d35250806125155250806124f452506148686000f3fe608060405234801561001057600080fd5b506004361061032b5760003560e01c80637ecebe00116101b2578063a457c2d7116100f9578063d505accf116100a2578063de82cd341161007c578063de82cd34146105e8578063ed24911d146105f0578063f174e241146105f8578063f5431aa8146106005761032b565b8063d505accf146105af578063d5c096c4146105c2578063dd62ed3e146105d55761032b565b8063b35056b8116100d3578063b35056b814610597578063b7b814fc1461059f578063d2946c2b146105a75761032b565b8063a457c2d714610569578063a9059cbb1461057c578063aaabadc51461058f5761032b565b8063893d20e81161015b57806395d89b411161013557806395d89b411461053b5780639d2c110c146105435780639f11080e146105565761032b565b8063893d20e8146105185780638d928af81461052057806390193b7c146105285761032b565b80638456cb591161018c5780638456cb59146104fd578063851c1bb31461050557806387ec6817146104675761032b565b80637ecebe00146104da5780638129fc1c146104ed57806382687a56146104f55761032b565b8063395093511161027657806355c676281161021f578063679aefce116101f9578063679aefce1461049e57806370a08231146104a657806374f3b009146104b95761032b565b806355c676281461045f5780636028bfd41461046757806363fe3b56146104885761032b565b80634de046d5116102505780634de046d51461043a57806354a844ba1461044f57806354fd4d50146104575761032b565b806339509351146104175780633f4ba83a1461042a5780634d64cd74146104325761032b565b80631dd746ea116102d85780633644e515116102b25780633644e515146103f257806338e9922e146103fa57806338fff2d01461040f5761032b565b80631dd746ea146103b557806323b872dd146103ca578063313ce567146103dd5761032b565b806316b8d6ff1161030957806316b8d6ff1461038e57806318160ddd146103965780631c0de0511461039e5761032b565b806301ec954a1461033057806306fdde0314610359578063095ea7b31461036e575b600080fd5b61034361033e36600461419c565b610608565b604051610350919061452f565b60405180910390f35b610361610668565b6040516103509190614773565b61038161037c366004613f6e565b6106ff565b604051610350919061450c565b610343610716565b61034361073a565b6103a6610740565b60405161035093929190614517565b6103bd610769565b60405161035091906144d4565b6103816103d8366004613ebe565b610877565b6103e56108ed565b60405161035091906147ad565b6103436108f6565b61040d610408366004614259565b610905565b005b610343610947565b610381610425366004613f6e565b61096b565b61040d6109a6565b6103436109ba565b6104426109de565b6040516103509190614429565b61040d610a02565b610361610a56565b610343610ab7565b61047a61047536600461409d565b610aca565b604051610350929190614786565b610490610ae8565b60405161035092919061479f565b610343610b26565b6103436104b4366004613e6a565b610cbb565b6104cc6104c736600461409d565b610cda565b6040516103509291906144e7565b6103436104e8366004613e6a565b610d9c565b61040d610da7565b610343610f42565b61040d610f47565b610343610513366004614140565b610f59565b610442610fab565b610442610fcf565b610343610536366004613e6a565b610ff3565b61036161100e565b61034361055136600461420d565b61106f565b61040d610564366004614271565b6110a8565b610381610577366004613f6e565b61111a565b61038161058a366004613f6e565b611158565b610442611165565b61038161116f565b61040d611180565b6104426111ca565b61040d6105bd366004613efe565b6111ee565b6104cc6105d036600461409d565b61126f565b6103436105e3366004613e86565b611306565b610343611343565b6103436113ec565b6104426113f6565b61034361141a565b6000846080015161063561061a610fcf565b6001600160a01b0316336001600160a01b03161460cd61162c565b61064a610640610947565b82146101f461162c565b61065261163a565b61065e8686868661164d565b9695505050505050565b60038054604080516020601f60026000196101006001881615020190951694909404938401819004810282018101909252828152606093909290918301828280156106f45780601f106106c9576101008083540402835291602001916106f4565b820191906000526020600020905b8154815290600101906020018083116106d757829003601f168201915b505050505090505b90565b600061070c338484611772565b5060015b92915050565b7f000000000000000000000000000000000000000000000000000000000000000090565b60025490565b600080600061074d6117da565b1592506107586117f7565b915061076261181b565b9050909192565b604080516003808252608082019092526060918291906020820183803683370190505090507f0000000000000000000000000000000000000000000000000000000000000000817f0000000000000000000000000000000000000000000000000000000000000000815181106107db57fe5b6020026020010181815250506108196107f261183f565b7f000000000000000000000000000000000000000000000000000000000000000090611a0f565b817f00000000000000000000000000000000000000000000000000000000000000008151811061084557fe5b602002602001018181525050670de0b6b3a76400008160008151811061086757fe5b6020908102919091010152905090565b6000806108848533611306565b90506108a8336001600160a01b03871614806108a05750838210155b61019e61162c565b6108b3858585611a47565b336001600160a01b038616148015906108ce57506000198114155b156108e0576108e08533858403611772565b60019150505b9392505050565b60055460ff1690565b60006109006113ec565b905090565b61090d611b27565b610915611b70565b600080610920610ae8565b915091506109396109318383611b80565b61014f61162c565b61094283611c87565b505050565b7f000000000000000000000000000000000000000000000000000000000000000090565b3360008181526001602090815260408083206001600160a01b0387168452909152812054909161070c9185906109a19086611cff565b611772565b6109ae611b27565b6109b86000611d11565b565b7f000000000000000000000000000000000000000000000000000000000000000090565b7f000000000000000000000000000000000000000000000000000000000000000090565b610a0a611b27565b610a12611da2565b610a1c6001611db6565b7feff3d4d215b42bf0960be9c6d5e05c22cba4df6627a3a523e2acee733b5854c86001604051610a4c919061450c565b60405180910390a1565b60098054604080516020601f60026000196101006001881615020190951694909404938401819004810282018101909252828152606093909290918301828280156106f45780601f106106c9576101008083540402835291602001916106f4565b6008546000906109009060c0603f611df8565b60006060610adc888785611e07611e1e565b97509795505050505050565b6008546000908190670de0b6b3a7640000610b0582602080611df8565b029250670de0b6b3a7640000610b1e8260406020611df8565b029150509091565b600080610b31610947565b90506060610b3d610fcf565b6001600160a01b031663f94d4668836040518263ffffffff1660e01b8152600401610b68919061452f565b60006040518083038186803b158015610b8057600080fd5b505afa158015610b94573d6000803e3d6000fd5b505050506040513d6000823e601f3d908101601f19168201604052610bbc9190810190613f99565b50915050610bd181610bcc610769565b611f85565b600080610bdc610ae8565b91509150610be8613bdb565b6040518060600160405280610bfb610ab7565b81526020018481526020018381525090506000610c87610c4e867f000000000000000000000000000000000000000000000000000000000000000081518110610c4057fe5b602002602001015184611fee565b867f000000000000000000000000000000000000000000000000000000000000000081518110610c7a57fe5b602002602001015161204f565b9050610cb0610ca986600081518110610c9c57fe5b602002602001015161205b565b829061206f565b965050505050505090565b6001600160a01b0381166000908152602081905260409020545b919050565b60608088610ce961061a610fcf565b610cf4610640610947565b6000610cff856120c6565b15610d2757610d0c6120f5565b610d1e88610d1861073a565b87612108565b94509050610d3f565b610d2f61163a565b610d3a8a8987611e07565b945090505b610d498a826121fe565b835167ffffffffffffffff81118015610d6157600080fd5b50604051908082528060200260200182016040528015610d8b578160200160208202803683370190505b509250505097509795505050505050565b600061071082610ff3565b6000610db1610947565b90506060610dbd610fcf565b6001600160a01b031663f94d4668836040518263ffffffff1660e01b8152600401610de8919061452f565b60006040518083038186803b158015610e0057600080fd5b505afa158015610e14573d6000803e3d6000fd5b505050506040513d6000823e601f3d908101601f19168201604052610e3c9190810190613f99565b505060408051600380825260808201909252919250606091906020820183803683370190505090506dffffffffffffffffffffffffffff81600081518110610e8057fe5b602002602001018181525050610e94613bfc565b6040518060800160405280610ea8856106fc565b8152602001838152602001604051806020016040528060008152508152602001600015158152509050610ed9610fcf565b6001600160a01b031663b95cac28853030856040518563ffffffff1660e01b8152600401610f0a9493929190614557565b600060405180830381600087803b158015610f2457600080fd5b505af1158015610f38573d6000803e3d6000fd5b5050505050505050565b600090565b610f4f611b27565b6109b86001611d11565b60007f000000000000000000000000000000000000000000000000000000000000000082604051602001610f8e9291906143b3565b604051602081830303815290604052805190602001209050919050565b7f000000000000000000000000000000000000000000000000000000000000000090565b7f000000000000000000000000000000000000000000000000000000000000000090565b6001600160a01b031660009081526006602052604090205490565b60048054604080516020601f60026000196101006001881615020190951694909404938401819004810282018101909252828152606093909290918301828280156106f45780601f106106c9576101008083540402835291602001916106f4565b6000836080015161108161061a610fcf565b61108c610640610947565b61109461163a565b61109f858585612208565b95945050505050565b6110b0611b27565b6110b8611b70565b6000806110c3610ae8565b915091506110d46109318383611b80565b6110e96110e18585611b80565b61015761162c565b6111147f00000000000000000000000000000000000000000000000000000000000000008585612215565b50505050565b6000806111273385611306565b90508083106111415761113c33856000611772565b61114e565b61114e3385858403611772565b5060019392505050565b600061070c338484611a47565b60006109006122eb565b6008546000906109009060ff612365565b611188611b27565b6111906120f5565b61119a6000611db6565b7feff3d4d215b42bf0960be9c6d5e05c22cba4df6627a3a523e2acee733b5854c86000604051610a4c919061450c565b7f000000000000000000000000000000000000000000000000000000000000000090565b60007f6e71edae12b1b97f4d1f60370fef10105fa2faae0126114a169c64845d6126c988888861121d8c610ff3565b8960405160200161123396959493929190614644565b604051602081830303815290604052805190602001209050611264888261125b87878761236c565b886101f86123ab565b610f38888888611772565b6060808861127e61061a610fcf565b611289610640610947565b600061129361163a565b61129b61073a565b6112ed576112aa8a8a87612402565b945090506112c36112b9610f42565b82101560cc61162c565b6112d560006112d0610f42565b61249a565b6112e8896112e1610f42565b830361249a565b610d49565b6112f88a8987611e07565b94509050610d49898261249a565b6000611310610fcf565b6001600160a01b0316826001600160a01b031614156113325750600019610710565b61133c83836124a4565b9050610710565b6000806000611350610fcf565b6001600160a01b031663b05f8e48611366610947565b306040518363ffffffff1660e01b815260040161138492919061472a565b60806040518083038186803b15801561139c57600080fd5b505afa1580156113b0573d6000803e3d6000fd5b505050506040513d601f19601f820116820180604052508101906113d49190614292565b5050915091506113e581830161205b565b9250505090565b60006109006124cf565b7f000000000000000000000000000000000000000000000000000000000000000090565b600061090061183f565b600061142f836115d9565b6060835160010167ffffffffffffffff8111801561144c57600080fd5b50604051908082528060200260200182016040528015611476578160200160208202803683370190505b509050308160008151811061148757fe5b60200260200101906001600160a01b031690816001600160a01b03168152505060005b84518110156114f6578481815181106114bf57fe5b60200260200101518282600101815181106114d657fe5b6001600160a01b03909216602092830291909101909101526001016114aa565b506060835160010167ffffffffffffffff8111801561151457600080fd5b5060405190808252806020026020018201604052801561153e578160200160208202803683370190505b50905060008160008151811061155057fe5b60200260200101906001600160a01b031690816001600160a01b03168152505060005b84518110156115bf5784818151811061158857fe5b602002602001015182826001018151811061159f57fe5b6001600160a01b0390921660209283029190910190910152600101611573565b506115cc8787848461256c565b925050505b949350505050565b806115e381612675565b5050565b60006115f783831115600161162c565b50900390565b600061160a8484846126ee565b506001901b60001901811b1992909216911b1790565b80820390821102900390565b816115e3576115e381612734565b6109b86116456117da565b61019261162c565b60006116696003841080156116625750600383105b606461162c565b6060611673610769565b905061167f8582611f85565b60008061168a610ae8565b91509150611696613bdb565b60405180606001604052806116a9610ab7565b81526020810185905260400183905290506000895160018111156116c957fe5b141561172d576116f089606001518589815181106116e357fe5b602002602001015161275e565b60608a015260006117028a8a8461276a565b90506117218186898151811061171457fe5b6020026020010151612831565b955050505050506115d1565b61174189606001518588815181106116e357fe5b60608a015260006117538a8a8461283d565b905061172181868a8151811061176557fe5b60200260200101516128f2565b6001600160a01b0380841660008181526001602090815260408083209487168084529490915290819020849055517f8c5be1e5ebec7d5bd14f71427d1e84f3dd0314c0f7b2291e5b200ac8c7c3b925906117cd90859061452f565b60405180910390a3505050565b60006117e461181b565b42118061090057505060075460ff161590565b7f000000000000000000000000000000000000000000000000000000000000000090565b7f000000000000000000000000000000000000000000000000000000000000000090565b6000807f00000000000000000000000000000000000000000000000000000000000000006001600160a01b03166318160ddd6040518163ffffffff1660e01b815260040160206040518083038186803b15801561189b57600080fd5b505afa1580156118af573d6000803e3d6000fd5b505050506040513d601f19601f820116820180604052508101906118d39190614085565b905080156119e8577f00000000000000000000000000000000000000000000000000000000000000006001600160a01b031663b69ef8a86040518163ffffffff1660e01b815260040160206040518083038186803b15801561193457600080fd5b505afa925050508015611964575060408051601f3d908101601f1916820190925261196191810190614085565b60015b6119a7573d808015611992576040519150601f19603f3d011682016040523d82523d6000602084013e611997565b606091505b506119a1816128fe565b506119e8565b60006119dd836119d7847f0000000000000000000000000000000000000000000000000000000000000000611a0f565b90612985565b93506106fc92505050565b7f000000000000000000000000000000000000000000000000000000000000000091505090565b6000828202611a33841580611a2c575083858381611a2957fe5b04145b600361162c565b670de0b6b3a7640000815b04949350505050565b611a5e6001600160a01b038416151561019861162c565b611a756001600160a01b038316151561019961162c565b611a80838383610942565b6001600160a01b038316600090815260208190526040902054611aa690826101a06129c5565b6001600160a01b038085166000908152602081905260408082209390935590841681522054611ad59082611cff565b6001600160a01b0380841660008181526020819052604090819020939093559151908516907fddf252ad1be2c89b69c2b068fc378daa952ba7f163c4a11628f55a4df523b3ef906117cd90859061452f565b6000611b566000357fffffffff0000000000000000000000000000000000000000000000000000000016610f59565b9050611b6d611b6582336129db565b61019161162c565b50565b6109b8611b7b610fcf565b612ac4565b6000806000611b8d610fcf565b6001600160a01b031663b05f8e48611ba3610947565b7f00000000000000000000000000000000000000000000000000000000000000006040518363ffffffff1660e01b8152600401611be192919061472a565b60806040518083038186803b158015611bf957600080fd5b505afa158015611c0d573d6000803e3d6000fd5b505050506040513d601f19601f82011682018060405250810190611c319190614292565b5050915091506000611c6d828401611c687f0000000000000000000000000000000000000000000000000000000000000000612b76565b61275e565b905085811015801561065e57509390931115949350505050565b611c9a64e8d4a5100082101560cb61162c565b611cb067016345785d8a000082111560ca61162c565b600854611cc1908260c0603f6115fd565b6008556040517fa9ba3ffe0b6c366b81232caab38605a0699ad5398d6cce76f91ee809e322dafc90611cf490839061452f565b60405180910390a150565b60008282016108e6848210158361162c565b8015611d3157611d2c611d226117f7565b421061019361162c565b611d46565b611d46611d3c61181b565b42106101a961162c565b600780547fffffffffffffffffffffffffffffffffffffffffffffffffffffffffffffff00168215151790556040517f9e3a5e37224532dea67b89face185703738a228a6e8a23dee546960180d3be6490611cf490839061450c565b6109b8611dad61116f565b156101b561162c565b600854611dc5908260ff612c50565b6008556040517feff3d4d215b42bf0960be9c6d5e05c22cba4df6627a3a523e2acee733b5854c890611cf490839061450c565b6001901b6000190191901c1690565b60006060611e166103e6612734565b935093915050565b333014611f0d576000306001600160a01b0316600036604051611e429291906143e3565b6000604051808303816000865af19150503d8060008114611e7f576040519150601f19603f3d011682016040523d82523d6000602084013e611e84565b606091505b505090508060008114611e9357fe5b60046000803e6000517fffffffff00000000000000000000000000000000000000000000000000000000167f43adbafb000000000000000000000000000000000000000000000000000000008114611eef573d6000803e3d6000fd5b506020600460003e604060205260243d03602460403e601c3d016000f35b60006060611f208686868663ffffffff16565b8051601f1982018390526343adbafb7fffffffffffffffffffffffffffffffffffffffffffffffffffffffffffffffc083015291935091506020027fffffffffffffffffffffffffffffffffffffffffffffffffffffffffffffffdc82016044820181fd5b81518151611f94908290612c5f565b60005b8181101561111457611fcf848281518110611fae57fe5b6020026020010151848381518110611fc257fe5b6020026020010151611a0f565b848281518110611fdb57fe5b6020908102919091010152600101611f97565b6000816020015183101561202757815160208301516000916120139186900390611a0f565b905061201f84826115e7565b915050610710565b81604001518311612039575081610710565b8151604083015160009161201391860390611a0f565b60006108e68383611cff565b60006107108261206961073a565b906115e7565b600061207e821515600461162c565b670de0b6b3a764000083026120b08415806120a95750670de0b6b3a76400008583816120a657fe5b04145b600561162c565b6001836001830304018115150291505092915050565b6000808251118015610710575060ff8016828060200190518101906120eb91906142d2565b60ff161492915050565b6109b861210061116f565b6101b661162c565b60006060600061211784612c6c565b90506060865167ffffffffffffffff8111801561213357600080fd5b5060405190808252806020026020018201604052801561215d578160200160208202803683370190505b509050600061216a610f42565b9050600061217d898381518110610c9c57fe5b9050600061218b8583612985565b905060005b8a518110156121ed57838114156121a85760006121ce565b6121ce828c83815181106121b857fe5b6020026020010151611a0f90919063ffffffff16565b8582815181106121da57fe5b6020908102919091010152600101612190565b509399929850919650505050505050565b6115e38282612c82565b60006108e66103e6612734565b6122248183111561014c61162c565b61223f6b0de0b6b39983494c589c000082111561014d61162c565b612257670de0b6b3a7640000825b061561016161162c565b612269670de0b6b3a76400008361224d565b61229e670de0b6b3a7640000820460406020612296670de0b6b3a7640000876008549190046020806115fd565b9291906115fd565b6008556040516001600160a01b038416907fd0e27a0d0c2cb09280fa5e4487315455b32afcdcf012dc35b6ef2a0e3c4d1280906122de908590859061479f565b60405180910390a2505050565b60006122f5610fcf565b6001600160a01b031663aaabadc56040518163ffffffff1660e01b815260040160206040518083038186803b15801561232d57600080fd5b505afa158015612341573d6000803e3d6000fd5b505050506040513d601f19601f820116820180604052508101906109009190614180565b1c60011690565b60408051604180825260808201909252606091829190602082018180368337019050509050836020820152826040820152846060820153949350505050565b60006123b685612d4e565b90506123cc6123c6878387612d6a565b8361162c565b6123db428410156101b861162c565b5050506001600160a01b039092166000908152600660205260409020805460010190555050565b6000606061241d6001600160a01b038616301461015661162c565b6124346001600160a01b038516301461015661162c565b604080516003808252608082019092526dffffffffffffffffffffffffffff91606091906020820183803683370190505090506dffffffffffffffffffffffffffff8160008151811061248357fe5b602090810291909101015290969095509350505050565b6115e38282612e19565b6001600160a01b03918216600090815260016020908152604080832093909416825291909152205490565b60007f00000000000000000000000000000000000000000000000000000000000000007f00000000000000000000000000000000000000000000000000000000000000007f000000000000000000000000000000000000000000000000000000000000000061253c612eac565b306040516020016125519594939291906146fe565b60405160208183030381529060405280519060200120905090565b600080856001600160a01b03166309b2760f866040518263ffffffff1660e01b815260040161259b919061475f565b602060405180830381600087803b1580156125b557600080fd5b505af11580156125c9573d6000803e3d6000fd5b505050506040513d601f19601f820116820180604052508101906125ed9190614085565b6040517f66a9c7d20000000000000000000000000000000000000000000000000000000081529091506001600160a01b038716906366a9c7d29061263990849088908890600401614678565b600060405180830381600087803b15801561265357600080fd5b505af1158015612667573d6000803e3d6000fd5b509298975050505050505050565b60028151101561268457611b6d565b60008160008151811061269357fe5b602002602001015190506000600190505b82518110156109425760008382815181106126bb57fe5b602002602001015190506126e4816001600160a01b0316846001600160a01b031610606561162c565b91506001016126a4565b6126fd6101008310606461162c565b61272560018210158015611662575061271b60ff8461010003611620565b821115606461162c565b61094283821c156101b461162c565b611b6d817f42414c0000000000000000000000000000000000000000000000000000000000612eb0565b60006108e68383611a0f565b60208301516000906001600160a01b03163014156127945761278d848484612f2b565b90506108e6565b7f00000000000000000000000000000000000000000000000000000000000000006001600160a01b031684602001516001600160a01b031614156127dd5761278d848484613083565b7f00000000000000000000000000000000000000000000000000000000000000006001600160a01b031684602001516001600160a01b031614156128265761278d8484846131c0565b6108e6610135612734565b60006108e68383612985565b60408301516000906001600160a01b03163014156128605761278d8484846132f8565b7f00000000000000000000000000000000000000000000000000000000000000006001600160a01b031684604001516001600160a01b031614156128a95761278d848484613448565b7f00000000000000000000000000000000000000000000000000000000000000006001600160a01b031684604001516001600160a01b031614156128265761278d848484613580565b60006108e6838361206f565b805160208201517fffffffff00000000000000000000000000000000000000000000000000000000167f43adbafb0000000000000000000000000000000000000000000000000000000081147ffa61cc1200000000000000000000000000000000000000000000000000000000821417612979578160208401fd5b506115e3610165612734565b6000612994821515600461162c565b670de0b6b3a764000083026129bc8415806120a95750670de0b6b3a76400008583816120a657fe5b828181611a3e57fe5b60006129d4848411158361162c565b5050900390565b600073ba1ba1ba1ba1ba1ba1ba1ba1ba1ba1ba1ba1ba1b6129fa610fab565b6001600160a01b031614158015612a155750612a15836136b8565b15612a3d57612a22610fab565b6001600160a01b0316336001600160a01b0316149050610710565b612a456122eb565b6001600160a01b0316639be2a8848484306040518463ffffffff1660e01b8152600401612a7493929190614538565b60206040518083038186803b158015612a8c57600080fd5b505afa158015612aa0573d6000803e3d6000fd5b505050506040513d601f19601f8201168201806040525081019061133c9190614065565b60408051600080825260208201909252606091612af7565b612ae4613c26565b815260200190600190039081612adc5790505b506040517f0e8e3e840000000000000000000000000000000000000000000000000000000081529091506001600160a01b03831690630e8e3e8490612b4090849060040161443d565b600060405180830381600087803b158015612b5a57600080fd5b505af1158015612b6e573d6000803e3d6000fd5b505050505050565b60007f00000000000000000000000000000000000000000000000000000000000000006001600160a01b0316826001600160a01b03161415612bd957507f0000000000000000000000000000000000000000000000000000000000000000610cd5565b7f00000000000000000000000000000000000000000000000000000000000000006001600160a01b0316826001600160a01b03161415612c2557612c1e6107f261183f565b9050610cd5565b6001600160a01b038216301415612c455750670de0b6b3a7640000610cd5565b610cd5610135612734565b6001811b1992909216911b1790565b6115e3818314606761162c565b6000818060200190518101906108e691906142ee565b612c996001600160a01b038316151561019b61162c565b612ca582600083610942565b6001600160a01b038216600090815260208190526040902054612ccb90826101b26129c5565b6001600160a01b038316600090815260208190526040902055612cfe612cf982612cf361073a565b9061371c565b61372a565b60006001600160a01b0316826001600160a01b03167fddf252ad1be2c89b69c2b068fc378daa952ba7f163c4a11628f55a4df523b3ef83604051612d42919061452f565b60405180910390a35050565b6000612d586124cf565b82604051602001610f8e9291906143f3565b6000612d7c82516041146101b961162c565b60208281015160408085015160608601518251600080825295019283905292939092811a91600190612db5908990859088908890614741565b6020604051602081039080840390855afa158015612dd7573d6000803e3d6000fd5b5050604051601f1901519150506001600160a01b03811615801590612e0d5750876001600160a01b0316816001600160a01b0316145b98975050505050505050565b612e2560008383610942565b612e3a612cf982612e3461073a565b90611cff565b6001600160a01b038216600090815260208190526040902054612e5d9082611cff565b6001600160a01b0383166000818152602081905260408082209390935591519091907fddf252ad1be2c89b69c2b068fc378daa952ba7f163c4a11628f55a4df523b3ef90612d4290859061452f565b4690565b7f08c379a000000000000000000000000000000000000000000000000000000000600090815260206004526007602452600a808404818106603090810160081b958390069590950190829004918206850160101b01602363ffffff0060e086901c160160181b0190930160c81b60445260e882901c90606490fd5b6000612fb17f00000000000000000000000000000000000000000000000000000000000000006001600160a01b031685604001516001600160a01b03161480612fa957507f00000000000000000000000000000000000000000000000000000000000000006001600160a01b031685604001516001600160a01b0316145b61013561162c565b6115d18460600151847f000000000000000000000000000000000000000000000000000000000000000081518110612fe557fe5b6020026020010151857f00000000000000000000000000000000000000000000000000000000000000008151811061301957fe5b602002602001015161303187600081518110610c9c57fe5b867f00000000000000000000000000000000000000000000000000000000000000006001600160a01b03168a604001516001600160a01b0316146130775761372f61307b565b61378d5b63ffffffff16565b60006130df7f00000000000000000000000000000000000000000000000000000000000000006001600160a01b031685604001516001600160a01b03161480612fa9575060408501516001600160a01b0316301461013561162c565b60408401516001600160a01b0316301461313a576131358460600151847f00000000000000000000000000000000000000000000000000000000000000008151811061312757fe5b6020026020010151846137f6565b6115d1565b6115d18460600151847f00000000000000000000000000000000000000000000000000000000000000008151811061316e57fe5b6020026020010151857f0000000000000000000000000000000000000000000000000000000000000000815181106131a257fe5b60200260200101516131ba87600081518110610c9c57fe5b86613826565b600061321c7f00000000000000000000000000000000000000000000000000000000000000006001600160a01b031685604001516001600160a01b03161480612fa9575060408501516001600160a01b0316301461013561162c565b60408401516001600160a01b03163014613272576131358460600151847f00000000000000000000000000000000000000000000000000000000000000008151811061326457fe5b60200260200101518461388c565b6115d18460600151847f0000000000000000000000000000000000000000000000000000000000000000815181106132a657fe5b6020026020010151857f0000000000000000000000000000000000000000000000000000000000000000815181106132da57fe5b60200260200101516132f287600081518110610c9c57fe5b866138cc565b600061337d7f00000000000000000000000000000000000000000000000000000000000000006001600160a01b031685602001516001600160a01b03161480612fa957507f00000000000000000000000000000000000000000000000000000000000000006001600160a01b031685602001516001600160a01b03161461013561162c565b6115d18460600151847f0000000000000000000000000000000000000000000000000000000000000000815181106133b157fe5b6020026020010151857f0000000000000000000000000000000000000000000000000000000000000000815181106133e557fe5b60200260200101516133fd87600081518110610c9c57fe5b867f00000000000000000000000000000000000000000000000000000000000000006001600160a01b03168a602001516001600160a01b0316146134435761393361307b565b61398a565b60006134a47f00000000000000000000000000000000000000000000000000000000000000006001600160a01b031685602001516001600160a01b03161480612fa9575060208501516001600160a01b0316301461013561162c565b60208401516001600160a01b031630146134fa576131358460600151847f0000000000000000000000000000000000000000000000000000000000000000815181106134ec57fe5b6020026020010151846139f4565b6115d18460600151847f00000000000000000000000000000000000000000000000000000000000000008151811061352e57fe5b6020026020010151857f00000000000000000000000000000000000000000000000000000000000000008151811061356257fe5b602002602001015161357a87600081518110610c9c57fe5b86613a1e565b60006135dc7f00000000000000000000000000000000000000000000000000000000000000006001600160a01b031685602001516001600160a01b03161480612fa9575060208501516001600160a01b0316301461013561162c565b60208401516001600160a01b03163014613632576131358460600151847f00000000000000000000000000000000000000000000000000000000000000008151811061362457fe5b602002602001015184613a6d565b6115d18460600151847f00000000000000000000000000000000000000000000000000000000000000008151811061366657fe5b6020026020010151857f00000000000000000000000000000000000000000000000000000000000000008151811061369a57fe5b60200260200101516136b287600081518110610c9c57fe5b86613aa2565b60006136e37f9f11080e00000000000000000000000000000000000000000000000000000000610f59565b82148061071057506137147f38e9922e00000000000000000000000000000000000000000000000000000000610f59565b909114919050565b60006108e6838360016129c5565b600255565b60008061373c8684611fee565b9050600061374a828761204f565b90506000613758868a6115e7565b905060006137738461206961376d8587613af6565b8a613b10565b905061377f88826115e7565b9a9950505050505050505050565b60008061379a8684611fee565b905060006137a8828761204f565b905060006137bf6137b9838b613af6565b87613b31565b905060006137cd84836115e7565b905060006137db8288613b51565b90506137e78a826115e7565b9b9a5050505050505050505050565b6000806138038484611fee565b9050600061381a6138148688611cff565b85611fee565b905061065e81836115e7565b60008261383e576138378683611fee565b905061109f565b600061384a8684611fee565b9050600061385b613814888a611cff565b9050600061386982846115e7565b90506000613877848961204f565b905061377f6138868884613af6565b82613b31565b6000806138998484611fee565b905060006138a782876115e7565b905060006138b58286613b51565b90506138c186826115e7565b979650505050505050565b6000826138da57508461109f565b60006138e68684611fee565b905060006138f4828761204f565b90506000613902878a611cff565b90506000613910848361204f565b905060006139276139218984613af6565b85613b31565b90506137e781896115e7565b60008261394157508461109f565b600061394d8684611fee565b9050600061395b828761204f565b90506000613969868a611cff565b9050600061397e8461206961376d8587613af6565b905061377f81896115e7565b60008261399b576138378683613b51565b60006139a78684611fee565b905060006139b5828761204f565b905060006139cc6139c6838b613af6565b87613b10565b905060006139da8483611cff565b905060006139e88288613b51565b90506137e7818b6115e7565b600080613a018484611fee565b90506000613a1261381486886115e7565b905061065e82826115e7565b600080613a2b8684611fee565b90506000613a3c613814888a6115e7565b90506000613a4a83836115e7565b90506000613a58848961204f565b905061377f613a678884613af6565b82613b10565b600080613a7a8484611fee565b90506000613a888287611cff565b90506000613a968286613b51565b90506138c181876115e7565b600080613aaf8684611fee565b90506000613abd828761204f565b90506000613acb878a6115e7565b90506000613ad9848361204f565b90506000613aea6139218984613af6565b90506137e788826115e7565b60008282026108e6841580611a2c575083858381611a2957fe5b6000613b1f821515600461162c565b50811515600019909201046001010290565b6000613b40821515600461162c565b818381613b4957fe5b049392505050565b60008160200151831015613b9457815161133c90613b7890670de0b6b3a764000090611cff565b602084015184516119d791613b8d9190611a0f565b8690611cff565b81604001518311613ba6575081610710565b815161133c90613bbf90670de0b6b3a7640000906115e7565b604084015184516119d791613bd49190611a0f565b86906115e7565b60405180606001604052806000815260200160008152602001600081525090565b60405180608001604052806060815260200160608152602001606081526020016000151581525090565b6040805160a081019091528060008152600060208201819052604082018190526060820181905260809091015290565b80356107108161480e565b600082601f830112613c71578081fd5b8135613c84613c7f826147e2565b6147bb565b818152915060208083019084810181840286018201871015613ca557600080fd5b60005b84811015613cc457813584529282019290820190600101613ca8565b505050505092915050565b600082601f830112613cdf578081fd5b8151613ced613c7f826147e2565b818152915060208083019084810181840286018201871015613d0e57600080fd5b60005b84811015613cc457815184529282019290820190600101613d11565b600082601f830112613d3d578081fd5b813567ffffffffffffffff811115613d53578182fd5b613d666020601f19601f840116016147bb565b9150808252836020828501011115613d7d57600080fd5b8060208401602084013760009082016020015292915050565b80356002811061071057600080fd5b6000610120808385031215613db8578182fd5b613dc1816147bb565b915050613dce8383613d96565b8152613ddd8360208401613c56565b6020820152613def8360408401613c56565b6040820152606082013560608201526080820135608082015260a082013560a0820152613e1f8360c08401613c56565b60c0820152613e318360e08401613c56565b60e08201526101008083013567ffffffffffffffff811115613e5257600080fd5b613e5e85828601613d2d565b82840152505092915050565b600060208284031215613e7b578081fd5b81356108e68161480e565b60008060408385031215613e98578081fd5b8235613ea38161480e565b91506020830135613eb38161480e565b809150509250929050565b600080600060608486031215613ed2578081fd5b8335613edd8161480e565b92506020840135613eed8161480e565b929592945050506040919091013590565b600080600080600080600060e0888a031215613f18578283fd5b8735613f238161480e565b96506020880135613f338161480e565b955060408801359450606088013593506080880135613f5181614823565b9699959850939692959460a0840135945060c09093013592915050565b60008060408385031215613f80578182fd5b8235613f8b8161480e565b946020939093013593505050565b600080600060608486031215613fad578081fd5b835167ffffffffffffffff80821115613fc4578283fd5b818601915086601f830112613fd7578283fd5b8151613fe5613c7f826147e2565b80828252602080830192508086018b828387028901011115614005578788fd5b8796505b8487101561403057805161401c8161480e565b845260019690960195928101928101614009565b508901519097509350505080821115614047578283fd5b5061405486828701613ccf565b925050604084015190509250925092565b600060208284031215614076578081fd5b815180151581146108e6578182fd5b600060208284031215614096578081fd5b5051919050565b600080600080600080600060e0888a0312156140b7578081fd5b8735965060208801356140c98161480e565b955060408801356140d98161480e565b9450606088013567ffffffffffffffff808211156140f5578283fd5b6141018b838c01613c61565b955060808a0135945060a08a0135935060c08a0135915080821115614124578283fd5b506141318a828b01613d2d565b91505092959891949750929550565b600060208284031215614151578081fd5b81357fffffffff00000000000000000000000000000000000000000000000000000000811681146108e6578182fd5b600060208284031215614191578081fd5b81516108e68161480e565b600080600080608085870312156141b1578182fd5b843567ffffffffffffffff808211156141c8578384fd5b6141d488838901613da5565b955060208701359150808211156141e9578384fd5b506141f687828801613c61565b949794965050505060408301359260600135919050565b600080600060608486031215614221578081fd5b833567ffffffffffffffff811115614237578182fd5b61424386828701613da5565b9660208601359650604090950135949350505050565b60006020828403121561426a578081fd5b5035919050565b60008060408385031215614283578182fd5b50508035926020909101359150565b600080600080608085870312156142a7578182fd5b84519350602085015192506040850151915060608501516142c78161480e565b939692955090935050565b6000602082840312156142e3578081fd5b81516108e681614823565b60008060408385031215614300578182fd5b825161430b81614823565b6020939093015192949293505050565b6001600160a01b03169052565b6000815180845260208085019450808401835b838110156143575781518752958201959082019060010161433b565b509495945050505050565b15159052565b60008151808452815b8181101561438d57602081850181015186830182015201614371565b8181111561439e5782602083870101525b50601f01601f19169290920160200192915050565b9182527fffffffff0000000000000000000000000000000000000000000000000000000016602082015260240190565b6000828483379101908152919050565b7f190100000000000000000000000000000000000000000000000000000000000081526002810192909252602282015260420190565b6001600160a01b0391909116815260200190565b602080825282518282018190526000919060409081850190868401855b828110156144c757815180516004811061447057fe5b8552808701516144828887018261431b565b50858101518686015260608082015161449d8288018261431b565b5050608090810151906144b28682018361431b565b505060a093909301929085019060010161445a565b5091979650505050505050565b6000602082526108e66020830184614328565b6000604082526144fa6040830185614328565b828103602084015261109f8185614328565b901515815260200190565b92151583526020830191909152604082015260600190565b90815260200190565b9283526001600160a01b03918216602084015216604082015260600190565b600085825260206001600160a01b038087168285015280861660408501525060806060840152610100830184516080808601528181518084526101208701915084830193508592505b808310156145c8576145b28451614802565b82529284019260019290920191908401906145a0565b508387015193507fffffffffffffffffffffffffffffffffffffffffffffffffffffffffffffff809250828682030160a08701526146068185614328565b935050506040850151818584030160c08601526146238382614368565b92505050606084015161463960e0850182614362565b509695505050505050565b9586526001600160a01b0394851660208701529290931660408501526060840152608083019190915260a082015260c00190565b60006060820185835260206060818501528186518084526080860191508288019350845b818110156146c0576146ae8551614802565b8352938301939183019160010161469c565b505084810360408601528551808252908201925081860190845b81811015612667576146ec8351614802565b855293830193918301916001016146da565b9485526020850193909352604084019190915260608301526001600160a01b0316608082015260a00190565b9182526001600160a01b0316602082015260400190565b93845260ff9290921660208401526040830152606082015260800190565b602081016003831061476d57fe5b91905290565b6000602082526108e66020830184614368565b6000838252604060208301526115d16040830184614328565b918252602082015260400190565b60ff91909116815260200190565b60405181810167ffffffffffffffff811182821017156147da57600080fd5b604052919050565b600067ffffffffffffffff8211156147f8578081fd5b5060209081020190565b6001600160a01b031690565b6001600160a01b0381168114611b6d57600080fd5b60ff81168114611b6d57600080fdfea2646970667358221220c4398693ad0eb33986d065c98fc5f622a62de2ef1192aca7fdae1ffc5debc1e364736f6c63430007010033",
  "linkReferences": {},
  "deployedLinkReferences": {}
}